:10000000A4EF06F00000000000EF00F00000000088
:0A0010000000000000000000F3D71C
:10001C00B8C0C9FFC7B002D00000FCD7C9CF00F0F0
:02002C001200C0
:10002E00B8C0C9FFC7B002D00000FCD7C9CF00F0DE
:02003E001200AE
:100040008B90B4C000F0003600907F0E0016008048
:1000500000C0B4F000C0B8F0EADFB5C0B8F0E7DF28
:040060008B8012007F
:100064000001B56B8B90B4C000F0003600907E0E9A
:10007400001600C0B4F000C0B8F0D7DFB5C0B8F0C7
:06008400CBDF8B801200AF
:10008A000001B76B8B90030E026EB4C000F0B5C0CE
:10009A0001F0025007E001320032019E01BC018EDC
:1000AA00FF0FF8D77F0E0014B86FB88F050E006ED9
:1000BA00B4C0B7F0005004E0B737B791FF0FFBD7D1
:1000CA00E00EB717B789AEDFB7C0B8F0ABDFB6C07E
:0800DA00B8F0A8DF8B801200D2
:1000E2000F0E0C6E470E0D6E0D2EFED70C2EFCD78A
:0600F200000000001200F6
:0A00F800210E0D6E0D2EFED7120032
:100102000001B36B360EB46FACDF00C0B3F00084F5
:1001120000C0B3F0360E0001B46F00C0B5F08FDF3F
:10012200000E0001B315006E00C0B3F0360EB46FBE
:1001320000C0B5F084DF030E0C6E970E0D6E0D2E0F
:0C014200FED70C2EFCD7000000001200BD
:06014E0000000000120099
:10015400020E0001B46F020EB56F800EB66F93DF0E
:02016400120087
:10016600800E1A0A006E800E0001B219005C08E3C8
:10017600800EB219006E800E0B0A005C01E302D0FD
:100186000B0EB26F8FD0000EB46F020EB56F020E5B
:10019600B66F78DFBFD0000E0001B46F020EB56FE8
:1001A600120EB66F6FDFB6D0000E0001B46F020EEE
:1001B600B56F220EB66F66DFADD0000E0001B46FCC
:1001C600020EB56F320EB66F5DDFA4D0000E0001D1
:1001D600B46F020EB56F420EB66F54DF9BD0000EA1
:1001E6000001B46F020EB56F520EB66F4BDF92D0A0
:1001F600000E0001B46F020EB56F620EB66F42DFDD
:1002060089D0000E0001B46F020EB56F720EB66F84
:1002160039DF80D0000E0001B46F020EB56F820E7A
:10022600B66F30DF77D0000E0001B46F020EB56FE7
:10023600920EB66F27DF6ED0000E0001B46F020E6D
:10024600B56FA20EB66F1EDF65D0000E0001B46F4B
:10025600020EB56FB20EB66F15DF5CD0000E000150
:10026600B46F020EB56FC20EB66F0CDF53D0000E20
:100276000001B46F020EB56FD20EB66F03DF4AD01F
:10028600000E0001B46F020EB56FE20EB66FFADE15
:1002960041D0000E0001B46F020EB56FF20EB66FBC
:1002A600F1DE38D00001B2510B0AD8B46CD7B25186
:1002B6000C0AD8B470D7B2510D0AD8B475D7B2515A
:1002C6000E0AD8B47AD7B2510F0AD8B47FD7B25132
:1002D600100AD8B484D7B251110AD8B489D7B2510A
:1002E600120A8FE0B251130A95E0B251140A9BE04C
:1002F600B251150AA1E0B251160AA7E0B251170A87
:10030600ADE0B251180AB3E0B251190AB9E0B251E0
:080316001A0ABFE0F3DE120039
:10031E00180E0001B46F980EB56F8BDE2E0E000115
:10032E00B46F950EB56F85DE010E0001B46F020E2F
:10033E00B56F010EB66FA2DE06DF060E0001B46FBA
:10034E00020EB56F900EB66F99DE070E0001B46FF8
:10035E00020EB56F800EB66F91DE080E0001B46FFF
:10036E00020EB56F100EB66F89DE200E0001B46F4F
:0C037E00020EB56F210EB66F81DE12007A
:0C038A00320E0001B46FB56B56DE12009D
:1003960013D03E0E0001B46F62DE800E0010000125
:1003A600B56F3E0EB46F49DE0ED03E0E0001B46F3F
:1003B600400EB56F42DE07D00001B251010AE9E0F6
:0803C600B251020AF2E012003C
:1003CE004ED03A0E0001B46F46DE800E00100001D2
:1003DE00B56FDF0EB5173A0EB46F2BDE3F0E000170
:1003EE00B46F600EB56F25DE44D03A0E0001B46FC7
:1003FE0032DE400E00100001B56F7F0EB5173A0EBB
:10040E00B46F17DE3A0E0001B46F25DE380E001001
:10041E000001B56FFB0EB5173A0EB46F0ADE29D088
:10042E003A0E0001B46F17DEC00E00100001B56F5A
:10043E003A0EB46FFEDD3A0E0001B46F0CDE380ECC
:10044E0000100001B56FFB0EB5173A0EB46FF1DD5B
:10045E003F0E0001B46F600EB56FEBDD0AD00001E8
:10046E00B251010AAEE0B251020ABFE0B251030A24
:04047E00D7E01200B1
:100482000001B2BF02D0839E01D0838EB2BD02D0E2
:10049200839C01D0838CB2BB02D0839A01D0838A21
:1004A200B2B902D0839801D0838896B102D08484F5
:1004B20001D0849484824ADE8492B2B702D0839EB1
:1004C20001D0838EB2B502D0839C01D0838CB2B3AB
:1004D20002D0839A01D0838AB2B102D0839801D02C
:1004E200838896B102D0848401D0849484822EDEE3
:0E04F200849296A102D0F4DD01D0FDDD12004F
:100500001B0E0001B46FAEDD040E00100001B56FCC
:080510001B0EB46F95DD120013
:100518001B0E0001B46FA2DD010E00100001B56FC3
:080528001B0EB46F89DD120007
:0E0530002A0E0001B46F070EB56F82DD1200B7
:10053E00000E0001AE5D04E3AE511F0801E302D0D0
:10054E001F0EAE6FAE511F08006E00C0AEF01F0E34
:10055E000014026E02C000F00036009000360090CB
:10056E0000360090F80E001600C0AEF0030EB46F09
:0C057E00020EB56F00C0B6F081DD120067
:10058A000001B46B6ADD080E00100001B56FB46B90
:10059A0052DD110E0001B46F60DDDF0E00140001A0
:1005AA00B56F110EB46F47DD100E0001B46FFF0E68
:0605BA00B56F41DD1200E7
:1005C00020D00001B46B4EDD000E00140001B56FA9
:1005D000B46B36DD20D00001B46B44DD000E001496
:1005E0000001B56FB583B46B2BDD15D00001B46B82
:1005F00039DD000E00140001B56FB581B46B20DD4C
:100600000AD00001AE51010ADCE0AE51020AE3E07B
:08061000AE51030AEBE01200F9
:10061800969296949598959A959C959E8492849492
:10062800839E839C839A839858DD57DD56DD838AA1
:100638008388848288DD849250DD848284DD84927C
:100648004CDD848280DD849248DD839884827BDD62
:10065800849243DD848277DD8492839A838E8482B8
:1006680072DD84923ADD839E838884826CDD849275
:100678008398848268DD849230DD848264DD84928C
:100688008388848260DD849228DD839884825BDDA0
:100698008492838E838C838A8388848254DD8492B7
:0806A8001CDD00019681120027
:1006B0000001B06BB16B8B90030E026EAEC000F008
:1006C000AFC001F0025007E001320032019E01BCD0
:1006D000018EFF0FF8D77F0E0014B86FB88F050E8C
:1006E000006EAEC0B0F0005004E0B037B091FF0F24
:1006F000FBD7E00EB0179BDCB0C0B8F098DCB1C0FF
:08070000B8F08CDC8B801200C4
:10070800030E0001B46FAEC0E9FFAFC0EAFFEECF41
:10071800B5F092DC040E0001B46F010EAE25E96E4F
:0E072800000EAF21EA6EEECFB5F086DC1200B7
:100736001C0E00018E6F000E8F6FB80E906F000EAC
:10074600916F2E0E926F000E936FB80E946F000E7F
:10075600956F949A94969488C66AAE51C612B05113
:10076600C612AF51C712B05305E0B151000A01E1FC
:0E077600C78C03D0B15301E0C78CC68A1200B5
:100784008B920D0E0C6EFB0E0D6E0D2EFED70C2EE5
:10079400FCD7000000008B820D0E0C6EFB0E0D6E5C
:0E07A4000D2EFED70C2EFCD700000000120018
:1007B2000001B06BB06B800EB019006E800E080A9B
:1007C200005C11E2B051050FB46FB051AE25E96E75
:1007D200000EB0BFFF0EAF21EA6EEECFB5F02FDCF8
:0807E2000001B02BE8D7120062
:1007EA00010E0001B46FAEC0E9FFAFC0EAFFEECF61
:1007FA00B5F021DC020E0001B46F010EAE25E96EE0
:0E080A00000EAF21EA6EEECFB5F015DC120045
:100818008B840D0E0C6EFB0E0D6E0D2EFED70C2E5E
:08082800FCD7000000001200E3
:1008300039D00D0E0001B46F15DC000E001400015C
:10084000B56F0D0EB46F20EC00F039D00D0E000125
:10085000B46F08DC000E00140001B56FB5870D0EF3
:10086000B46F20EC00F02BD00D0E0001B46F32EC11
:1008700000F0000E00140001B56FB5850D0EB46FC9
:1008800020EC00F01CD00D0E0001B46F32EC00F033
:10089000000E00140001B56FB5830D0EB46F20EC8F
:1008A00000F00DD00001AE51010AC3E0AE51020AC2
:1008B000CDE0AE51030AD8E0AE51040AE4E01200E4
:0E08C00000019691AEC0B2F0DCDD9681120010
:1008CE001B0E0001B46F32EC00F0000E001400019C
:0C08DE00B56F1B0EB46F20EC00F0120090
:1008EA0019DD010E0001B26F6DDD020E0001B26F5B
:1008FA004DDD46DD0B0E0001B26F30DC81EC00F0FD
:02090A001200D9
:10090C008B940D0E0001B46F32EC00F0600E0010F1
:10091C000001B56F0D0EB46F20EC00F0220E00013B
:10092C00B46F32EC00F0800E00100001B56F220E97
:08093C00B46F20EC00F0120082
:100944000001A96B5F6A8D6B230E786E606A000EDE
:10095400766E030E776E4C6A4D6AA96B800EA919E8
:10096400006E800E020A005C32E2550EE16E000E4B
:10097400E26EA951E126000EA9BFFF0EE222010E8C
:10098400E66E580EE16E000EE26EA951E126000EED
:10099400A9BFFF0EE222020EE66E530EE16E000EB8
:1009A400E26EA951E126000EA9BFFF0EE222030E5A
:1009B400E66E790EE16E000EE26EA951E126000E9C
:1009C400A9BFFF0EE222030EE66EA92BC7D7A96BBF
:1009D400800EA919006E800E080A005C1AE29F0EB0
:1009E400E16E000EE26EA951E126000EA9BFFF0ED2
:1009F400E222010EE66E970EE16E000EE26EA95140
:100A0400E126000EA9BFFF0EE222020EE66EA92B1C
:100A1400DFD70F0EC16EF29E926A936A946A956A4A
:100A240094909492948C9494938093849388938ECA
:100A3400939293964E6A4F6A506A516A526A836AD5
:100A44008C6A270E0C6EF50E0D6E0D2EFED70C2E35
:100A5400FCD7E0DD010EB26F12DD0C0EB26F0FDDBC
:100A6400AE6BAF6BB06B010EB16F63DE89DE5EDD22
:100A740081EC00F049DF9F0E0001AE6F000EAF6FF6
:100A840096DE550EAE6F000EAF6F3CDE530E0001C6
:100A9400AE6F000EAF6FA7DE26DF75DD1F0E0001FF
:100AA400AE6F4BDD010E0001AE6FC0DE010E000122
:080AB400AE6F84DDAFDE12001D
:100ABC000001A96BAA6BAB6BAB6B050EAB5D0AE2CD
:100ACC00000E82BC010EA96FA951010A01E1AA2BEB
:100ADC00AB2BF3D7AA51020803E2010E006E1200F1
:040AEC00006A12008A
:100AF0000900F5CFE6FF0006FBE10106F9E112006F
:100B00000001A96BAA6B390EB46F32EC00F0040E31
:100B100000100001B56F390EB46F20EC00F0000139
:100B2000A96BAA6B800EAA19006E800E005C02E110
:100B3000800EA95D33E2800EAA19006E800E005C63
:100B400002E1150EA95D13E2610EA925AB6F000E3F
:100B5000AA21AC6FA9517624AE6FAA517720AF6F4E
:100B6000A7DDABC0E1FFACC0E2FF00C0E6FF800E36
:100B70000001AA19006E800E005C02E1150EA95D4D
:100B800009E3A9517624AE6FAA517720AF6F90DDAB
:100B900000C060F00001A94BAA2BC4D76DC05AF069
:100BA0006EC05BF06FC05CF070C05DF071C05EF055
:100BB00074C05FF075C08DF0390EB46F32EC00F088
:100BC000000E00140001B56F390EB46F20EC00F078
:020BD000120011
:100BD2000001A96BAA6B0B0E7B6E100E7C6E010ED0
:100BE2007D6E880E7E6E78C07FF07AC080F079C00C
:100BF20081F058C082F059C083F053C084F054C0D1
:100C020085F055C086F056C087F04EC088F04FC0C0
:100C120089F050C08AF051C08BF052C08CF0A96BA1
:100C2200AA6B800EAA19006E800E005C02E1120E01
:100C3200A95D14E2A9514C24B46FAA514D20B56F9D
:100C42007B0EA925E96E000EAA21EA6EEECFB6F060
:100C520045EC00F00001A94BAA2BE3D750DC36DEAD
:040C62005ADC120046
:100C660010D0800E0001A96F1AD0C00EA96F17D040
:100C7600940EA96F14D0D40EA96F11D0800EA96F4F
:100C86000ED00001A951010AECE0A951020AEDE0DB
:100C9600A951030AEDE0A951040AEDE0EFD7AA0530
:100CA600006EA951002600C0A9F000C0B2F041ECC8
:100CB60002F09691AD6BAD51AB25E96E000EAC21FD
:100CC600EA6EEE520BE0AD51AB25E96E000EAC219B
:100CD600EA6EEECFAEF0F1DDAD2BEDD796811200C8
:100CE60010D0800E0001A96F1AD0C00EA96F17D0C0
:100CF600940EA96F14D0D40EA96F11D0800EA96FCF
:100D06000ED00001A951010AECE0A951020AEDE05A
:100D1600A951030AEDE0A951040AEDE0EFD7AA05AF
:100D2600006EA951002600C0A9F0968100C0B2F05D
:100D360041EC02F09691ABC0B2F041EC02F0968124
:020D4600120099
:100D480096EC07F00001A76BA86BF8DD020E000116
:100D5800A96FAA6B1E0EAB6F000EAC6F80DF000E82
:100D6800A81902E1000EA719D8A488D0020EA96F0D
:100D7800AA6B160EAB6F000EAC6F71DF9BDE0050D6
:100D8800000AD8A47BD0310EB46F32EC00F000C05A
:100D980057F0B2DE5AC015F05BC028F05CC042F0D4
:100DA8005DC043F05EC041F0010E0001A96F010E65
:100DB800AA6F5AC0ABF093DF010EA96F020EAA6F9B
:100DC80028C0ABF08CDF4250690A04E042506F0A39
:100DD80001E00FD0010EA96F030EAA6F42C0ABF05D
:100DE8007EDF010EA96F040EAA6F200EAB6F77DFAE
:100DF8000ED0010EA96F030EAA6F2E0EAB6F6FDF18
:100E0800010EA96F040EAA6F42C0ABF068DF415013
:100E1800620A09E1020EA96FAA6B290EAB6F000ED8
:100E2800AC6F1DDF08D0020EA96FAA6B350EAB6F31
:100E3800000EAC6F14DF4350430A08E1010EA96F9E
:100E4800050EAA6F430EAB6F4ADF07D0010EA96FDC
:100E5800050EAA6F200EAB6F42DF020E0B6E040E5A
:100E68000C6EBA0E0D6E0D2EFED70C2EFCD70B2E67
:100E7800FAD70000010EA76F000EA86F000EA81980
:100E880002E1010EA71930E1020EA96FAA6B440E08
:100E9800AB6F000EAC6FE3DE020E0B6E040E0C6E31
:100EA800BA0E0D6E0D2EFED70C2EFCD70B2EFAD7D0
:100EB8000000010E4E6E020E4F6E030E506E040EB1
:100EC800516E050E526E81DE020E0B6E040E0C6E14
:100ED800BA0E0D6E0D2EFED70C2EFCD70B2EFAD7A0
:0C0EE80000000001A76BA86B3AD7FFD7F1
:100F2C0010EE15F0370E006E010E016EF40EF66E1B
:0E0F3C000E0EF76E000EF86E78EC05F0120047
:010EF40000FD
:080EF5004D6F646F205258009C
:0A0EFD00496E696369616E646F005D
:010F070000E9
:0C0F08002020202020202020202020007D
:0C0F14006C6F7720626174746572790064
:010F200000D0
:010F210000CF
:010F220000CE
:080F23004D6F646F205458006B
:020000040030CA
:0D000100021F1EFF8381FF0FC00FE00F40A4
:00000001FF
