:1000000024EF06F00000000000EF00F00000000008
:0A0010000000000000000000F3D71C
:10001C008CC0C9FFC7B002D00000FCD7C9CF00F01C
:02002C001200C0
:10002E008CC0C9FFC7B002D00000FCD7C9CF00F00A
:02003E001200AE
:100040000001896B8B9088C000F0003600907E0E16
:10005000001600C088F000C08CF0E0DF89C08CF092
:06006000E6DF8B801200B8
:100066008B9088C000F0003600907F0E001600804E
:1000760000C088F000C08CF0CEDF89C08CF0CBDFEA
:040086008B80120059
:10008A0000018B6B8B90030E026E88C000F089C052
:10009A0001F0025007E001320032019E01BC018EDC
:1000AA00FF0FF8D77F0E00148C6F8C8F050E006E31
:1000BA0088C08BF0005004E08B378B91FF0FFBD781
:1000CA00E00E8B178B89A5DF8BC08CF0A2DF8AC06C
:0800DA008CF09FDF8B80120007
:1000E200020E0001886F020E896F800E8A6FCCDFCC
:0200F2001200FA
:1000F4000001876B360E886FA1DF00C087F0008493
:1001040000C087F0360E0001886F00C089F0A9DFB7
:10011400000E00018715006E00C087F0360E886F50
:1001240000C089F09EDF030E0C6E970E0D6E0D2E2F
:0C013400FED70C2EFCD7000000001200CB
:100140000F0E0C6E470E0D6E0D2EFED70C2EFCD72B
:0601500000000000120097
:0601560000000000120091
:0A015C00210E0D6E0D2EFED71200CD
:10016600800E1A0A006E800E00018619005C08E3F4
:10017600800E8619006E800E0B0A005C01E302D029
:100186000B0E866F8FD0000E886F020E896F020EDF
:100196008A6F78DFBFD0000E0001886F020E896F6C
:1001A600120E8A6F6FDFB6D0000E0001886F020E46
:1001B600896F220E8A6F66DFADD0000E0001886F50
:1001C600020E896F320E8A6F5DDFA4D0000E000129
:1001D600886F020E896F420E8A6F54DF9BD0000E25
:1001E6000001886F020E896F520E8A6F4BDF92D024
:1001F600000E0001886F020E896F620E8A6F42DF61
:1002060089D0000E0001886F020E896F720E8A6F08
:1002160039DF80D0000E0001886F020E896F820ED2
:100226008A6F30DF77D0000E0001886F020E896F6B
:10023600920E8A6F27DF6ED0000E0001886F020EC5
:10024600896FA20E8A6F1EDF65D0000E0001886FCF
:10025600020E896FB20E8A6F15DF5CD0000E0001A8
:10026600886F020E896FC20E8A6F0CDF53D0000EA4
:100276000001886F020E896FD20E8A6F03DF4AD0A3
:10028600000E0001886F020E896FE20E8A6FFADE99
:1002960041D0000E0001886F020E896FF20E8A6F40
:1002A600F1DE38D0000186510B0AD8B46CD78651DE
:1002B6000C0AD8B470D786510D0AD8B475D78651B2
:1002C6000E0AD8B47AD786510F0AD8B47FD786518A
:1002D600100AD8B484D78651110AD8B489D7865162
:1002E600120A8FE08651130A95E08651140A9BE0A4
:1002F6008651150AA1E08651160AA7E08651170A0B
:10030600ADE08651180AB3E08651190AB9E0865164
:080316001A0ABFE0ECDE120040
:10031E00000186BF02D0839E01D0838E86BD02D09F
:10032E00839C01D0838C86BB02D0839A01D0838AB2
:10033E0086B902D0839801D083885FB002D08484BE
:10034E0001D08494848200DF849286B702D0839E8B
:10035E0001D0838E86B502D0839C01D0838C86B368
:10036E0002D0839A01D0838A86B102D0839801D0BD
:10037E0083885FB002D0848401D084948482E4DECA
:0E038E0084925FA002D0D5DE01D0E1DE120025
:0C039C00320E0001886F896B60DE1200D9
:1003A800180E0001886F980E896F59DE2E0E000115
:1003B800886F950E896F53DE010E0001886F020E5B
:1003C800896F010E8A6F5DDE88DE060E0001886F78
:1003D800020E896F900E8A6F54DE070E0001886F37
:1003E800020E896F800E8A6F4CDE080E0001886F3E
:1003F800020E896F100E8A6F44DE200E0001886F8E
:0C040800020E896F210E8A6F3CDE12008C
:100414004ED03A0E0001886F11DE800E00100001EC
:10042400896FDF0E89173A0E886F1BDE3F0E0001BD
:10043400886F600E896F15DE44D03A0E0001886F14
:10044400FDDD400E00100001896F7F0E89173A0E02
:10045400886F07DE3A0E0001886FF0DD380E001059
:100464000001896FFB0E89173A0E886FFADD29D0D7
:100474003A0E0001886FE2DDC00E00100001896FA2
:100484003A0E886FEEDD3A0E0001886FD7DD380E24
:1004940000100001896FFB0E89173A0E886FE1DDA9
:1004A4003F0E0001886F600E896FDBDD0AD000010A
:1004B4008651010AAEE08651020ABFE08651030A62
:0404C400D7E012006B
:1004C80013D03E0E0001886FB7DD800E00100001CA
:1004D800896F3E0E886FC3DD0ED03E0E0001886F17
:1004E800400E896FBCDD07D000018651010AE9E0A2
:0804F8008651020AF2E0120035
:100500002E0E576E000E586E8C0E596E000E5A6EDF
:100510001C0E5B6E000E5C6E8C0E5D6E000E5E6ED1
:10052000949A94969488C66A00018251C6128451A6
:10053000C6128351C712845305E08551000A01E1B8
:0E054000C78C03D0855301E0C78CC68A120019
:0C054E005F9082C086F0E4DE5F80120047
:10055A000001886B70DD080E00100001896F886B3E
:10056A007DDD110E0001886F66DDDF0E00140001CB
:10057A00896F110E886F72DD100E0001886FFF0EF1
:06058A00896F6CDD120018
:10059000000E0001825D04E382511F0801E302D0D6
:1005A0001F0E826F82511F08006E00C082F01F0E66
:1005B0000014026E02C000F0003600900036009079
:1005C00000360090F80E001600C082F0030E886F0F
:0C05D000020E896F00C08AF058DD120096
:1005DC00010E0001886F82C0E9FF83C0EAFFEECFF5
:1005EC0089F03BDD020E0001886F010E8225E96E59
:0E05FC00000E8321EA6EEECF89F02FDD120093
:10060A00CEDE010E0001866F00DF020E0001866F4A
:10061A0056DFBFDE0B0E0001866FA0DD66DD12001D
:0E062A002A0E0001886F070E896F18DD12007E
:100638008B940D0E0001886FFFDC600E0010000126
:10064800896F0D0E886F0BDD220E0001886FF4DCB8
:10065800800E00100001896F220E886F00DD1200E5
:100668000001846B846B800E8419006E800E080A6A
:10067800005C11E28451050F886F84518225E96E70
:10068800000E84BFFF0E8321EA6EEECF89F0E7DC0F
:080698000001842BE8D71200D9
:1006A000030E0001886F82C0E9FF83C0EAFFEECF2E
:1006B00089F0D9DC040E0001886F010E8225E96EF5
:0E06C000000E8321EA6EEECF89F0CDDC120031
:1006CE0033D00D0E0001886FB4DC000E0014000153
:1006DE00896F0D0E886FC0DC34D00D0E0001886F4F
:1006EE00A8DC000E00140001896F89870D0E886F3B
:1006FE00B3DC27D00D0E0001886F9BDC000E0014BA
:10070E000001896F89850D0E886FA6DC1AD00D0E3B
:10071E000001886F8EDC000E00140001896F898342
:10072E000D0E886F99DC0DD000018251010AC9E0CF
:10073E008251020AD2E08251030ADCE08251040A9D
:04074E00E6E01200CF
:1007520020D00001886B73DC000E00140001896F49
:10076200886B80DC20D00001886B69DC000E0014ED
:100772000001896F8983886B75DC15D00001886B55
:100782005EDC000E00140001896F8981886B6ADCCF
:100792000AD000018251010ADCE08251020AE3E040
:0807A2008251030AEBE0120092
:1007AA008B840D0E0C6EFB0E0D6E0D2EFED70C2ECD
:0807BA00FCD700000000120052
:1007C2008B920D0E0C6EFB0E0D6E0D2EFED70C2EA7
:1007D200FCD7000000008B820D0E0C6EFB0E0D6E1E
:0E07E2000D2EFED70C2EFCD7000000001200DA
:1007F0000001846B856B8B90030E026E82C000F04B
:1008000083C001F0025007E001320032019E01BCBA
:10081000018EFF0FF8D77F0E00148C6F8C8F050EA2
:10082000006E82C084F0005004E084378491FF0F92
:10083000FBD7E00E84170EEC00F084C08CF00EECB9
:0E08400000F085C08CF017EC00F08B801200E9
:10084E00969296949598959A959C959E849284945A
:10085E00839E839C839A83986CDC6BDC6ADC838A30
:10086E008388848271DC849264DC84826DDC849261
:10087E0060DC848269DC84925CDC8398848264DC34
:10088E00849257DC848260DC8492839A838E848285
:10089E005BDC84924EDC839E8388848255DC84925A
:1008AE008398848251DC849244DC84824DDC849271
:1008BE008388848249DC84923CDC8398848244DC85
:1008CE008492838E838C838A838884823DDC849297
:0608DE0030DC5F80120017
:1008E4007D6A566A506A230E366E396A000E376E78
:1008F400030E386E326A336A7D6A800E7D18006E8C
:10090400800E020A005C32E2340EE16E000EE26EEA
:100914007D50E126000E7DBEFF0EE222010EE66E42
:10092400770EE16E000EE26E7D50E126000E7DBE74
:10093400FF0EE222020EE66E790EE16E000EE26E0A
:100944007D50E126000E7DBEFF0EE222030EE66E10
:10095400750EE16E000EE26E7D50E126000E7DBE46
:10096400FF0EE222030EE66E7D2AC7D77D6A800E53
:100974007D18006E800E080A005C1AE2650EE16EB6
:10098400000EE26E7D50E126000E7DBEFF0EE222D7
:10099400010EE66E6D0EE16E000EE26E7D50E126F4
:1009A400000E7DBEFF0EE222020EE66E7D2ADFD728
:1009B4000F0EC16EF29E926A936A946A956A94903D
:1009C4009492948C9494938093849388938E93922A
:1009D4009396606A616A626A636A646A836A8C6A0B
:1009E400270E0C6EF50E0D6E0D2EFED70C2EFCD7B9
:1009F4002CDF010E0001866F90DC0C0E866F8DDCFF
:100A0400826B836B846B010E856F78DDD8DE0BDE21
:100A14007AEC00F00FDE650E0001826F000E836F2A
:100A240021DE340E826F000E836F38DE790E0001F2
:100A3400826F000E836FD0DDE6DD8DDD1F0E0001B9
:100A4400826FA4DD010E0001826F3FDE010E000102
:080A5400826F7DDEA8DE1200B6
:100A5C007D6A7E6A7F6A7F6A050E7F5C0AE2000E01
:100A6C0082BC010E7D6E7D50010A01E17E2A7F2A37
:100A7C00F3D77E50020803E2010E006E1200006AEA
:020A8C00120056
:100A8E000FD0800E7D6E19D0C00E7D6E16D0940ED6
:100A9E007D6E13D0D40E7D6E10D0800E7D6E0DD077
:100AAE007D50010AEEE07D50020AEEE07D50030A11
:100ABE00EEE07D50040AEEE0F0D77E04006E7D502D
:100ACE00002600C07DF000C086F022DC5F90816BB6
:100ADE0081517F24E96E000E8021EA6EEE520BE00A
:100AEE0081517F24E96E000E8021EA6EEECF82F0F6
:0A0AFE0027DD812BEDD75F80120089
:100B08007D6A7E6A390E0001886F20EC00F0040EC1
:100B180000100001896F390E886F33EC00F07D6A90
:100B28007E6A800E7E18006E800E005C02E1800EE8
:100B38007D5C33E2800E7E18006E800E005C02E160
:100B4800150E7D5C14E23A0E7D247F6E000E7E2029
:100B58000001806F7D503724826F7E503820836F6C
:100B680043DE7FC0E1FF80C0E2FF00C0E6FF800EE9
:100B78007E18006E800E005C02E1150E7D5C0AE3B3
:100B88007D5037240001826F7E503820836F2CDE21
:100B980000C039F07D4A7E2AC4D746C051F047C00C
:100BA80052F048C053F049C054F04AC055F04DC007
:100BB80056F04EC050F0390E0001886F20EC00F05E
:100BC800000E00140001896F390E886F33EC00F0B5
:020BD800120009
:100BDA000FD0800E7D6E19D0C00E7D6E16D0940E89
:100BEA007D6E13D0D40E7D6E10D0800E7D6E0DD02A
:100BFA007D50010AEEE07D50020AEEE07D50030AC4
:100C0A00EEE07D50040AEEE0F0D77E04006E7D50DF
:100C1A00002600C07DF05F8000C086F08FEC01F0F6
:0E0C2A005F907FC086F08FEC01F05F801200BB
:100C38000900F5CFE6FF0006FBE10106F9E1120025
:100C4800B0EC06F07B6A7C6A49DE000E7C1802E193
:100C5800000E7B18D8A46FD0FDDE0050000AD8A47F
:100C68006AD0310E0001886F20EC00F000C04FF010
:100C780047DF51C018F052C019F053C017F054C0E4
:100C880015F055C016F0010E7D6E010E7E6E51C036
:100C98007FF09FDF010E7D6E020E7E6E19C07FF021
:100CA80098DF1750690A04E017506F0A01E00FD067
:100CB800010E7D6E030E7E6E17C07FF08ADF010E77
:100CC8007D6E040E7E6E200E7F6E83DF0ED0010EC9
:100CD8007D6E030E7E6E2E0E7F6E7BDF010E7D6EA7
:100CE800040E7E6E17C07FF074DF1650620A09E1A9
:100CF800020E7D6E7E6A1A0E7F6E000E806FC3DE56
:100D080008D0020E7D6E7E6A260E7F6E000E806F02
:100D1800BADE1550430A08E1010E7D6E050E7E6E9F
:100D2800430E7F6E56DF07D0010E7D6E050E7E6E78
:0A0D3800200E7F6E4EDF89D7FFD733
:100D600010EE15F01D0E006E010E016E420EF66EB5
:0E0D70000D0EF76E000EF86E1CEC06F0120071
:010D420000B0
:010D430000AF
:010D440000AE
:010D450000AD
:010D460000AC
:0C0D470020202020202020202020200040
:0C0D53006C6F7720626174746572790027
:020000040030CA
:0D000100021F1EFF8381FF0FC00FE00F40A4
:00000001FF
