:10000000A4EF06F00000000000EF00F00000000088
:0A0010000000000000000000F3D71C
:10001C00B0C0C9FFC7B002D00000FCD7C9CF00F0F8
:02002C001200C0
:10002E00B0C0C9FFC7B002D00000FCD7C9CF00F0E6
:02003E001200AE
:100040008B90ACC000F0003600907F0E0016008050
:1000500000C0ACF000C0B0F0EADFADC0B0F0E7DF48
:040060008B8012007F
:100064000001AD6B8B90ACC000F0003600907E0EAA
:10007400001600C0ACF000C0B0F0D7DFADC0B0F0E7
:06008400CBDF8B801200AF
:10008A000001AF6B8B90030E026EACC000F0ADC0E6
:10009A0001F0025007E001320032019E01BC018EDC
:1000AA00FF0FF8D77F0E0014B06FB08F050E006EE9
:1000BA00ACC0AFF0005004E0AF37AF91FF0FFBD7F1
:1000CA00E00EAF17AF89AEDFAFC0B0F0ABDFAEC0A6
:0800DA00B0F0A8DF8B801200DA
:1000E2000F0E0C6E470E0D6E0D2EFED70C2EFCD78A
:0600F200000000001200F6
:0A00F800210E0D6E0D2EFED7120032
:100102000001AB6B360EAC6FACDF00C0ABF000840D
:1001120000C0ABF0360E0001AC6F00C0ADF08FDF57
:10012200000E0001AB15006E00C0ABF0360EAC6FD6
:1001320000C0ADF084DF030E0C6E970E0D6E0D2E17
:0C014200FED70C2EFCD7000000001200BD
:06014E0000000000120099
:10015400020E0001AC6F020EAD6F800EAE6F93DF26
:02016400120087
:10016600800E1A0A006E800E0001AA19005C08E3D0
:10017600800EAA19006E800E0B0A005C01E302D005
:100186000B0EAA6F8FD0000EAC6F020EAD6F020E73
:10019600AE6F78DFBFD0000E0001AC6F020EAD6F00
:1001A600120EAE6F6FDFB6D0000E0001AC6F020EFE
:1001B600AD6F220EAE6F66DFADD0000E0001AC6FE4
:1001C600020EAD6F320EAE6F5DDFA4D0000E0001E1
:1001D600AC6F020EAD6F420EAE6F54DF9BD0000EB9
:1001E6000001AC6F020EAD6F520EAE6F4BDF92D0B8
:1001F600000E0001AC6F020EAD6F620EAE6F42DFF5
:1002060089D0000E0001AC6F020EAD6F720EAE6F9C
:1002160039DF80D0000E0001AC6F020EAD6F820E8A
:10022600AE6F30DF77D0000E0001AC6F020EAD6FFF
:10023600920EAE6F27DF6ED0000E0001AC6F020E7D
:10024600AD6FA20EAE6F1EDF65D0000E0001AC6F63
:10025600020EAD6FB20EAE6F15DF5CD0000E000160
:10026600AC6F020EAD6FC20EAE6F0CDF53D0000E38
:100276000001AC6F020EAD6FD20EAE6F03DF4AD037
:10028600000E0001AC6F020EAD6FE20EAE6FFADE2D
:1002960041D0000E0001AC6F020EAD6FF20EAE6FD4
:1002A600F1DE38D00001AA510B0AD8B46CD7AA5196
:1002B6000C0AD8B470D7AA510D0AD8B475D7AA516A
:1002C6000E0AD8B47AD7AA510F0AD8B47FD7AA5142
:1002D600100AD8B484D7AA51110AD8B489D7AA511A
:1002E600120A8FE0AA51130A95E0AA51140A9BE05C
:1002F600AA51150AA1E0AA51160AA7E0AA51170A9F
:10030600ADE0AA51180AB3E0AA51190AB9E0AA51F8
:080316001A0ABFE0F3DE120039
:10031E00180E0001AC6F980EAD6F8BDE2E0E000125
:10032E00AC6F950EAD6F85DE010E0001AC6F020E47
:10033E00AD6F010EAE6FA2DE06DF060E0001AC6FD2
:10034E00020EAD6F900EAE6F99DE070E0001AC6F10
:10035E00020EAD6F800EAE6F91DE080E0001AC6F17
:10036E00020EAD6F100EAE6F89DE200E0001AC6F67
:0C037E00020EAD6F210EAE6F81DE12008A
:0C038A00320E0001AC6FAD6B56DE1200AD
:1003960013D03E0E0001AC6F62DE800E001000012D
:1003A600AD6F3E0EAC6F49DE0ED03E0E0001AC6F57
:1003B600400EAD6F42DE07D00001AA51010AE9E006
:0803C600AA51020AF2E0120044
:1003CE004ED03A0E0001AC6F46DE800E00100001DA
:1003DE00AD6FDF0EAD173A0EAC6F2BDE3F0E000188
:1003EE00AC6F600EAD6F25DE44D03A0E0001AC6FDF
:1003FE0032DE400E00100001AD6F7F0EAD173A0ECB
:10040E00AC6F17DE3A0E0001AC6F25DE380E001011
:10041E000001AD6FFB0EAD173A0EAC6F0ADE29D0A0
:10042E003A0E0001AC6F17DEC00E00100001AD6F6A
:10043E003A0EAC6FFEDD3A0E0001AC6F0CDE380EDC
:10044E0000100001AD6FFB0EAD173A0EAC6FF1DD73
:10045E003F0E0001AC6F600EAD6FEBDD0AD00001F8
:10046E00AA51010AAEE0AA51020ABFE0AA51030A3C
:04047E00D7E01200B1
:100482000001AABF02D0839E01D0838EAABD02D0F2
:10049200839C01D0838CAABB02D0839A01D0838A29
:1004A200AAB902D0839801D083888EB102D0848405
:1004B20001D0849484824ADE8492AAB702D0839EB9
:1004C20001D0838EAAB502D0839C01D0838CAAB3BB
:1004D20002D0839A01D0838AAAB102D0839801D034
:1004E20083888EB102D0848401D0849484822EDEEB
:0E04F20084928EA102D0F4DD01D0FDDD120057
:100500001B0E0001AC6FAEDD040E00100001AD6FDC
:080510001B0EAC6F95DD12001B
:100518001B0E0001AC6FA2DD010E00100001AD6FD3
:080528001B0EAC6F89DD12000F
:0E0530002A0E0001AC6F070EAD6F82DD1200C7
:10053E00000E0001A65D04E3A6511F0801E302D0E0
:10054E001F0EA66FA6511F08006E00C0A6F01F0E4C
:10055E000014026E02C000F00036009000360090CB
:10056E0000360090F80E001600C0A6F0030EAC6F19
:0C057E00020EAD6F00C0AEF081DD120077
:10058A000001AC6B6ADD080E00100001AD6FAC6BA8
:10059A0052DD110E0001AC6F60DDDF0E00140001A8
:1005AA00AD6F110EAC6F47DD100E0001AC6FFF0E80
:0605BA00AD6F41DD1200EF
:1005C00020D00001AC6B4EDD000E00140001AD6FB9
:1005D000AC6B36DD20D00001AC6B44DD000E0014A6
:1005E0000001AD6FAD83AC6B2BDD15D00001AC6BA2
:1005F00039DD000E00140001AD6FAD81AC6B20DD64
:100600000AD00001A651010ADCE0A651020AE3E08B
:08061000A651030AEBE0120001
:10061800969296949598959A959C959E8492849492
:10062800839E839C839A839858DD57DD56DD838AA1
:100638008388848288DD849250DD848284DD84927C
:100648004CDD848280DD849248DD839884827BDD62
:10065800849243DD848277DD8492839A838E8482B8
:1006680072DD84923ADD839E838884826CDD849275
:100678008398848268DD849230DD848264DD84928C
:100688008388848260DD849228DD839884825BDDA0
:100698008492838E838C838A8388848254DD8492B7
:0806A8001CDD00018E8112002F
:1006B0000001A86BA96B8B90030E026EA6C000F020
:1006C000A7C001F0025007E001320032019E01BCD8
:1006D000018EFF0FF8D77F0E0014B06FB08F050E9C
:1006E000006EA6C0A8F0005004E0A837A891FF0F44
:1006F000FBD7E00EA8179BDCA8C0B0F098DCA9C01F
:08070000B0F08CDC8B801200CC
:10070800030E0001AC6FA6C0E9FFA7C0EAFFEECF59
:10071800ADF092DC040E0001AC6F010EA625E96E67
:0E072800000EA721EA6EEECFADF086DC1200C7
:100736001C0E0001866F000E876FB00E886F000ECC
:10074600896F2E0E8A6F000E8B6FB00E8C6F000EA7
:100756008D6F949A94969488C66AA651C612A8512B
:10076600C612A751C712A85305E0A951000A01E114
:0E077600C78C03D0A95301E0C78CC68A1200BD
:100784008B920D0E0C6EFB0E0D6E0D2EFED70C2EE5
:10079400FCD7000000008B820D0E0C6EFB0E0D6E5C
:0E07A4000D2EFED70C2EFCD700000000120018
:1007B2000001A86BA86B800EA819006E800E080AB3
:1007C200005C11E2A851050FAC6FA851A625E96E95
:1007D200000EA8BFFF0EA721EA6EEECFADF02FDC10
:0807E2000001A82BE8D712006A
:1007EA00010E0001AC6FA6C0E9FFA7C0EAFFEECF79
:1007FA00ADF021DC020E0001AC6F010EA625E96EF8
:0E080A00000EA721EA6EEECFADF015DC120055
:100818008B840D0E0C6EFB0E0D6E0D2EFED70C2E5E
:08082800FCD7000000001200E3
:1008300039D00D0E0001AC6F15DC000E0014000164
:10084000AD6F0D0EAC6F20EC00F039D00D0E000135
:10085000AC6F08DC000E00140001AD6FAD870D0E0B
:10086000AC6F20EC00F02BD00D0E0001AC6F32EC21
:1008700000F0000E00140001AD6FAD850D0EAC6FE1
:1008800020EC00F01CD00D0E0001AC6F32EC00F03B
:10089000000E00140001AD6FAD830D0EAC6F20ECA7
:1008A00000F00DD00001A651010AC3E0A651020AD2
:1008B000CDE0A651030AD8E0A651040AE4E01200F4
:0E08C00000018E91A6C0AAF0DCDD8E81120030
:1008CE001B0E0001AC6F32EC00F0000E00140001A4
:0C08DE00AD6F1B0EAC6F20EC00F01200A0
:1008EA0019DD010E0001AA6F6DDD020E0001AA6F6B
:1008FA004DDD46DD0B0E0001AA6F30DC81EC00F005
:02090A001200D9
:10090C008B940D0E0001AC6F32EC00F0600E0010F9
:10091C000001AD6F0D0EAC6F20EC00F0220E00014B
:10092C00AC6F32EC00F0800E00100001AD6F220EA7
:08093C00AC6F20EC00F012008A
:100944000001A16B846B856B230E836F546A000EC8
:100954005A6E030E5B6E496A4A6AA16B800EA11936
:10096400006E800E020A005C32E24B0EE16E000E55
:10097400E26EA151E126000EA1BFFF0EE222010E9C
:10098400E66E4D0EE16E000EE26EA151E126000E00
:10099400A1BFFF0EE222020EE66E4F0EE16E000EC4
:1009A400E26EA151E126000EA1BFFF0EE222030E6A
:1009B400E66E520EE16E000EE26EA151E126000ECB
:1009C400A1BFFF0EE222030EE66EA12BC7D7A16BD7
:1009D400800EA119006E800E080A005C1AE2970EC0
:1009E400E16E000EE26EA151E126000EA1BFFF0EE2
:1009F400E222010EE66E8F0EE16E000EE26EA15150
:100A0400E126000EA1BFFF0EE222020EE66EA12B2C
:100A1400DFD70F0EC16EF29E926A936A946A956A4A
:100A240094909492948C9494938093849388938ECA
:100A340093929396446A456A466A476A486A836A07
:100A44008C6A270E0C6EF50E0D6E0D2EFED70C2E35
:100A5400FCD7E0DD010EAA6F12DD0C0EAA6F0FDDCC
:100A6400A66BA76BA86B010EA96F63DE89DE5EDD42
:100A740081EC00F049DF970E0001A66F000EA76F0E
:100A840096DE4B0EA66F000EA76F3CDE4F0E0001E4
:100A9400A66F000EA76FA7DE26DF75DD1F0E00010F
:100AA400A66F4BDD010E0001A66FC0DE010E000132
:080AB400A66F84DDAFDE120025
:100ABC000001A16BA26BA36BA36B050EA35D0AE2F5
:100ACC00000E82BC010EA16FA151010A01E1A22B03
:100ADC00A32BF3D7A251020803E2010E006E120001
:040AEC00006A12008A
:100AF0000900F5CFE6FF0006FBE10106F9E112006F
:100B00000001A16BA26B390EAC6F32EC00F0040E49
:100B100000100001AD6F390EAC6F20EC00F0000149
:100B2000A16BA26B800EA219006E800E005C02E128
:100B3000800EA15D33E2800EA219006E800E005C73
:100B400002E1150EA15D13E25C0EA125A36F000E5C
:100B5000A221A46FA1515A24A66FA2515B20A76FB6
:100B6000A7DDA3C0E1FFA4C0E2FF00C0E6FF800E46
:100B70000001A219006E800E005C02E1150EA15D5D
:100B800009E3A1515A24A66FA2515B20A76F90DD03
:100B900000C054F00001A14BA22BC4D768C055F08F
:100BA00069C056F06AC057F06BC058F06CC059F07D
:100BB0006FC084F070C085F0390EAC6F32EC00F07D
:100BC000000E00140001AD6F390EAC6F20EC00F088
:020BD000120011
:100BD2000001A16BA26B0B0E716E100E726E010EF4
:100BE200736E880E746E83C075F053C076F052C077
:100BF20077F04DC078F04EC079F04FC07AF050C017
:100C02007BF04BC07CF04CC07DF044C07EF045C010
:100C12007FF046C080F047C081F048C082F0A16BEF
:100C2200A26B800EA219006E800E005C02E1120E11
:100C3200A15D14E2A1514924AC6FA2514A20AD6FCB
:100C4200710EA125E96E000EA221EA6EEECFAEF082
:100C520045EC00F00001A14BA22BE3D750DC36DEBD
:040C62005ADC120046
:100C660010D0800E0001A16F1AD0C00EA16F17D050
:100C7600940EA16F14D0D40EA16F11D0800EA16F67
:100C86000ED00001A151010AECE0A151020AEDE0EB
:100C9600A151030AEDE0A151040AEDE0EFD7A20548
:100CA600006EA151002600C0A1F000C0AAF041ECE0
:100CB60002F08E91A56BA551A325E96E000EA42125
:100CC600EA6EEE520BE0A551A325E96E000EA421B3
:100CD600EA6EEECFA6F0F1DDA52BEDD78E811200E0
:100CE60010D0800E0001A16F1AD0C00EA16F17D0D0
:100CF600940EA16F14D0D40EA16F11D0800EA16FE7
:100D06000ED00001A151010AECE0A151020AEDE06A
:100D1600A151030AEDE0A151040AEDE0EFD7A205C7
:100D2600006EA151002600C0A1F08E8100C0AAF07D
:100D360041EC02F08E91A3C0AAF041EC02F08E8144
:020D4600120099
:100D4800A1EC07F000019F6BA06BF8DD020E00011B
:100D5800A16FA26B160EA36F000EA46F80DF0001B7
:100D6800000EA01902E1000E9F19D8A480D0A2DEBF
:100D78000050000AD8A47BD0310EAC6F32EC00F0E2
:100D880000C051F0B9DE55C015F056C020F057C06C
:100D98003AF058C03BF059C039F0010E0001A16F7C
:100DA800010EA26F55C0A3F09ADF010EA16F020ECB
:100DB800A26F20C0A3F093DF3A50690A04E03A50CA
:100DC8006F0A01E00FD0010EA16F030EA26F3AC0A7
:100DD800A3F085DF010EA16F040EA26F200EA36F92
:100DE8007EDF0ED0010EA16F030EA26F2E0EA36F31
:100DF80076DF010EA16F040EA26F3AC0A3F06FDF79
:100E08003950620A09E1020EA16FA26B210EA36F8D
:100E1800000EA46F24DF08D0020EA16FA26B2D0E66
:100E2800A36F000EA46F1BDF3B50430A08E1010EBD
:100E3800A16F050EA26F430EA36F51DF07D0010EFD
:100E4800A16F050EA26F200EA36F49DF020E0B6E75
:100E5800040E0C6EBA0E0D6E0D2EFED70C2EFCD79E
:100E68000B2EFAD70000010E9F6F000EA06F000E28
:100E7800A01902E1010E9F1946E1020EA16FA26BB3
:100E88003C0EA36F000EA46FEADE020E0B6E040E7A
:100E98000C6EBA0E0D6E0D2EFED70C2EFCD70B2E37
:100EA800FAD70000010E446E020E456E030E466E20
:100EB800040E476E050E486E88DE240E0001AC6FE6
:100EC80032EC00F000C051F0010E0014016E01C0B8
:100ED80051F0000E01BEFF0E006E000E001802E178
:100EE800000E011810E1020E0B6E040E0C6EBA0E05
:100EF8000D6E0D2EFED70C2EFCD70B2EFAD7000048
:0A0F080000019F6BA06B2BD7FFD7F1
:100F420010EE15F02F0E006E010E016E120EF66EEF
:0E0F52000F0EF76E000EF86E78EC05F0120030
:010F120000DE
:0A0F1300496E696369616E646F0046
:010F1D0000D3
:0C0F1E0020202020202020202020200067
:0C0F2A006C6F772062617474657279004E
:010F360000BA
:010F370000B9
:010F380000B8
:080F39004D6F646F2054580055
:020000040030CA
:0D000100021F1EFF8381FF0FC00FE00F40A4
:00000001FF
