:100000001FEF06F00000000000EF00F0000000000D
:0A0010000000000000000000F3D71C
:10001C008BC0C9FFC7B002D00000FCD7C9CF00F01D
:02002C001200C0
:10002E008BC0C9FFC7B002D00000FCD7C9CF00F00B
:02003E001200AE
:1000400000018A6B8B90030E026E87C000F088C09F
:1000500001F0025007E001320032019E01BC018E26
:10006000FF0FF8D77F0E00148B6F8B8F050E006E7D
:1000700087C08AF0005004E08A378A91FF0FFBD7CF
:10008000E00E8A178A89CADF8AC08BF0C7DF89C071
:080090008BF0C4DF8B8012002D
:100098000001886B8B9087C000F0003600907E0EC0
:1000A800001600C087F000C08BF0B4DF88C08BF06A
:0600B800BADF8B8012008C
:1000BE008B9087C000F0003600907F0E00160080F7
:1000CE0000C087F000C08BF0A2DF88C08BF09FDFEE
:0400DE008B80120001
:0A00E200210E0D6E0D2EFED7120048
:1000EC000001866B360E876FD1DF00C086F000846E
:1000FC0000C086F0360E0001876F00C088F0D9DF93
:10010C00000E00018615006E00C086F0360E876F5B
:10011C0000C088F0CEDF030E0C6E970E0D6E0D2E08
:0C012C00FED70C2EFCD7000000001200D3
:100138000F0E0C6E470E0D6E0D2EFED70C2EFCD733
:060148000000000012009F
:10014E00020E0001876F020E886F800E896F71DFBD
:02015E0012008D
:0601600000000000120087
:10016600800E1A0A006E800E00018519005C08E3F5
:10017600800E8519006E800E0B0A005C01E302D02A
:100186000B0E856F8FD0000E876F020E886F020EE2
:10019600896F53DFBFD0000E0001876F020E886F94
:1001A600120E896F4ADFB6D0000E0001876F020E6D
:1001B600886F220E896F41DFADD0000E0001876F78
:1001C600020E886F320E896F38DFA4D0000E000150
:1001D600876F020E886F420E896F2FDF9BD0000E4D
:1001E6000001876F020E886F520E896F26DF92D04C
:1001F600000E0001876F020E886F620E896F1DDF89
:1002060089D0000E0001876F020E886F720E896F0B
:1002160014DF80D0000E0001876F020E886F820EF9
:10022600896F0BDF77D0000E0001876F020E886F93
:10023600920E896F02DF6ED0000E0001876F020EEC
:10024600886FA20E896FF9DE65D0000E0001876FF8
:10025600020E886FB20E896FF0DE5CD0000E0001D0
:10026600876F020E886FC20E896FE7DE53D0000ECD
:100276000001876F020E886FD20E896FDEDE4AD0CC
:10028600000E0001876F020E886FE20E896FD5DEC1
:1002960041D0000E0001876F020E886FF20E896F43
:1002A600CCDE38D0000185510B0AD8B46CD7855105
:1002B6000C0AD8B470D785510D0AD8B475D78551B4
:1002C6000E0AD8B47AD785510F0AD8B47FD785518C
:1002D600100AD8B484D78551110AD8B489D7855164
:1002E600120A8FE08551130A95E08551140A9BE0A6
:1002F6008551150AA1E08551160AA7E08551170A0E
:10030600ADE08551180AB3E08551190AB9E0855167
:080316001A0ABFE0E8DE120044
:10031E004ED03A0E0001876FB8DE800E001000013D
:10032E00886FDF0E88173A0E876FC2DE3F0E000110
:10033E00876F600E886FBCDE44D03A0E0001876F67
:10034E00A4DE400E00100001886F7F0E88173A0E53
:10035E00876FAEDE3A0E0001876F97DE380E001003
:10036E000001886FFB0E88173A0E876FA1DE29D029
:10037E003A0E0001876F89DEC00E00100001886FF3
:10038E003A0E876F95DE3A0E0001876F7EDE380ECD
:10039E0000100001886FFB0E88173A0E876F88DEFB
:1003AE003F0E0001876F600E886F82DE0AD000015B
:1003BE008551010AAEE08551020ABFE08551030A5C
:0403CE00D7E0120062
:1003D200180E0001876F980E886F70DE2E0E0001D6
:1003E200876F950E886F6ADE010E0001876F020E1D
:1003F200886F010E896F23DEA9DE060E0001876F6A
:10040200020E886F900E896F1ADE070E0001876F49
:10041200020E886F800E896F12DE080E0001876F50
:10042200020E886F100E896F0ADE200E0001876FA0
:0C043200020E886F210E896F02DE12009E
:0C043E00320E0001876F886B3BDE12005D
:10044A0013D03E0E0001876F22DE800E00100001DD
:10045A00886F3E0E876F2EDE0ED03E0E0001876F2C
:10046A00400E886F27DE07D000018551010AE9E0B6
:08047A008551020AF2E01200B4
:10048200000185BF02D0839E01D0838E85BD02D03C
:10049200839C01D0838C85BB02D0839A01D0838A4E
:1004A20085B902D0839801D083885FB002D084845A
:1004B20001D08494848253DE849285B702D0839ED5
:1004C20001D0838E85B502D0839C01D0838C85B305
:1004D20002D0839A01D0838A85B102D0839801D059
:1004E20083885FB002D0848401D08494848237DE12
:0E04F20084925FA002D01FDE01D0F2DD120066
:0E0500002A0E0001876F070E886FD9DD1200EA
:10050E008B840D0E0C6EFB0E0D6E0D2EFED70C2E6B
:08051E00FCD7000000001200F0
:1005260020D00001876BB5DD000E00140001886F36
:10053600876BC2DD1FD00001876BABDD000E001498
:100546000001886F8883876BB7DD14D00001876B45
:10055600A0DD000E00140001886F8881876BACDD7A
:1005660009D07F50010ADDE07F50020AE4E07F50A7
:06057600030AECE0120094
:0C057C005F907FC085F07FDF5F80120081
:100588008B920D0E0C6EFB0E0D6E0D2EFED70C2EE3
:10059800FCD7000000008B820D0E0C6EFB0E0D6E5A
:0E05A8000D2EFED70C2EFCD700000000120016
:1005B6007F6A7F6A800E7F18006E800E080A005CD4
:1005C60011E27F50050F0001876F7F508125E96E8C
:1005D600000E7FBEFF0E8221EA6EEECF88F06CDD44
:0605E6007F2AE8D7120095
:1005EC00030E0001876F81C0E9FF82C0EAFFEECFE6
:1005FC0088F05FDD040E0001876F010E8125E96E26
:0E060C00000E8221EA6EEECF88F053DD120060
:10061A00969296949598959A959C959E8492849490
:10062A00839E839C839A839882DD81DD80DD838A21
:10063A008388848290DD84927ADD84828CDD849240
:10064A0076DD848288DD849272DD8398848283DDFC
:10065A0084926DDD84827FDD8492839A838E848284
:10066A007ADD849264DD839E8388848274DD849239
:10067A008398848270DD84925ADD84826CDD849250
:10068A008388848268DD849252DD8398848263DD64
:10069A008492838E838C838A838884825CDD8492AD
:0606AA0046DD5F80120036
:1006B0002E0E5B6E000E5C6E8B0E5D6E000E5E6E1F
:1006C0001C0E576E000E586E8B0E596E000E5A6E31
:1006D000949A00018151040A02E1948601D0949613
:1006E0009488C66A8151C6128351C6128251C712BC
:1006F000835305E08451000AD8B4C78C03D08453D7
:08070000D8A4C78CC68A1200C0
:100708008B940D0E0001876FC3DC600E0010000192
:10071800886F0D0E876FCFDC220E0001876FB8DC63
:10072800800E00100001886F220E876FC4DC120053
:1007380033D00D0E0001876FABDC000E00140001F2
:10074800886F0D0E876FB7DC33D00D0E0001876FF1
:100758009FDC000E00140001886F88870D0E876FDC
:10076800AADC26D00D0E0001876F92DC000E001463
:100778000001886F88850D0E876F9DDC19D00D0EDE
:100788000001876F85DC000E00140001886F8883E4
:100798000D0E876F90DC0CD07F50010ACAE07F50A5
:1007A800020AD3E07F50030ADDE07F50040AE7E045
:0207B80012002D
:1007BA007F6A0001806B8B90030E026E81C000F08D
:1007CA0082C001F0025007E001320032019E01BCF2
:1007DA00018EFF0FF8D77F0E00148B6F8B8F050EDB
:1007EA00006E81C080F0005004E080378091FF0FD6
:1007FA00FBD7E00E80170DDC80C08BF00ADC7FC0CF
:08080A008BF010DC8B80120062
:10081200000E7F5C04E37F501F0801E302D01F0E2D
:100822007F6E7F501F08006E00C07FF01F0E001405
:10083200026E02C000F000360090003600900036D2
:100842000090F80E001600C07FF0030E0001876FC3
:0E085200020E886F00C089F020EC00F012004A
:10086000010E0001876F81C0E9FF82C0EAFFEECF71
:1008700088F025DC020E0001876F010E8125E96EEC
:0E088000000E8221EA6EEECF88F019DC120025
:10088E00A1DD010E0001856F43DD020E0001856FB3
:10089E00D5DDCEDD0B0E0001856F5EDC20DC120097
:1008AE000001876B4CEC00F0080E00100001886F01
:1008BE00876B5FEC00F0110E0001876F4CEC00F0BF
:1008CE00DF0E00140001886F110E876F5FEC00F0D1
:1008DE00100E0001876FFF0E886F5FEC00F01200A4
:1008EE000FD0800E7A6E19D0C00E7A6E16D0940E7E
:1008FE007A6E13D0D40E7A6E10D0800E7A6E0DD022
:10090E007A50010AEEE07A50020AEEE07A50030ABB
:10091E00EEE07A50040AEEE0F0D77B04006E7A50D7
:10092E00002600C07AF000C085F0A4DD5F907E6ADC
:10093E007E507C24E96E000E7D20EA6EEE520BE0B6
:10094E007E507C24E96E000E7D20EA6EEECF7FF0A5
:0A095E000EDE7E2AEDD75F80120046
:100968000900F5CFE6FF0006FBE10106F9E11200F8
:100978007A6A496A2E6A230E316E4F6A000E476EF4
:10098800030E486E2F6A306A7A6A800E7A18006EF3
:10099800800E020A005C32E2500EE16E000EE26E3A
:1009A8007A50E126000E7ABEFF0EE222010EE66EB4
:1009B800640EE16E000EE26E7A50E126000E7ABEF9
:1009C800FF0EE222020EE66E620EE16E000EE26E8D
:1009D8007A50E126000E7ABEFF0EE222030EE66E82
:1009E800600EE16E000EE26E7A50E126000E7ABECD
:1009F800FF0EE222030EE66E7A2AC7D77A6A800EC5
:100A08007A18006E800E080A005C1AE2660EE16E23
:100A1800000EE26E7A50E126000E7ABEFF0EE22248
:100A2800010EE66E6E0EE16E000EE26E7A50E12661
:100A3800000E7ABEFF0EE222020EE66E7A2ADFD799
:100A48000F0EC16EF29E926A936A946A956A9490A8
:100A58009492948C9494526A536A546A556A566A6A
:100A6800836A8C6A270E0C6EF50E0D6E0D2EFED75E
:100A78000C2EFCD7CEDD010E0001856FFEDC0C0EBE
:100A8800856FFBDC816B826B836B010E846F0CDEE0
:100A980077DD32DD76EC00F033DE6E0E0001816F1B
:100AA800000E826F84DD640E0001816F000E826F7C
:100AB80099DD600E0001816F000E826FCDDEE3DEEE
:100AC800F2DE1F0E7F6EA1DE010E7F6E31DE010E9B
:080AD8007F6E25DD18DD120020
:100AE0007A6A7B6A7C6A7A6A050E7A5C0AE2000E90
:100AF00082BC010E7C6E7C50010AD8B47B2A7A2A13
:100B0000F3D77B50020803E2010E006E01D0006AA9
:020B10001200D1
:100B12007A6A7B6A390E0001876F4CEC00F0040E92
:100B220000100001886F390E876F5FEC00F07A6A5F
:100B32007B6A800E7B18006E800E005C02E1800EE4
:100B42007A5C33E2800E7B18006E800E005C02E15C
:100B5200150E7A5C14E2320E7A247C6E000E7B2033
:100B62007D6E7A5047240001816F7B504820826F4E
:100B720023DE7CC0E1FF7DC0E2FF00C0E6FF800E05
:100B82007B18006E800E005C02E1150E7A5C0AE3AF
:100B92007A5047240001816F7B504820826F0CDE1F
:100BA20000C04FF07A4A7B2AC4D73EC04AF03FC009
:100BB2004BF040C04CF041C04DF042C04EF045C039
:100BC20049F046C02EF0390E0001876F4CEC00F060
:100BD200000E00140001886F390E876F5FEC00F081
:020BE2001200FF
:100BE4000FD0800E7A6E19D0C00E7A6E16D0940E85
:100BF4007A6E13D0D40E7A6E10D0800E7A6E0DD029
:100C04007A50010AEEE07A50020AEEE07A50030AC2
:100C1400EEE07A50040AEEE0F0D77B04006E7A50DE
:100C2400002600C07AF05F8000C085F028DC5F9069
:0A0C34007CC085F024DC5F80120014
:100C3E00A1EC06F0766A776A786A796A96DE49DF01
:100C4E000050000AD8A468D0310E0001876F4CEC1A
:100C5E0000F000C02DF056DF4BC076F04CC077F0A0
:100C6E004DC078F04EC079F0010E7A6E010E7B6E9B
:100C7E004AC07CF0B0DF010E7A6E020E7B6E76C03B
:100C8E007CF0A9DF7750690A04E077506F0A01E023
:100C9E000FD0010E7A6E030E7B6E77C07CF09BDF59
:100CAE00010E7A6E040E7B6E200E7C6E94DF0ED0DB
:100CBE00010E7A6E030E7B6E2E0E7C6E8CDF010E95
:100CCE007A6E040E7B6E77C07CF085DF7950620AF7
:100CDE0009E1020E7A6E7B6A150E7C6E000E7D6E39
:100CEE00FFDD08D0020E7A6E7B6A210E7C6E000E3E
:100CFE007D6EF6DD7850430A08E1010E7A6E050E20
:100D0E007B6E430E7C6E67DF07D0010E7A6E050E8A
:0C0D1E007B6E200E7C6E5FDF92D7FFD74B
:100D420010EE15F0180E006E010E016E2A0EF66EF0
:0E0D52000D0EF76E000EF86EB4EC04F01200F9
:0C0D2A002020202020202020202020005D
:0C0D36006C6F7720626174746572790044
:020000040030CA
:0D000100021F1EFF8381FF0FC00FE00F40A4
:00000001FF
