:1000000020EF06F00000000000EF00F0000000000C
:0A0010000000000000000000F3D71C
:10001C00A2C0C9FFC7B002D00000FCD7C9CF00F006
:02002C001200C0
:10002E00A2C0C9FFC7B002D00000FCD7C9CF00F0F4
:02003E001200AE
:100040008B909EC000F0003600907F0E001600805E
:1000500000C09EF000C0A2F0E1DF9FC0A2F0DEDF92
:040060008B8012007F
:100064000001A16B8B90030E026E9EC000F09FC036
:1000740001F0025007E001320032019E01BC018E02
:10008400FF0FF8D77F0E0014A26FA28F050E006E2B
:100094009EC0A1F0005004E0A137A191FF0FFBD74F
:1000A400E00EA117A189B8DFA1C0A2F0B5DFA0C0FE
:0800B400A2F0B2DF8B80120004
:1000BC0000019F6B8B909EC000F0003600907E0E6E
:1000CC00001600C09EF000C0A2F0A2DF9FC0A2F0FC
:0600DC00A8DF8B8012007A
:1000E20000019D6B360E9E6FE8DF00C09DF000841C
:1000F20000C09DF0360E00019E6F00C09FF09FDF92
:10010200000E00019D15006E00C09DF0360E9E6F20
:1001120000C09FF094DF040E0C6E3D0E0D6E0D2E8E
:0C012200FED70C2EFCD7000000001200DD
:10012E00120E0C6EDA0E0D6E0D2EFED70C2EFCD7A7
:04013E0000001200AB
:06014200000000001200A5
:10014800020E00019E6F020E9F6F800EA06F86DF69
:02015800120093
:0C015A00290E0D6E0D2EFED700001200C5
:10016600800E1A0A006E800E00019C19005C08E3DE
:10017600800E9C19006E800E0B0A005C01E302D013
:100186000B0E9C6F8FD0000E9E6F020E9F6F020E9D
:10019600A06F65DFBFD0000E00019E6F020E9F6F3D
:1001A600120EA06F5CDFB6D0000E00019E6F020E2D
:1001B6009F6F220EA06F53DFADD0000E00019E6F21
:1001C600020E9F6F320EA06F4ADFA4D0000E000110
:1001D6009E6F020E9F6F420EA06F41DF9BD0000EF6
:1001E60000019E6F020E9F6F520EA06F38DF92D0F5
:1001F600000E00019E6F020E9F6F620EA06F2FDF32
:1002060089D0000E00019E6F020E9F6F720EA06FC6
:1002160026DF80D0000E00019E6F020E9F6F820EB9
:10022600A06F1DDF77D0000E00019E6F020E9F6F3C
:10023600920EA06F14DF6ED0000E00019E6F020EAC
:100246009F6FA20EA06F0BDF65D0000E00019E6FA0
:10025600020E9F6FB20EA06F02DF5CD0000E00018F
:100266009E6F020E9F6FC20EA06FF9DE53D0000E76
:1002760000019E6F020E9F6FD20EA06FF0DE4AD075
:10028600000E00019E6F020E9F6FE20EA06FE7DE6A
:1002960041D0000E00019E6F020E9F6FF20EA06FFE
:1002A600DEDE38D000019C510B0AD8B46CD79C51C5
:1002B6000C0AD8B470D79C510D0AD8B475D79C5186
:1002C6000E0AD8B47AD79C510F0AD8B47FD79C515E
:1002D600100AD8B484D79C51110AD8B489D79C5136
:1002E600120A8FE09C51130A95E09C51140A9BE078
:1002F6009C51150AA1E09C51160AA7E09C51170AC9
:10030600ADE09C51180AB3E09C51190AB9E09C5122
:080316001A0ABFE0E3DE120049
:10031E00180E00019E6F980E9F6F8BDE2E0E000141
:10032E009E6F950E9F6F85DE010E00019E6F020E71
:10033E009F6F010EA06F8FDE00DF060E00019E6F15
:10034E00020E9F6F900EA06F86DE070E00019E6F4D
:10035E00020E9F6F800EA06F7EDE080E00019E6F54
:10036E00020E9F6F100EA06F76DE200E00019E6FA4
:0C037E00020E9F6F210EA06F6EDE1200B9
:10038A0000019CBF02D0839E01D0838E9CBD02D007
:10039A00839C01D0838C9CBB02D0839A01D0838A30
:1003AA009CB902D0839801D083887DB002D084841E
:1003BA0001D084948482C0DE84929CB702D0839E4A
:1003CA0001D0838E9CB502D0839C01D0838C9CB3D0
:1003DA0002D0839A01D0838A9CB102D0839801D03B
:1003EA0083887DB002D0848401D084948482A4DE80
:0E03FA0084927DA002D096DE01D0AADE120011
:100408004ED03A0E00019E6F55DE800E001000019E
:100418009F6FDF0E9F173A0E9E6F0EDE3F0E000194
:100428009E6F600E9F6F08DE44D03A0E00019E6FEB
:1004380041DE400E001000019F6F7F0E9F173A0E9D
:100448009E6FFADD3A0E00019E6F34DE380E001002
:1004580000019F6FFB0E9F173A0E9E6FEDDD29D0AE
:100468003A0E00019E6F26DEC00E001000019F6F3D
:100478003A0E9E6FE1DD3A0E00019E6F1BDE380ECC
:10048800001000019F6FFB0E9F173A0E9E6FD4DD80
:100498003F0E00019E6F600E9F6FCEDD0AD00001F7
:1004A8009C51010AAEE09C51020ABFE09C51030A2C
:0404B800D7E0120077
:0C04BC00320E00019E6F9F6BBDDD120030
:1004C80013D03E0E00019E6FF5DD800E0010000176
:1004D8009F6F3E0E9E6FB0DD0ED03E0E00019E6FE8
:1004E800400E9F6FA9DD07D000019C51010AE9E089
:0804F8009C51020AF2E012001F
:1005000020D000019E6BDADD000E001400019F6F09
:100510009E6B96DD20D000019E6BD0DD000E001496
:1005200000019F6F9F839E6B8BDD15D000019E6B3A
:10053000C5DD000E001400019F6F9F819E6B80DD62
:100540000AD000019851010ADCE09851020AE3E068
:080550009851030AEBE01200D0
:1005580033D00D0E00019E6FADDD000E00140001BA
:100568009F6F0D0E9E6F68DD34D00D0E00019E6FDB
:10057800A1DD000E001400019F6F9F870D0E9E6F76
:100588005BDD27D00D0E00019E6F94DD000E001478
:1005980000019F6F9F850D0E9E6F4EDD1AD00D0EC8
:1005A80000019E6F87DD000E001400019F6F9F837E
:1005B8000D0E9E6F41DD0DD000019851010AC9E072
:1005C8009851020AD2E09851030ADCE09851040AD3
:0405D800E6E0120047
:1005DC008B92110E0C6E3A0E0D6E0D2EFED70C2E4C
:1005EC00FCD700008B82110E0C6E3A0E0D6E0D2E88
:0A05FC00FED70C2EFCD70000120001
:100606008B84110E0C6E3A0E0D6E0D2EFED70C2E2F
:06061600FCD700001200F9
:10061C00000E0001985D04E398511F0801E302D01D
:10062C001F0E986F98511F08006E00C098F01F0E97
:10063C000014026E02C000F00036009000360090EC
:10064C0000360090F80E001600C098F0030E9E6F56
:0C065C00020E9F6F00C0A0F0FFDC120037
:100668002E0E0001816F000E826FA20E836F000EA6
:10067800846F1C0E796E000E7A6EA20E7B6E000ED1
:100688007C6E949A94969488C66A9851C6129A5128
:10069800C6129951C7129A5305E09B51000A01E10D
:0E06A800C78C03D09B5301E0C78CC68A12009A
:1006B600010E00019E6F98C0E9FF99C0EAFFEECFD8
:1006C6009FF0BBDC020E00019E6F010E9825E96EBD
:0E06D600000E9921EA6EEECF9FF0AFDC12000D
:1006E4008B940D0E00019E6FE7DC600E001000017C
:1006F4009F6F0D0E9E6FA2DC220E00019E6FDCDC4C
:10070400800E001000019F6F220E9E6F97DC120076
:0C0714007D9098C09CF037DE7D801200C4
:1007200000019A6B9B6B8B90030E026E98C000F0D9
:1007300099C001F0025007E001320032019E01BC75
:10074000018EFF0FF8D77F0E0014A26FA28F050E47
:10075000006E98C09AF0005004E09A379A91FF0F0B
:10076000FBD7E00E9A175ADC9AC0A2F057DC9BC068
:08077000A2F05DDC8B80120099
:0E0778002A0E00019E6F070E9F6F5EDC1200BE
:1007860000019A6B9A6B800E9A19006E800E080A09
:10079600005C11E29A51050F9E6F9A519825E96EF9
:1007A600000E9ABFFF0E9921EA6EEECF9FF045DC50
:0807B60000019A2BE8D71200A4
:1007BE0000019E6B7CDC080E001000019F6F9E6B8B
:1007CE0038DC110E00019E6F72DCDF0E001400018A
:1007DE009F6F110E9E6F2DDC100E00019E6FFF0E8F
:0607EE009F6F27DC1200E2
:1007F4001B0E00019E6F60DC040E001000019F6F51
:080804001B0E9E6F1BDC1200AD
:10080C001B0E00019E6F54DC000E001400019F6F44
:08081C001B0E9E6F0FDC1200A1
:100824007CDD010E00019C6FEDDD020E00019C6F6A
:1008340049DE42DE0B0E00019C6F93DC50DC12009B
:10084400030E00019E6F98C0E9FF99C0EAFFEECF46
:100854009FF020EC00F0040E00019E6F010E98251D
:10086400E96E000E9921EA6EEECF9FF020EC00F0C5
:02087400120070
:100876001B0E00019E6F1FDC010E001000019F6F12
:0A0886001B0E9E6F20EC00F0120024
:1008900010D0800E0001936F1AD0C00E936F17D046
:1008A000940E936F14D0D40E936F11D0800E936F6B
:1008B0000ED000019351010AECE09351020AEDE0E1
:1008C0009351030AEDE09351040AEDE0EFD794054C
:1008D000006E9351002600C093F000C09CF055DDDF
:1008E0007D90976B97519525E96E000E9621EA6EE3
:1008F000EE520BE097519525E96E000E9621EA6EB7
:0E090000EECF98F007DF972BEDD77D80120029
:10090E0010D0800E0001936F1AD0C00E936F17D0C7
:10091E00940E936F14D0D40E936F11D0800E936FEC
:10092E000ED000019351010AECE09351020AEDE062
:10093E009351030AEDE09351040AEDE0EFD79405CD
:10094E00006E9351002600C093F07D8000C09CF095
:0E095E0015DD7D9095C09CF011DD7D801200AE
:10096C000900F5CFE6FF0006FBE10106F9E11200F4
:10097C000001936B946B0B0E316E100E326E010EE8
:10098C00336E880E346E48C035F047C036F046C022
:10099C0037F044C038F045C039F067C03AF068C051
:1009AC003BF08AC03CF08BC03DF085C03EF086C069
:1009BC003FF087C040F088C041F089C042F0936B93
:1009CC00946B800E9419006E800E005C02E1120E86
:1009DC00935D14E293517E249E6F94517F209F6F00
:1009EC00310E9325E96E000E9421EA6EEECFA0F045
:1009FC0032EC00F00001934B942BE3D7F5DE00DFD3
:040A0C0034DF1200C1
:100A10000001936B946B956B956B050E955D0AE2E7
:100A2000000E82BC010E936F9351010A01E1942BD9
:100A3000952BF3D79451020803E2010E006E1200C9
:040A4000006A120036
:100A44000001936B946B390E9E6F5EEC00F0040E04
:100A5400001000019F6F390E9E6F20EC00F0000122
:100A6400936B946B800E9419006E800E005C02E10F
:100A7400800E935D33E2800E9419006E800E005C4C
:100A840002E1150E935D13E24A0E9325956F000E55
:100A94009421966F93516524986F94516620996FB1
:100AA4003DDE95C0E1FF96C0E2FF00C0E6FF800E88
:100AB40000019419006E800E005C02E1150E935D36
:100AC40009E393516524986F94516620996F26DE4B
:100AD40000C064F00001934B942BC4D756C05FF060
:100AE40057C060F058C061F059C062F05AC063F05A
:100AF4005DC049F05EC043F0390E9E6F5EEC00F0BD
:100B0400000E001400019F6F390E9E6F20EC00F060
:020B14001200CD
:100B16000001936B496A436A230E486E646A000EAD
:100B2600656E030E666E7E6A7F6A936B800E9319FE
:100B3600006E800E020A005C32E28A0EE16E000E42
:100B4600E26E9351E126000E93BFFF0EE222010EE4
:100B5600E66E440EE16E000EE26E9351E126000E43
:100B660093BFFF0EE222020EE66E670EE16E000EE6
:100B7600E26E9351E126000E93BFFF0EE222030EB2
:100B8600E66E460EE16E000EE26E9351E126000E11
:100B960093BFFF0EE222030EE66E932BC7D7936B2D
:100BA600800E9319006E800E080A005C1AE2710E20
:100BB600E16E000EE26E9351E126000E93BFFF0E2A
:100BC600E222010EE66E690EE16E000EE26E9351B0
:100BD600E126000E93BFFF0EE222020EE66E932B75
:100BE600DFD7986B996B9A6B010E9B6F3ADDF3DC3E
:100BF600C0DD71EC00F073DD690E0001986F000E28
:100C0600996FBEDD440E986F000E996F18DE460E82
:100C16000001986F000E996F4BDD01DECDDD1F0ED2
:100C26000001986FF8DC010E0001986F92DC010E4E
:0A0C36000001986F62DCE4DC12009C
:100C400017EC07F0010E00018C6F000E8D6F8E6B9C
:100C50008F6B906B916B926B020E936F946B2D0E5A
:100C6000956F000E966F14DE0D0E0B6EAF0E0C6EB0
:100C7000B60E0D6E0D2EFED70C2EFCD70B2EFAD70E
:100C8000000049DF000E00018D1902E1010E8C19F0
:100C900035E1020E0B6E450E0C6EA90E0D6E0D2E7B
:100CA000FED70C2EFCD70B2EFAD70000000092C006
:100CB00085F091C086F090C087F08FC088F08EC01C
:100CC00089F05CDE1B0E00019E6F5EEC00F0100EE2
:100CD0000014016E0150100A11E1020E0B6E450E58
:100CE0000C6EA90E0D6E0D2EFED70C2EFCD70B2E02
:100CF000FAD70000000000018C6B8D6B0001000E24
:100D00008D1902E1000E8C19D8A481D081DE00502B
:100D1000000AD8A47CD0310E9E6F5EEC00F000C0BB
:100D200080F090DE5FC092F060C091F061C090F002
:100D300062C08FF063C08EF0010E0001936F010E50
:100D4000946F5FC095F0E3DD010E936F020E946F18
:100D500091C095F0DCDD9051690A04E090516F0A72
:100D600001E00FD0010E936F030E946F90C095F0C9
:100D7000CEDD010E936F040E946F200E956FC7DDCC
:100D80000ED0010E936F030E946F2E0E956FBFDD84
:100D9000010E936F040E946F90C095F0B8DD8E51E4
:100DA000620A09E1020E936F946B210E956F000E9B
:100DB000966F6EDD08D0020E936F946B150E956FD3
:100DC000000E966F65DD8F51430A08E1010E936FA7
:100DD000050E946F430E956F9ADD07D0010E936F49
:100DE000050E946F200E956F92DD020E0B6E450E70
:100DF0000C6EA90E0D6E0D2EFED70C2EFCD70B2EF1
:100E0000FAD700000000010E8C6F000E8D6F3AD7EC
:020E1000FFD70A
:100E2E0010EE15F01C0E006E010E016E120EF66E17
:0E0E3E000E0EF76E000EF86EB6EC04F0120009
:0C0E12006C6F7720626174746572790067
:0C0E1E0020202020202020202020200068
:040E2A0044455500E6
:020000040030CA
:0D000100021F1EFF8381FF0FC00FE00F40A4
:00000001FF
