:1000000002EF05F00000000000EF00F0000000002B
:0A0010000000000000000000F3D71C
:10001C0068C0C9FFC7B002D00000FCD7C9CF00F040
:02002C001200C0
:10002E0068C0C9FFC7B002D00000FCD7C9CF00F02E
:02003E001200AE
:100040008B9064C000F0003600907F0E0016008098
:1000500000C064F000C068F0EADF65C068F0E7DF68
:040060008B8012007F
:10006400656A8B9064C000F0003600907E0E001626
:1000740000C064F000C068F0D8DF65C068F0CCDF71
:040084008B8012005B
:10008800676A8B90030E026E64C000F065C001F0D1
:10009800025007E001320032019E01BC018EFF0FC1
:1000A800F8D77F0E0014686E688E050E006E64C067
:1000B80067F0005004E067366790FF0FFBD7E00E4B
:1000C80067166788B0DF67C068F0ADDF66C068F0A4
:0600D800AADF8B8012007C
:1000DE00020E646E020E656E800E666ECEDF12002C
:1000EE00636A360E646EB7DF00C063F0008400C032
:1000FE0063F0360E646E00C065F09BDF000E631475
:10010E00006E00C063F0360E646E00C065F091DFC5
:10011E00030E0C6E970E0D6E0D2EFED70C2EFCD709
:06012E00000000001200B9
:1001340010D03E0E646E94DF800E0010656E3E0E8D
:10014400646E7CDF0CD03E0E646E400E656E76DF0E
:1001540006D06250010AEDE06250020AF4E0120097
:0A016400320E646E656A6ADF120055
:10016E000F0E0C6E470E0D6E0D2EFED70C2EFCD7FD
:06017E0000000000120069
:1001840042D03A0E646E6CDF800E0010656EDF0E96
:1001940065163A0E646E52DF3F0E646E600E656E35
:1001A4004DDF3AD03A0E646E5BDF400E0010656E90
:1001B4007F0E65163A0E646E41DF3A0E646E50DFB0
:1001C400380E0010656EFB0E65163A0E646E36DF4F
:1001D40023D03A0E646E44DFC00E0010656E3A0EF2
:1001E400646E2CDF3A0E646E3BDF380E0010656ED1
:1001F400FB0E65163A0E646E21DF3F0E646E600ED0
:10020400656E1CDF09D06250010ABBE06250020A2D
:0A021400C9E06250030ADDE01200A9
:0A021E00210E0D6E0D2EFED712000A
:10022800180E646E980E656E07DF2E0E646E950EBE
:10023800656E02DF010E646E020E656E010E666E5B
:100248001FDF49DF060E646E020E656E900E666E45
:1002580017DF070E646E020E656E800E666E10DF85
:10026800080E646E020E656E100E666E09DF200EB3
:0E027800646E020E656E210E666E02DF1200CD
:0602860000000000120060
:10028C00800E1A0A006E800E6218005C08E3800E65
:10029C006218006E800E0B0A005C01E302D00B0E9C
:1002AC00626E80D0000E646E020E656E020E666E7B
:1002BC00E5DEACD0000E646E020E656E120E666E3C
:1002CC00DDDEA4D0000E646E020E656E220E666E2C
:1002DC00D5DE9CD0000E646E020E656E320E666E1C
:1002EC00CDDE94D0000E646E020E656E420E666E0C
:1002FC00C5DE8CD0000E646E020E656E520E666EFC
:10030C00BDDE84D0000E646E020E656E620E666EEB
:10031C00B5DE7CD0000E646E020E656E720E666EDB
:10032C00ADDE74D0000E646E020E656E820E666ECB
:10033C00A5DE6CD0000E646E020E656E920E666EBB
:10034C009DDE64D0000E646E020E656EA20E666EAB
:10035C0095DE5CD0000E646E020E656EB20E666E9B
:10036C008DDE54D0000E646E020E656EC20E666E8B
:10037C0085DE4CD0000E646E020E656ED20E666E7B
:10038C007DDE44D0000E646E020E656EE20E666E6B
:10039C0075DE3CD0000E646E020E656EF20E666E5B
:1003AC006DDE34D062500B0AD8B47CD762500C0A84
:1003BC00D8B480D762500D0AD8B484D762500E0AD4
:1003CC00D8B488D762500F0A8DE06250100A92E0C0
:1003DC006250110A97E06250120A9CE06250130AB4
:1003EC00A1E06250140AA6E06250150AABE062501C
:1003FC00160AB0E06250170AB5E06250180ABAE06B
:10040C006250190ABFE062501A0AC4E06ADE120098
:10041C005EBE02D0839E01D0838E5EBC02D0839CD4
:10042C0001D0838C5EBA02D0839A01D0838A5EB8E5
:10043C0002D0839801D0838840B002D0848401D04C
:10044C00849484821ADF84925EB602D0839E01D09B
:10045C00838E5EB402D0839C01D0838C5EB202D0BA
:10046C00839A01D0838A5EB002D0839801D08388AE
:10047C0040B002D0848401D084948482FEDE8492C5
:0C048C0040A002D06EDE01D0C4DE1200E1
:100498001B0E646EE3DD010E0010656E1B0E646EAC
:0404A800CBDD120096
:1004AC00646ADADD080E0010656E646AC3DD110E35
:1004BC00646ED2DDDF0E0014656E110E646EBADD53
:0C04CC00100E646EFF0E656EB5DD1200B0
:1004D8001B0E646EC3DD000E0014656E1B0E646E89
:0404E800ABDD120076
:1004EC008B940D0E646EB8DD600E0010656E0D0EF3
:1004FC00646EA0DD220E646EAFDD800E0010656EA2
:08050C00220E646E97DD12005F
:100514001C0E3C6E000E3D6E680E3E6E000E3F6E6D
:100524002E0E386E000E396E680E3A6E000E3B6E5B
:10053400949A94969488C66A5E50C6126050C61205
:100544005F50C712605205E06150000A01E1C78C98
:0C05540003D0615201E0C78CC68A12007F
:100560008B920D0E0C6EFB0E0D6E0D2EFED70C2E0B
:10057000FCD7000000008B820D0E0C6EFB0E0D6E82
:0E0580000D2EFED70C2EFCD70000000012003E
:10058E001AD0646A68DD000E0014656E646A51DD6F
:10059E001BD0646A60DD000E0014656E6582646AAD
:1005AE0048DD12D0646A57DD000E0014656E65805A
:1005BE00646A3FDD09D05E50010AE3E05E50020A34
:0A05CE00E8E05E50030AEEE01200C0
:1005D800969296949598959A959C959E84928494D3
:1005E800839E839C839A8398BEDDBDDDBCDD838AB0
:1005F8008388848244DE8492B6DD848240DE8492DD
:10060800B2DD84823CDE8492AEDD8398848237DE5C
:100618008492A9DD848233DE8492839A838E8482D5
:100628002EDE8492A0DD839E8388848228DE8492D5
:100638008398848224DE849296DD848220DE8492EC
:10064800838884821CDE84928EDD8398848217DE00
:100658008492838E838C838A8388848210DE84923A
:0606680082DD408012005B
:10066E008B840D0E0C6EFB0E0D6E0D2EFED70C2E0A
:08067E00FCD70000000012008F
:100686002BD00D0E646EEBDC000E0014656E0D0EA5
:10069600646ED3DC2DD00D0E646EE1DC000E00140A
:1006A600656E65860D0E646EC8DC22D00D0E646E16
:1006B600D6DC000E0014656E65840D0E646EBDDC1E
:1006C60017D00D0E646ECBDC000E0014656E6582CD
:1006D6000D0E646EB2DC0CD05E50010AD2E05E50A4
:1006E600020AD9E05E50030AE1E05E50040AE9E03E
:0206F6001200F0
:1006F80097DD010E626E42DD020E626E17DD2EDDA1
:0A0708000B0E626EBFDDEFDC120085
:10071200000E5E5C04E35E501F0801E302D01F0E70
:100722005E6E5E501F08006E00C05EF01F0E001469
:10073200026E02C000F000360090003600900036D3
:100742000090F80E001600C05EF0030E646E020EFA
:0A075200656E00C066F097DC12002F
:10075C001B0E646E81DC040E0010656E1B0E646E45
:04076C0069DC120032
:10077000030E646E5EC0E9FF5FC0EAFFEECF65F076
:100780005FDC040E646E010E5E24E96E000E5F20D5
:0A079000EA6EEECF65F054DC1200B3
:10079A00606A606A800E6018006E800E080A005C4B
:1007AA0010E26050050F646E60505E24E96E000E20
:1007BA0060BEFF0E5F20EA6EEECF65F03CDC602A79
:0407CA00E9D7120059
:0C07CE002A0E646E070E656E34DC12000B
:1007DA00010E646E5EC0E9FF5FC0EAFFEECF65F00E
:1007EA002ADC020E646E010E5E24E96E000E5F20A2
:0A07FA00EA6EEECF65F01FDC12007E
:100804005C6A1E6A446A230E1F6E436A000E416EC0
:10081400030E426E156A166A5C6A800E5C18006EDE
:10082400800E020A005C32E21C0EE16E000EE26EE3
:100834005C50E126000E5CBEFF0EE222010EE66E65
:10084400340EE16E000EE26E5C50E126000E5CBEDA
:10085400FF0EE222020EE66E320EE16E000EE26E32
:100864005C50E126000E5CBEFF0EE222030EE66E33
:10087400360EE16E000EE26E5C50E126000E5CBEA8
:10088400FF0EE222030EE66E5C2AC7D75C6A800E76
:100894005C18006E800E080A005C1AE24D0EE16ED0
:1008A400000EE26E5C50E126000E5CBEFF0EE222FA
:1008B400010EE66E450EE16E000EE26E5C50E1261E
:1008C400000E5CBEFF0EE222020EE66E5C2ADFD74B
:1008D4000F0EC16EF29E926A936A946A956A94901E
:1008E4009492948C9494176A186A196A1A6A1B6A07
:1008F400836A8C6A270E0C6EF50E0D6E0D2EFED7D4
:100904000C2EFCD767DE010E5E6E86DD0C0E5E6E6D
:1009140083DD5E6A5F6A606A010E616EF9DD1EDE68
:1009240054DF77EC00F0E0DD450E5E6E000E5F6E86
:1009340032DF340E5E6E000E5F6E18DF360E5E6EB2
:10094400000E5F6E48DFD6DEAFDD1F0E5E6EDFDEAB
:10095400010E5E6E96DE010E5E6E17DE86DE1200FE
:100964000900F5CFE6FF0006FBE10106F9E11200FC
:100974005C6A5D6A0B0E206E100E216E010E226EF3
:10098400880E236E1FC024F037C025F036C026F031
:1009940034C027F035C028F032C029F033C02AF023
:1009A4001CC02BF01DC02CF017C02DF018C02EF069
:1009B40019C02FF01AC030F01BC031F05C6A5D6AB8
:1009C400800E5D18006E800E005C02E1120E5C5C0D
:1009D40013E25C501524646E5D501620656E200E83
:1009E4005C24E96E000E5D20EA6EEECF66F044EC06
:1009F40000F05C4A5D2AE4D7AFDE6CDD4BDD12000B
:100A0400010E556E000E566E576A586A596A5A6A34
:100A14005B6AF6DE000E561802E1010E55181CE161
:100A2400240E646E32EC00F0020E0B6E040E0C6E9B
:100A3400BA0E0D6E0D2EFED70C2EFCD70B2EFAD748
:100A440000005BC017F05AC018F059C019F058C024
:0C0A54001AF057C01BF08CDFDDD7FFD775
:020000040030CA
:0D000100021F1EFF8381FF0FC00FE00F40A4
:00000001FF
