:100000009AEF05F00000000000EF00F00000000093
:0A0010000000000000000000F3D71C
:10001C0084C0C9FFC7B002D00000FCD7C9CF00F024
:02002C001200C0
:10002E0084C0C9FFC7B002D00000FCD7C9CF00F012
:02003E001200AE
:100040000001816B8B9080C000F0003600907E0E26
:10005000001600C080F000C084F0E0DF81C084F0B2
:06006000E6DF8B801200B8
:100066008B9080C000F0003600907F0E0016008056
:1000760000C080F000C084F0CEDF81C084F0CBDF0A
:040086008B80120059
:10008A000001836B8B90030E026E80C000F081C06A
:10009A0001F0025007E001320032019E01BC018EDC
:1000AA00FF0FF8D77F0E0014846F848F050E006E41
:1000BA0080C083F0005004E083378391FF0FFBD7A1
:1000CA00E00E83178389A5DF83C084F0A2DF82C094
:0800DA0084F09FDF8B8012000F
:1000E200020E0001806F020E816F800E826FCCDFE4
:0200F2001200FA
:1000F4007F6A360E0001806FA1DF00C07FF00084AC
:1001040000C07FF0360E0001806F00C081F0A9DFCF
:10011400000E7F14006E00C07FF0360E0001806F69
:1001240000C081F09EDF030E0C6E970E0D6E0D2E37
:0C013400FED70C2EFCD7000000001200CB
:100140000F0E0C6E470E0D6E0D2EFED70C2EFCD72B
:0601500000000000120097
:0601560000000000120091
:0A015C00210E0D6E0D2EFED71200CD
:10016600800E1A0A006E800E7E18005C08E3800E70
:100176007E18006E800E0B0A005C01E302D00B0EA7
:100186007E6E90D0000E0001806F020E816F020E0F
:10019600826F78DFBDD0000E0001806F020E816F86
:1001A600120E826F6FDFB4D0000E0001806F020E58
:1001B600816F220E826F66DFABD0000E0001806F6A
:1001C600020E816F320E826F5DDFA2D0000E00013B
:1001D600806F020E816F420E826F54DF99D0000E3F
:1001E6000001806F020E816F520E826F4BDF90D03E
:1001F600000E0001806F020E816F620E826F42DF79
:1002060087D0000E0001806F020E816F720E826F22
:1002160039DF7ED0000E0001806F020E816F820EE4
:10022600826F30DF75D0000E0001806F020E816F85
:10023600920E826F27DF6CD0000E0001806F020ED7
:10024600816FA20E826F1EDF63D0000E0001806FE9
:10025600020E816FB20E826F15DF5AD0000E0001BA
:10026600806F020E816FC20E826F0CDF51D0000EBE
:100276000001806F020E816FD20E826F03DF48D0BD
:10028600000E0001806F020E816FE20E826FFADEB1
:100296003FD0000E0001806F020E816FF20E826F5A
:1002A600F1DE36D07E500B0AD8B46CD77E500C0ADD
:1002B600D8B471D77E500D0AD8B476D77E500E0AC0
:1002C600D8B47BD77E500F0AD8B480D77E50100A98
:1002D600D8B485D77E50110A8BE07E50120A91E081
:1002E6007E50130A97E07E50140A9DE07E50150A50
:1002F600A3E07E50160AA9E07E50170AAFE07E50B2
:10030600180AB5E07E50190ABBE07E501A0AC1E011
:04031600EEDE120005
:10031A007EBE02D0839E01D0838E7EBC02D0839C97
:10032A0001D0838C7EBA02D0839A01D0838A7EB8A8
:10033A0002D0839801D0838865B002D0848401D02A
:10034A008494848203DF84927EB602D0839E01D095
:10035A00838E7EB402D0839C01D0838C7EB202D07D
:10036A00839A01D0838A7EB002D0839801D0838891
:10037A0065B002D0848401D084948482E7DE8492BA
:0C038A0065A002D0D8DE01D0E4DE120035
:0C039600320E0001806F816B63DE1200EC
:1003A200180E0001806F980E816F5CDE2E0E000128
:1003B200806F950E816F56DE010E0001806F020E76
:1003C200816F010E826F60DE8BDE060E0001806F90
:1003D200020E816F900E826F57DE070E0001806F52
:1003E200020E816F800E826F4FDE080E0001806F59
:1003F200020E816F100E826F47DE200E0001806FA9
:0C040200020E816F210E826F3FDE12009F
:10040E004ED03A0E0001806F14DE800E00100001F7
:10041E00816FDF0E81173A0E806F1EDE3F0E0001D8
:10042E00806F600E816F18DE43D03A0E0001806F30
:10043E0000DE400E00100001816F7F0E81173A0E14
:10044E00806F0ADE3A0E0001806FF3DD380E001069
:10045E000001816FFB0E81173A0E806FFDDD28D0F3
:10046E003A0E0001806FE5DDC00E00100001816FB5
:10047E003A0E806FF1DD3A0E0001806FDADD380E34
:10048E0000100001816FFB0E81173A0E806FE4DDC4
:10049E003F0E0001806F600E816FDEDD09D07E5051
:1004AE00010AAFE07E50020AC0E07E50030AD8E097
:0204BE0012002A
:1004C00013D03E0E0001806FBBDD800E00100001D6
:1004D000816F3E0E806FC7DD0DD03E0E0001806F34
:1004E000400E816FC0DD06D07E50010AEAE07E50EA
:0604F000020AF3E0120015
:1004F600000E7A5C04E37A501F0801E302D01F0E57
:100506007A6E7A501F08006E00C07AF01F0E001433
:10051600026E02C000F000360090003600900036F1
:100526000090F80E001600C07AF0030E0001806FEE
:0C053600020E816F00C082F0A5DD1200F3
:100542000001806B7CDD080E00100001816F806B62
:1005520089DD110E0001806F72DDDF0E00140001D3
:10056200816F110E806F7EDD100E0001806FFF0E15
:06057200816F78DD12002C
:0C05780065907AC07EF0CDDE6580120038
:100584007C6A7D6A8B90030E026E7AC000F07BC099
:1005940001F0025007E001320032019E01BC018EDD
:1005A400FF0FF8D77F0E00140001846F848F050EAF
:1005B400006E7AC07CF0005004E07C367C90FF0F23
:1005C400FBD7E00E7C1628DD7CC084F025DD7DC0E1
:0805D40084F02BDD8B80120086
:0E05DC002A0E0001806F070E816F3FDD1200B6
:1005EA008B940D0E0001806F26DD600E0010000155
:1005FA00816F0D0E806F32DD220E0001806F1BDDD0
:10060A00800E00100001816F220E806F27DD12001C
:10061A00030E0001806F7AC0E9FF7BC0EAFFEECFCC
:10062A0081F01CDD040E0001806F010E7A24E96E50
:0E063A00000E7B20EA6EEECF81F010DD120084
:100648007C6A7C6A800E7C18006E800E080A005C4A
:1006580011E27C50050F0001806F7C507A24E96E0E
:10066800000E7CBEFF0E7B20EA6EEECF81F0F7DC39
:060678007C2AE8D7120005
:10067E0091DE010E7E6EC4DE020E7E6E1ADF84DE09
:0A068E000B0E7E6E69DD2FDD1200F9
:100698008B840D0E0C6EFB0E0D6E0D2EFED70C2EE0
:0806A800FCD700000000120065
:1006B00020D00001806BC4DC000E00140001816FAB
:1006C000806BD1DC1FD00001806BBADC000E0014FF
:1006D0000001816F8183806BC6DC14D00001806BC8
:1006E000AFDC000E00140001816F8181806BBBDCE8
:1006F00009D07A50010ADDE07A50020AE4E07A502B
:06070000030AECE0120008
:1007060033D00D0E0001806F98DC000E001400013E
:10071600816F0D0E806FA4DC33D00D0E0001806F4B
:100726008CDC000E00140001816F81870D0E806F36
:1007360097DC26D00D0E0001806F7FDC000E0014C2
:100746000001816F81850D0E806F8ADC19D00D0E38
:100756000001806F72DC000E00140001816F81833E
:100766000D0E806F7DDC0CD07A50010ACAE07A50FB
:10077600020AD3E07A50030ADDE07A50040AE7E081
:0207860012005F
:100788008B920D0E0C6EFB0E0D6E0D2EFED70C2EE1
:10079800FCD7000000008B820D0E0C6EFB0E0D6E58
:0E07A8000D2EFED70C2EFCD700000000120014
:1007B600010E0001806F7AC0E9FF7BC0EAFFEECF31
:1007C60081F04EDC020E0001806F010E7A24E96E84
:0E07D600000E7B20EA6EEECF81F042DC1200B6
:1007E4002E0E616E000E626E840E636E000E646ED9
:1007F4001C0E5D6E000E5E6E840E5F6E000E606EEB
:10080400949A94969488C66A7A50C6127C50C612FA
:100814007B50C7127C5205E07D50000A01E1C78C71
:0C08240003D07D5201E0C78CC68A120090
:10083000756A2E6A2D6A230E6A6E4A6A000E4B6E26
:10084000030E4C6E686A696A756A800E7518006ED0
:10085000800E020A005C32E2660EE16E000EE26E6D
:100860007550E126000E75BEFF0EE222010EE66E07
:100870006F0EE16E000EE26E7550E126000E75BE41
:10088000FF0EE222020EE66E6D0EE16E000EE26ECB
:100890007550E126000E75BEFF0EE222030EE66ED5
:1008A0006B0EE16E000EE26E7550E126000E75BE15
:1008B000FF0EE222030EE66E752AC7D7756A800E18
:1008C0007518006E800E080A005C1AE2550EE16E83
:1008D000000EE26E7550E126000E75BEFF0EE2229C
:1008E000010EE66E4D0EE16E000EE26E7550E126D1
:1008F000000E75BEFF0EE222020EE66E752ADFD7ED
:100900007A6A7B6A7C6A010E7D6E6CDF3DDF66DE93
:100910007AEC00F06ADE4D0E7A6E000E7B6E94DE8D
:100920006F0E7A6E000E7B6E78DE6B0E7A6E000EA6
:100930007B6E41DFA4DE05DE1F0E7A6EDCDD010E6C
:0E0940007A6EE1DE010E7A6EB3DEA6DE1200E4
:10094E00756A766A776A776A050E775C0AE2000E38
:10095E0082BC010E756E7550010A01E1762A772A66
:10096E00F3D77650020803E2010E006E1200006A01
:02097E00120065
:100980000FD0800E756E19D0C00E756E16D0940EF5
:10099000756E13D0D40E756E10D0800E756E0DD09E
:1009A0007550010AEEE07550020AEEE07550030A38
:1009B000EEE07550040AEEE0F0D77604006E755054
:1009C000002600C075F000C07EF0A7DC6590796A53
:1009D00079507724E96E000E7820EA6EEE520BE033
:1009E00079507724E96E000E7820EA6EEECF7AF027
:0A09F000C3DD792AEDD765801200FF
:1009FA00756A766A390E0001806F20EC00F0040EE9
:100A0A0000100001816F390E806F33EC00F0756AB7
:100A1A00766A800E7618006E800E005C02E1800E07
:100A2A00755C31E2800E7618006E800E005C02E181
:100A3A00150E755C13E2300E7524776E000E762063
:100A4A00786E75504B247A6E76504C207B6E95DD0D
:100A5A0077C0E1FF78C0E2FF00C0E6FF800E76189B
:100A6A00006E800E005C02E1150E755C09E375509C
:100A7A004B247A6E76504C207B6E7FDD00C04AF0A4
:100A8A00754A762AC6D73CC045F03DC046F03EC0FE
:100A9A0047F03FC048F040C049F043C02EF044C080
:100AAA002DF0390E0001806F20EC00F0000E0014CA
:0E0ABA000001816F390E806F33EC00F01200E6
:100AC8000FD0800E756E19D0C00E756E16D0940EAC
:100AD800756E13D0D40E756E10D0800E756E0DD055
:100AE8007550010AEEE07550020AEEE07550030AEF
:100AF800EEE07550040AEEE0F0D77604006E75500B
:100B0800002600C075F0658000C07EF002DC6590AC
:0C0B180077C07EF08DEC01F065801200CB
:100B24000900F5CFE6FF0006FBE10106F9E112003A
:100B34001CEC06F0716A726A736A746A77DE05DF08
:100B44000050000AD8A468D0310E0001806F20EC58
:100B540000F000C02FF04FDF46C074F047C073F0C0
:100B640048C072F049C071F0010E756E010E766EC8
:100B740045C077F0A7DF010E756E020E766E74C065
:100B840077F0A0DF7350690A04E073506F0A01E044
:100B94000FD0010E756E030E766E73C077F092DF80
:100BA400010E756E040E766E200E776E8BDF0ED0FE
:100BB400010E756E030E766E2E0E776E83DF010EB8
:100BC400756E040E766E73C077F07CDF7150620A26
:100BD40009E1020E756E766A210E776E000E786E4C
:100BE400CDDE08D0020E756E766A150E776E000E95
:100BF400786EC4DE7250430A08E1010E756E050E6C
:100C0400766E430E776E5EDF07D0010E756E050EAD
:0C0C1400766E200E776E56DF92D7FFD769
:100C380010EE15F0180E006E010E016E200EF66E05
:0E0C48000C0EF76E000EF86E92EC05F0120026
:0C0C20006C6F772062617474657279005B
:0C0C2C002020202020202020202020005C
:020000040030CA
:0D000100021F1EFF8381FF0FC00FE00F40A4
:00000001FF
