:1000000047EF07F00000000000EF00F000000000E4
:0A0010000000000000000000F3D71C
:10001C00A7C0C9FFC7B002D00000FCD7C9CF00F001
:02002C001200C0
:10002E00A7C0C9FFC7B002D00000FCD7C9CF00F0EF
:02003E001200AE
:100040008B90A3C000F0003600907F0E0016008059
:1000500000C0A3F000C0A7F0EADFA4C0A7F0E7DF6C
:040060008B8012007F
:100064000001A46B8B90A3C000F0003600907E0EBC
:10007400001600C0A3F000C0A7F0D7DFA4C0A7F00B
:06008400CBDF8B801200AF
:10008A000001A66B8B90030E026EA3C000F0A4C001
:10009A0001F0025007E001320032019E01BC018EDC
:1000AA00FF0FF8D77F0E0014A76FA78F050E006EFB
:1000BA00A3C0A6F0005004E0A637A691FF0FFBD715
:1000CA00E00EA617A689AEDFA6C0A7F0ABDFA5C0D3
:0800DA00A7F0A8DF8B801200E3
:0C00E200290E0D6E0D2EFED7000012003E
:1000EE00120E0C6EDA0E0D6E0D2EFED70C2EFCD7E8
:0400FE0000001200EC
:10010200020E0001A36F020EA46F800EA56FBCDF6A
:020112001200D9
:100114000001A26B360EA36FA3DF00C0A2F000841F
:1001240000C0A2F0360E0001A36F00C0A4F086DF69
:10013400000E0001A215006E00C0A2F0360EA36FDF
:1001440000C0A4F07BDF040E0C6E3D0E0D6E0D2E70
:0C015400FED70C2EFCD7000000001200AB
:0601600000000000120087
:0C016600320E0001A36FA46B68DF1200D2
:10017200800E1A0A006E800E0001A119005C08E3CD
:10018200800EA119006E800E0B0A005C01E302D002
:100192000B0EA16F8FD0000EA36F020EA46F020E82
:1001A200A56F72DFBFD0000E0001A36F020EA46F15
:1001B200120EA56F69DFB6D0000E0001A36F020E0A
:1001C200A46F220EA56F60DFADD0000E0001A36FF9
:1001D200020EA46F320EA56F57DFA4D0000E0001ED
:1001E200A36F020EA46F420EA56F4EDF9BD0000ECE
:1001F2000001A36F020EA46F520EA56F45DF92D0CD
:10020200000E0001A36F020EA46F620EA56F3CDF09
:1002120089D0000E0001A36F020EA46F720EA56FAB
:1002220033DF80D0000E0001A36F020EA46F820E96
:10023200A56F2ADF77D0000E0001A36F020EA46F14
:10024200920EA56F21DF6ED0000E0001A36F020E89
:10025200A46FA20EA56F18DF65D0000E0001A36F78
:10026200020EA46FB20EA56F0FDF5CD0000E00016C
:10027200A36F020EA46FC20EA56F06DF53D0000E4D
:100282000001A36F020EA46FD20EA56FFDDE4AD04D
:10029200000E0001A36F020EA46FE20EA56FF4DE42
:1002A20041D0000E0001A36F020EA46FF20EA56FE3
:1002B200EBDE38D00001A1510B0AD8B46CD7A151A2
:1002C2000C0AD8B470D7A1510D0AD8B475D7A15170
:1002D2000E0AD8B47AD7A1510F0AD8B47FD7A15148
:1002E200100AD8B484D7A151110AD8B489D7A15120
:1002F200120A8FE0A151130A95E0A151140A9BE062
:10030200A151150AA1E0A151160AA7E0A151170AAD
:10031200ADE0A151180AB3E0A151190AB9E0A15107
:080322001A0ABFE0F6DE12002A
:10032A000001A1BF02D0839E01D0838EA1BD02D05D
:10033A00839C01D0838CA1BB02D0839A01D0838A8B
:10034A00A1B902D0839801D083885FB002D0848497
:10035A0001D084948482FFDE8492A1B702D0839E66
:10036A0001D0838EA1B502D0839C01D0838CA1B326
:10037A0002D0839A01D0838AA1B102D0839801D096
:10038A0083885FB002D0848401D084948482E3DEBF
:0E039A0084925FA002D0A6DE01D09EDE12008B
:1003A800180E0001A36F980EA46F46DE2E0E0001F2
:1003B800A36F950EA46F40DE010E0001A36F020E1D
:1003C800A46F010EA56F5DDE98DE060E0001A36F17
:1003D800020EA46F900EA56F54DE070E0001A36FE6
:1003E800020EA46F800EA56F4CDE080E0001A36FED
:1003F800020EA46F100EA56F44DE200E0001A36F3D
:0C040800020EA46F210EA56F3CDE120056
:100414004ED03A0E0001A36F23DE800E00100001BF
:10042400A46FDF0EA4173A0EA36F08DE3F0E00017F
:10043400A36F600EA46F02DE44D03A0E0001A36FD6
:100444000FDE400E00100001A46F7F0EA4173A0EB9
:10045400A36FF4DD3A0E0001A36F02DE380E001024
:100464000001A46FFB0EA4173A0EA36FE7DD29D099
:100474003A0E0001A36FF4DDC00E00100001A46F5A
:100484003A0EA36FDBDD3A0E0001A36FE9DD380EEF
:1004940000100001A46FFB0EA4173A0EA36FCEDD6B
:1004A4003F0E0001A36F600EA46FC8DD0AD00001E7
:1004B400A151010AAEE0A151020ABFE0A151030A11
:0404C400D7E012006B
:1004C80013D03E0E0001A36FC9DD800E001000019D
:1004D800A46F3E0EA36FB0DD0ED03E0E0001A36FD9
:1004E800400EA46FA9DD07D00001A151010AE9E07F
:0804F800A151020AF2E012001A
:10050000086A096A100E0C6E013408360936045068
:10051000085E0550D8A0053C095ED8B007D004504D
:1005200008260550D8B0053C0926D890003601367B
:060530000C2EEAD71200B8
:100536000001A36B94DD080E00100001A46FA36BED
:100546007CDD110E0001A36F8ADDDF0E00140001B1
:10055600A46F110EA36F71DD100E0001A36FFF0EC5
:06056600A46F6BDD120022
:10056C0020D00001A36B78DD000E00140001A46FF5
:10057C00A36B60DD20D00001A36B6EDD000E0014B8
:10058C000001A46FA483A36B55DD15D00001A36BF0
:10059C0063DD000E00140001A46FA481A36B4ADD7F
:1005AC000AD000019A51010ADCE09A51020AE3E0F8
:0805BC009A51030AEBE0120062
:1005C400000E00019A5D04E39A511F0801E302D072
:1005D4001F0E9A6F9A511F08006E00C09AF01F0EEA
:1005E4000014026E02C000F0003600900036009045
:1005F40000360090F80E001600C09AF0030EA36FA8
:0C060400020EA46F00C0A5F03EDD120045
:1006100033D00D0E0001A36F25DD000E0014000184
:10062000A46F0D0EA36F0CDD34D00D0E0001A36F6F
:1006300019DD000E00140001A46FA4870D0EA36F36
:10064000FFDC27D00D0E0001A36F0CDD000E00149F
:100650000001A46FA4850D0EA36FF2DC1AD00D0E5D
:100660000001A36FFFDC000E00140001A46FA4833F
:100670000D0EA36FE5DC0DD000019A51010AC9E00F
:100680009A51020AD2E09A51030ADCE09A51040A14
:04069000E6E012008E
:100694008B84110E0C6E3A0E0D6E0D2EFED70C2EA1
:0606A400FCD7000012006B
:1006AA0000019E6B050E9E5D0AE29E519C25E16E3D
:1006BA00000E9D21E26E200EE66E9E2BF3D79E5110
:1006CA009C25E16E000E9D21E26EE66A9E079E5110
:1006DA009C259F6F000E9D21A06F0A0E046E000ECE
:1006EA00056E9AC000F09BC001F005DF08C000F05B
:1006FA0009C001F0300E00269FC0E1FFA0C0E2FF52
:10070A0000C0E6FF0A0E046E000E056E9AC000F0E5
:10071A009BC001F0F0DE00C09AF001C09BF0000E11
:10072A00011802E1000E001801E102D09E07CFD79E
:02073A001200AB
:10073C0000019C6B9C6B800E9C19006E800E080A4D
:10074C00005C11E29C51050FA36F9C519A25E96E38
:10075C00000E9CBFFF0E9B21EA6EEECFA4F06ADC6C
:08076C0000019C2BE8D71200EC
:0E0774002A0E0001A36F070EA46F60DC1200B6
:10078200030E0001A36F9AC0E9FF9BC0EAFFEECF00
:10079200A4F055DC040E0001A36F010E9A25E96E48
:0E07A200000E9B21EA6EEECFA4F049DC12009F
:1007B000010E0001A36F9AC0E9FF9BC0EAFFEECFD4
:1007C000A4F03EDC020E0001A36F010E9A25E96E33
:0E07D000000E9B21EA6EEECFA4F032DC120088
:1007DE00E4DD010E0001A16F16DE020E0001A16F15
:1007EE006CDEBADC0B0E0001A16FBCDC8CDC1200DF
:1007FE008B940D0E0001A36F2EDC600E0010000115
:10080E00A46F0D0EA36F15DC220E0001A36F23DC67
:10081E00800E00100001A46F220EA36F0ADC1200DE
:10082E00969296949598959A959C959E849284947A
:10083E00839E839C839A839853DC52DC51DC838A9B
:10084E008388848286DC84924BDC848282DC849270
:10085E0047DC84827EDC849243DC8398848279DC5C
:10086E0084923EDC848275DC8492839A838E8482A9
:10087E0070DC849235DC839E838884826ADC849269
:10088E008398848266DC84922BDC848262DC849280
:10089E00838884825EDC849223DC8398848259DC94
:1008AE008492838E838C838A8388848252DC8492A2
:0608BE0017DC5F80120050
:1008C4001B0E0001A36F050EA46F20EC00F01200B4
:0C08D4005F909AC0A1F027DD5F80120049
:1008E0008B92110E0C6E3A0E0D6E0D2EFED70C2E45
:1008F000FCD700008B82110E0C6E3A0E0D6E0D2E81
:0A090000FED70C2EFCD700001200F9
:10090A0000019C6B9D6B8B90030E026E9AC000F0E7
:10091A009BC001F0025007E001320032019E01BC87
:10092A00018EFF0FF8D77F0E0014A76FA78F050E51
:10093A00006E9AC09CF0005004E09C379C91FF0F17
:10094A00FBD7E00E9C1717EC00F09CC0A7F017EC41
:0E095A0000F09DC0A7F00EEC00F08B801200A4
:100968001C0E456E000E466EA70E476E000E486EB2
:100978002E0E496E000E4A6EA70E4B6E000E4C6E80
:10098800949A94969488C66A00019A51C6129C510A
:10099800C6129B51C7129C5305E09D51000A01E104
:0E09A800C78C03D09D5301E0C78CC68A120095
:1009B6000001906B446A3E6A230E646E256A000E3F
:1009C6003C6E030E3D6E656A666A906B800E9019EA
:1009D600006E800E020A005C32E2600EE16E000ECE
:1009E600E26E9051E126000E90BFFF0EE222010E4C
:1009F600E66E620EE16E000EE26E9051E126000E8A
:100A060090BFFF0EE222020EE66E770EE16E000E3A
:100A1600E26E9051E126000E90BFFF0EE222030E19
:100A2600E66E790EE16E000EE26E9051E126000E42
:100A360090BFFF0EE222030EE66E902BC7D7906B97
:100A4600800E9019006E800E080A005C1AE2670E8E
:100A5600E16E000EE26E9051E126000E90BFFF0E91
:100A6600E222010EE66E6F0EE16E000EE26E90510E
:100A7600E126000E90BFFF0EE222020EE66E902BDC
:100A8600DFD70F0EC16EF29E926A936A946A956AD8
:100A960094909492948C94941F6A206A216A226A94
:100AA600236A836A8C6A310E0C6EB20E0D6E0D2EA1
:100AB600FED70C2EFCD70000B7DE010EA16F32DC8C
:100AC6000C0EA16F2FDC9A6B9B6B9C6B010E9D6FBE
:100AD60048DF03DF4CDE8AEC00F08EDE6F0E00018D
:100AE6009A6F000E9B6F27DE620E9A6F000E9B6F49
:100AF60045DE790E00019A6F000E9B6F56DE6CDEA6
:100B060017DD1F0E00019A6F5ADD010E00019A6F64
:0E0B16007CDD010E00019A6F26DDB9DD1200B4
:100B24000001906B916B390EA36F32EC00F0040E50
:100B340000100001A46F390EA36F20EC00F0000137
:100B4400906B916B800E9119006E800E005C02E137
:100B5400800E905D33E2800E9119006E800E005C71
:100B640002E1150E905D13E2270E9025926F000EA0
:100B74009121936F90513C249A6F91513D209B6F2A
:100B8400C2DE92C0E1FF93C0E2FF00C0E6FF800E28
:100B940000019119006E800E005C02E1150E905D5B
:100BA40009E390513C249A6F91513D209B6FABDE39
:100BB40000C025F00001904B912BC4D72AC026F029
:100BC40033C03FF034C040F035C041F036C042F08D
:100BD40037C043F03AC044F03BC03EF0390EA36F37
:100BE40032EC00F0000E00140001A46F390EA36F64
:060BF40020EC00F01200ED
:100BFA000001906B916B926B926B050E925D0AE20B
:100C0A00000E82BC010E906F9051010A01E1912BF6
:100C1A00922BF3D79151020803E2010E006E1200E3
:040C2A00006A12004A
:100C2E0010D0800E0001906F1AD0C00E906F17D0AA
:100C3E00940E906F14D0D40E906F11D0800E906FD2
:100C4E000ED000019051010AECE09051020AEDE045
:100C5E009051030AEDE09051040AEDE0EFD79105B3
:100C6E00006E9051002600C090F000C0A1F095ECEF
:100C7E0001F05F90946B94519225E96E000E9321D2
:100C8E00EA6EEE520BE094519225E96E000E93211E
:100C9E00EA6EEECF9AF017DE942BEDD75F8012003E
:100CAE0010D0800E0001906F1AD0C00E906F17D02A
:100CBE00940E906F14D0D40E906F11D0800E906F52
:100CCE000ED000019051010AECE09051020AEDE0C5
:100CDE009051030AEDE09051040AEDE0EFD7910533
:100CEE00006E9051002600C090F05F8000C0A1F011
:100CFE0095EC01F05F9092C0A1F095EC01F05F8051
:020D0E001200D1
:100D10000001906B916B0B0E4D6E100E4E6E210EFE
:100D20004F6E880E506E64C051F07AC052F079C098
:100D300053F062C054F063C055F077C056F078C0ED
:100D400057F060C058F061C059F01FC05AF020C081
:100D50005BF021C05CF022C05DF023C05EF0906BC0
:100D6000916B800E9119006E800E005C02E1120EF4
:100D7000905D14E290516524A36F91516620A46F99
:100D80004D0E9025E96E000E9121EA6EEECFA5F092
:100D900045EC00F00001904B912BE3D793DD12005E
:100DA0000900F5CFE6FF0006FBE10106F9E11200BC
:100DB0000001966B976B90C098F091C099F0800EEF
:100DC0009119006E800E005C02E1000E905D0BE256
:100DD000010E966F000E976F90510008986F91C0AA
:100DE00099F0000E995798C09AF099C09BF092C064
:100DF0009CF093C09DF059DC060E946F000E956F29
:100E0000000E006E9551005C02E19451000819E259
:100E100094519225E16E95519321E26E010E945DFD
:100E2000006E000E9559016E00509225E96E01503A
:100E30009321EA6EEECFE6FF010E945F000E955B04
:100E4000DFD792C0E1FF93C0E2FF200EE66E96511D
:100E500097111CE0946B956B94519225E96E955116
:100E60009321EA6EEECF01F00150200A03E1944B8A
:100E7000952BF2D7010E945F000E955B945192254D
:0E0E8000E16E95519321E26E2D0EE66E12008A
:100E8E00310E156E166A176A186A196A1A6A320EC8
:100E9E001B6E1C6A300E1D6E1E6A7B6A7C6A7D6A32
:100EAE007E6A82DD7B50000A3DE10D0E0B6EAF0EA9
:100EBE000C6EB60E0D6E0D2EFED70C2EFCD70B2E15
:100ECE00FAD7000093DE0050000A2CE1310EA36F1A
:100EDE0032EC00F000C024F01EDE26C07DF040C0D3
:100EEE007EF0010E0001906F010E916F3FC092F0E7
:100EFE00D7DE010E906F020E916F7EC092F0D0DEA3
:100F0E007DC090F0000E916F800E926F000E936F69
:100F1E0048DF020E906F010E916F800E926F000EE1
:100F2E00936F7EDE7B50010A5EE10D0E0B6EAF0EEF
:100F3E000C6EB60E0D6E0D2EFED70C2EFCD70B2E94
:100F4E00FAD7000015C01FF01BC020F01DC021F005
:100F5E0017C022F019C023F0D4DE240E0001A36FB7
:100F6E0032EC00F000C07FF00D0E0B6EAF0E0C6E6B
:100F7E00B60E0D6E0D2EFED70C2EFCD70B2EFAD7FD
:100F8E000000330E1F6E340E206E350E216E17C00C
:100F9E0022F019C023F0B5DE240E0001A36F32EC4F
:100FAE0000F000C07FF000C090F0000E00BEFF0EFB
:100FBE000001916F800E926F000E936FF2DE010EA4
:100FCE00906F010E916F800E926F000E936F28DE60
:100FDE00000E7FBEFF0E006E000E001802E1000E26
:0A0FEE007F1801E17B6A5ED7FFD790
:020000040030CA
:0D000100021F1EFF8381FF0FC00FE00F40A4
:00000001FF
