:1000000028EF06F00000000000EF00F00000000004
:0A0010000000000000000000F3D71C
:10001C0097C0C9FFC7B002D00000FCD7C9CF00F011
:02002C001200C0
:10002E0097C0C9FFC7B002D00000FCD7C9CF00F0FF
:02003E001200AE
:100040000001966B8B90030E026E93C000F094C07B
:1000500001F0025007E001320032019E01BC018E26
:10006000FF0FF8D77F0E0014976F978F050E006E65
:1000700093C096F0005004E096379691FF0FFBD79F
:10008000E00E96179689CADF96C097F0C7DF95C035
:0800900097F0C4DF8B80120021
:100098000001946B8B9093C000F0003600907E0EA8
:1000A800001600C093F000C097F0B4DF94C097F03A
:0600B800BADF8B8012008C
:1000BE008B9093C000F0003600907F0E00160080EB
:1000CE0000C093F000C097F0A2DF94C097F09FDFBE
:0400DE008B80120001
:1000E2000001926B360E936FD6DF00C092F000844F
:1000F20000C092F0360E0001936F00C094F0DEDF74
:10010200000E00019215006E00C092F0360E936F41
:1001120000C094F0D3DF040E0C6E3D0E0D6E0D2E5A
:0C012200FED70C2EFCD7000000001200DD
:10012E00020E0001936F020E946F800E956F81DFA9
:02013E001200AD
:0C014000320E0001936F946BBADF1200C6
:10014C00800E1A0A006E800E00019119005C08E303
:10015C00800E9119006E800E0B0A005C01E302D038
:10016C000B0E916F8FD0000E936F020E946F020ED8
:10017C00956F60DFBFD0000E0001936F020E946F7D
:10018C00120E956F57DFB6D0000E0001936F020E62
:10019C00946F220E956F4EDFADD0000E0001936F61
:1001AC00020E946F320E956F45DFA4D0000E000145
:1001BC00936F020E946F420E956F3CDF9BD0000E36
:1001CC000001936F020E946F520E956F33DF92D035
:1001DC00000E0001936F020E946F620E956F2ADF72
:1001EC0089D0000E0001936F020E946F720E956F02
:1001FC0021DF80D0000E0001936F020E946F820EEF
:10020C00956F18DF77D0000E0001936F020E946F7C
:10021C00920E956F0FDF6ED0000E0001936F020EE1
:10022C00946FA20E956F06DF65D0000E0001936FE0
:10023C00020E946FB20E956FFDDE5CD0000E0001C5
:10024C00936F020E946FC20E956FF4DE53D0000EB6
:10025C000001936F020E946FD20E956FEBDE4AD0B5
:10026C00000E0001936F020E946FE20E956FE2DEAA
:10027C0041D0000E0001936F020E946FF20E956F39
:10028C00D9DE38D0000191510B0AD8B46CD79151FA
:10029C000C0AD8B470D791510D0AD8B475D79151B6
:1002AC000E0AD8B47AD791510F0AD8B47FD791518E
:1002BC00100AD8B484D79151110AD8B489D7915166
:1002CC00120A8FE09151130A95E09151140A9BE0A8
:1002DC009151150AA1E09151160AA7E09151170A04
:1002EC00ADE09151180AB3E09151190AB9E091515E
:0802FC001A0ABFE0F0DE120057
:0C030400290E0D6E0D2EFED70000120019
:06031000000000001200D5
:10031600120E0C6EDA0E0D6E0D2EFED70C2EFCD7BD
:0403260000001200C1
:10032A0013D03E0E0001936FB2DE800E0010000162
:10033A00946F3E0E936FBEDE0ED03E0E0001936F99
:10034A00400E946FB7DE07D000019151010AE9E02F
:08035A009151020AF2E01200C9
:100362004ED03A0E0001936F96DE800E001000010F
:10037200946FDF0E94173A0E936FA0DE3F0E0001CA
:10038200936F600E946F9ADE44D03A0E0001936F21
:1003920082DE400E00100001946F7F0E94173A0E19
:1003A200936F8CDE3A0E0001936F75DE380E0010EB
:1003B2000001946FFB0E94173A0E936F7FDE29D0E3
:1003C2003A0E0001936F67DEC00E00100001946FB9
:1003D2003A0E936F73DE3A0E0001936F5CDE380EB5
:1003E20000100001946FFB0E94173A0E936F66DEB5
:1003F2003F0E0001936F600E946F60DE0AD0000121
:100402009151010AAEE09151020ABFE09151030AF3
:04041200D7E012001D
:10041600180E0001936F980E946F4EDE2E0E00019B
:10042600936F950E946F48DE010E0001936F020ED6
:10043600946F010E956F01DE77DE060E0001936F55
:10044600020E946F900E956FF8DD070E0001936F04
:10045600020E946F800E956FF0DD080E0001936F0B
:10046600020E946F100E956FE8DD200E0001936F5B
:0C047600020E946F210E956FE0DD120065
:100482002E0E5F6E000E606E970E616E000E626E33
:100492001C0E636E000E646E970E656E000E666E25
:1004A200949A94969488C66A00018D51C6128F510F
:1004B200C6128E51C7128F5305E09051000A01E116
:0E04C200C78C03D0905301E0C78CC68A12008D
:1004D000000E00018D5D04E38D511F0801E302D081
:1004E0001F0E8D6F8D511F08006E00C08DF01F0E06
:1004F0000014026E02C000F000360090003600903A
:1005000000360090F80E001600C08DF0030E936FB9
:0C051000020E946F00C095F093DD120005
:10051C008B84110E0C6E3A0E0D6E0D2EFED70C2E1A
:06052C00FCD700001200E4
:1005320020D00001936BAFDD000E00140001946F18
:10054200936BBCDD20D00001936BA5DD000E00147F
:100552000001946F9483936BB1DD15D00001936B0E
:100562009ADD000E00140001946F9481936BA6DD56
:100572000AD000018D51010ADCE08D51020AE3E04C
:080582008D51030AEBE01200A9
:10058A0033D00D0E0001936F82DD000E00140001BE
:10059A00946F0D0E936F8EDD34D00D0E0001936FA4
:1005AA0076DD000E00140001946F94870D0E936F90
:1005BA0081DD27D00D0E0001936F69DD000E001456
:1005CA000001946F94850D0E936F74DD1AD00D0E91
:1005DA000001936F5CDD000E00140001946F948398
:1005EA000D0E936F67DD0DD000018D51010AC9E030
:1005FA008D51020AD2E08D51030ADCE08D51040AC2
:04060A00E6E0120014
:10060E00969296949598959A959C959E849284949C
:10061E00839E839C839A839877DE76DE75DE838A4B
:10062E00838884826EDE84926FDE84826ADE849298
:10063E006BDE848266DE849267DE8398848261DE5E
:10064E00849262DE84825DDE8492839A838E8482BB
:10065E0058DE849259DE839E8388848252DE849291
:10066E00839884824EDE84924FDE84824ADE8492A8
:10067E008388848246DE849247DE8398848241DEBC
:10068E008492838E838C838A838884823ADE8492DA
:06069E003BDE6780120044
:0E06A4002A0E0001936F070E946F07DD1200FF
:1006B2008B940D0E0001936FEEDC600E00100001B2
:1006C200946F0D0E936FFADC220E0001936FE3DC40
:1006D200800E00100001946F220E936FEFDC120067
:1006E20000018F6B906B8B90030E026E8DC000F039
:1006F2008EC001F0025007E001320032019E01BCBF
:10070200018EFF0FF8D77F0E0014976F978F050E9B
:10071200006E8DC08FF0005004E08F378F91FF0F75
:10072200FBD7E00E8F1779DC8FC097F076DC90C094
:0807320097F07CDC8B801200C3
:10073A00030E0001936F8DC0E9FF8EC0EAFFEECF72
:10074A0094F0B8DC040E0001936F010E8D25E96E5A
:0E075A00000E8E21EA6EEECF94F0ACDC1200A1
:1007680000018DBF02D0839E01D0838E8DBD02D043
:10077800839C01D0838C8DBB02D0839A01D0838A5D
:100788008DB902D0839801D0838867B002D0848461
:1007980001D084948482B8DD84928DB702D0839E80
:1007A80001D0838E8DB502D0839C01D0838C8DB30C
:1007B80002D0839A01D0838A8DB102D0839801D068
:1007C800838867B002D0848401D0849484829CDDBD
:0E07D800849267A002D09BDD01D090DD12005C
:1007E60017DE010E0001916FB9DD020E0001916F57
:1007F60099DDA3DC0B0E0001916FA5DC6FDC120006
:0E0806001B0E0001936F050E946F56DC12005E
:100814000001936B3FDC080E00100001946F936B92
:100824004CDC110E0001936F35DCDF0E0014000167
:10083400946F110E936F41DC100E0001936FFF0E45
:06084400946F3BDC120082
:10084A00010E0001936F8DC0E9FF8EC0EAFFEECF63
:10085A0094F030DC020E0001936F010E8D25E96ED3
:0E086A00000E8E21EA6EEECF94F024DC120018
:1008780000018F6B8F6B800E8F19006E800E080A37
:10088800005C11E28F51050F936F8F518D25E96E32
:10089800000E8FBFFF0E8E21EA6EEECF94F00BDCB8
:0808A80000018F2BE8D71200BC
:1008B0008B92110E0C6E3A0E0D6E0D2EFED70C2E75
:1008C000FCD700008B82110E0C6E3A0E0D6E0D2EB1
:0A08D000FED70C2EFCD7000012002A
:1008DA000001896B576A586A640E336E416A000ECA
:1008EA003F6E030E406E396A3A6A896B800E891927
:1008FA00006E800E020A005C32E23D0EE16E000ECE
:10090A00E26E8951E126000E89BFFF0EE222010E36
:10091A00E66E1F0EE16E000EE26E8951E126000EB0
:10092A0089BFFF0EE222020EE66E3B0EE16E000E5A
:10093A00E26E8951E126000E89BFFF0EE222030E04
:10094A00E66E1D0EE16E000EE26E8951E126000E82
:10095A0089BFFF0EE222030EE66E892BC7D7896B89
:10096A00800E8919006E800E080A005C1AE2690E70
:10097A00E16E000EE26E8951E126000E89BFFF0E7C
:10098A00E222010EE66E710EE16E000EE26E8951F0
:10099A00E126000E89BFFF0EE222020EE66E892BC7
:1009AA00DFD70F0EC16EF29E926A936A946A956AB5
:1009BA0094909492948C9494346A356A366A376A1D
:1009CA00386A836A8C6A310E0C6EB20E0D6E0D2E69
:1009DA00FED70C2EFCD7000015DE010E8D6FBFDE90
:1009EA000C0E8D6FBCDE8D6B8E6B8F6B010E906F54
:1009FA0043DD59DF52DE71EC00F056DE710E000164
:100A0A008D6F000E8E6F33DF1F0E8D6F000E8E6F8F
:100A1A008FDE1D0E00018D6F000E8E6F11DFDEDE80
:100A2A00F4DE1F0E00018D6F4EDD010E00018D6F89
:0E0A3A00A7DD010E00018D6F77DD6BDD120070
:100A48000900F5CFE6FF0006FBE10106F9E1120017
:100A580010D0800E0001896F1AD0C00E896F17D090
:100A6800940E896F14D0D40E896F11D0800E896FBF
:100A78000ED000018951010AECE08951020AEDE02B
:100A88008951030AEDE08951040AEDE0EFD78A05A0
:100A9800006E8951002600C089F0678000C08DF083
:0E0AA8005FDE67908BC08DF05BDE6780120012
:100AB6000001896B8A6B8B6B8B6B050E8B5D0AE273
:100AC600000E82BC010E896F8951010A01E18A2B51
:100AD6008B2BF3D78A51020803E2010E006E120037
:040AE600006A120090
:100AEA000001896B8A6B390E936F4CEC00F0040E8F
:100AFA0000100001946F390E936F5FEC00F0000153
:100B0A00896B8A6B800E8A19006E800E005C02E186
:100B1A00800E895D33E2800E8A19006E800E005CB9
:100B2A0002E1150E895D13E2420E89258B6F000ED4
:100B3A008A218C6F89513F248D6F8A5140208E6F94
:100B4A00CBDD8BC0E1FF8CC0E2FF00C0E6FF800E68
:100B5A0000018A19006E800E005C02E1150E895DA3
:100B6A0009E389513F248D6F8A5140208E6FB4DD8D
:100B7A0000C041F00001894B8A2BC4D745C059F007
:100B8A004EC05AF04FC05BF050C05CF051C05DF0EF
:100B9A0052C05EF055C057F056C058F0390E936FE8
:100BAA004CEC00F0000E00140001946F390E936FA4
:060BBA005FEC00F01200E8
:100BC0000001896B8A6B0B0E216E100E226E210EB6
:100BD000236E880E246E33C025F01EC026F01DC083
:100BE00027F01FC028F020C029F03BC02AF03CC0ED
:100BF0002BF03DC02CF03EC02DF034C02EF035C09F
:100C00002FF036C030F037C031F038C032F0896B89
:100C10008A6B800E8A19006E800E005C02E1120E53
:100C2000895D14E289513924936F8A513A20946F77
:100C3000210E8925E96E000E8A21EA6EEECF95F02D
:100C400020EC00F00001894B8A2BE3D7DCDD120099
:100C5000320E156E166A300E176E186A196A1A6A05
:100C60001B6A1C6A010E796E7A6A7B6A7C6A010EC5
:100C70007D6E7E6A7F6A0001806B816B826BFF0EE6
:100C8000836F846B856B866B28DE9ADF7950000A50
:100C9000D8A468D0020E0001896F050E8A6F620E1B
:100CA0008B6FDADE08DF0050000A0EE1310E936F21
:100CB0004CEC00F000C068F018DF5AC086F05BC052
:100CC00085F0010E7B6E4ED0800E006E800E7BBED6
:100CD0007F0E005C02E17B5000081BE2030E0C6EED
:100CE000F30E0D6E0D2EFED70C2EFCD700007B2AC6
:100CF0007B50640A0DE1010E796EEFDD61DF020EBB
:100D00000001896F010E8A6F620E8B6FA5DE58DFBE
:100D100029D0030E0C6EF30E0D6E0D2EFED70C2E89
:100D2000FCD700000001874B882B010E896F050E50
:100D30008A6F430E8B6F90DE8851050A02E1DC0E4C
:100D4000871910E13DDF0D0E0B6EAF0E0C6EB60E67
:100D50000D6E0D2EFED70C2EFCD70B2EFAD70000F1
:100D6000010E796E7950010A62E1270E0B6E0D0EAD
:100D70000C6E260E0D6E0D2EFED70C2EFCD70B2EF4
:100D8000FAD70000330E346E15C035F017C036F0B8
:100D900019C037F01BC038F013DF240E0001936F29
:100DA0004CEC00F000C07DF0332A010E0014016EFF
:100DB000000E01BEFF0E006E000E001802E1000ED4
:100DC00001181DE1796A7B6A0001876B886B85DDFC
:100DD000010E0001896F010E8A6F610E8B6F3CDE80
:100DE0000C0E0B6E6B0E0C6E090E0D6E0D2EFED7DB
:100DF0000C2EFCD70B2EFAD70000000018D0010EE5
:100E00007D14016E0150010A12E10001010E8D6F87
:100E1000ABDC010E896F010E8A6F86C08BF01CDE81
:100E2000010E896F020E8A6F85C08BF015DE2ED7FA
:020E3000FFD7EA
:020000040030CA
:0D000100021F1EFF8381FF0FC00FE00F40A4
:00000001FF
