:1000000017EF06F00000000000EF00F00000000015
:0A0010000000000000000000F3D71C
:10001C0089C0C9FFC7B002D00000FCD7C9CF00F01F
:02002C001200C0
:10002E0089C0C9FFC7B002D00000FCD7C9CF00F00D
:02003E001200AE
:100040000001866B8B9085C000F0003600907E0E1C
:10005000001600C085F000C089F0E0DF86C089F09E
:06006000E6DF8B801200B8
:100066008B9085C000F0003600907F0E0016008051
:1000760000C085F000C089F0CEDF86C089F0CBDFF6
:040086008B80120059
:10008A000001886B8B90030E026E85C000F086C05B
:10009A0001F0025007E001320032019E01BC018EDC
:1000AA00FF0FF8D77F0E0014896F898F050E006E37
:1000BA0085C088F0005004E088378891FF0FFBD78D
:1000CA00E00E88178889A5DF88C089F0A2DF87C07B
:0800DA0089F09FDF8B8012000A
:1000E200020E0001856F020E866F800E876FCCDFD5
:0200F2001200FA
:1000F4000001846B360E856FA1DF00C084F000849C
:1001040000C084F0360E0001856F00C086F0A9DFC0
:10011400000E00018415006E00C084F0360E856F59
:1001240000C086F09EDF040E0C6E3D0E0D6E0D2E8B
:0C013400FED70C2EFCD7000000001200CB
:10014000120E0C6EDA0E0D6E0D2EFED70C2EFCD795
:040150000000120099
:0601540000000000120093
:0C015A00290E0D6E0D2EFED700001200C5
:10016600800E1A0A006E800E00018319005C08E3F7
:10017600800E8319006E800E0B0A005C01E302D02C
:100186000B0E836F8FD0000E856F020E866F020EE8
:10019600876F78DFBFD0000E0001856F020E866F75
:1001A600120E876F6FDFB6D0000E0001856F020E4C
:1001B600866F220E876F66DFADD0000E0001856F59
:1001C600020E866F320E876F5DDFA4D0000E00012F
:1001D600856F020E866F420E876F54DF9BD0000E2E
:1001E6000001856F020E866F520E876F4BDF92D02D
:1001F600000E0001856F020E866F620E876F42DF6A
:1002060089D0000E0001856F020E866F720E876F11
:1002160039DF80D0000E0001856F020E866F820ED8
:10022600876F30DF77D0000E0001856F020E866F74
:10023600920E876F27DF6ED0000E0001856F020ECB
:10024600866FA20E876F1EDF65D0000E0001856FD8
:10025600020E866FB20E876F15DF5CD0000E0001AE
:10026600856F020E866FC20E876F0CDF53D0000EAD
:100276000001856F020E866FD20E876F03DF4AD0AC
:10028600000E0001856F020E866FE20E876FFADEA2
:1002960041D0000E0001856F020E866FF20E876F49
:1002A600F1DE38D0000183510B0AD8B46CD78351E4
:1002B6000C0AD8B470D783510D0AD8B475D78351B8
:1002C6000E0AD8B47AD783510F0AD8B47FD7835190
:1002D600100AD8B484D78351110AD8B489D7835168
:1002E600120A8FE08351130A95E08351140A9BE0AA
:1002F6008351150AA1E08351160AA7E08351170A14
:10030600ADE08351180AB3E08351190AB9E083516D
:080316001A0ABFE0ECDE120040
:10031E00000183BF02D0839E01D0838E83BD02D0A5
:10032E00839C01D0838C83BB02D0839A01D0838AB5
:10033E0083B902D0839801D083885FB002D08484C1
:10034E0001D084948482FFDE849283B702D0839E90
:10035E0001D0838E83B502D0839C01D0838C83B36E
:10036E0002D0839A01D0838A83B102D0839801D0C0
:10037E0083885FB002D0848401D084948482E3DECB
:0E038E0084925FA002D0D5DE01D0E0DE120026
:0C039C00320E0001856F866B60DE1200DF
:1003A800180E0001856F980E866F59DE2E0E00011B
:1003B800856F950E866F53DE010E0001856F020E64
:1003C800866F010E876F5DDE88DE060E0001856F81
:1003D800020E866F900E876F54DE070E0001856F40
:1003E800020E866F800E876F4CDE080E0001856F47
:1003F800020E866F100E876F44DE200E0001856F97
:0C040800020E866F210E876F3CDE120092
:100414004ED03A0E0001856F11DE800E00100001EF
:10042400866FDF0E86173A0E856F1BDE3F0E0001C6
:10043400856F600E866F15DE44D03A0E0001856F1D
:10044400FDDD400E00100001866F7F0E86173A0E08
:10045400856F07DE3A0E0001856FF0DD380E00105F
:100464000001866FFB0E86173A0E856FFADD29D0E0
:100474003A0E0001856FE2DDC00E00100001866FA8
:100484003A0E856FEEDD3A0E0001856FD7DD380E2A
:1004940000100001866FFB0E86173A0E856FE1DDB2
:1004A4003F0E0001856F600E866FDBDD0AD0000110
:1004B4008351010AAEE08351020ABFE08351030A6B
:0404C400D7E012006B
:1004C80013D03E0E0001856FB7DD800E00100001CD
:1004D800866F3E0E856FC3DD0ED03E0E0001856F20
:1004E800400E866FBCDD07D000018351010AE9E0A8
:0804F8008351020AF2E0120038
:100500002E0E5B6E000E5C6E890E5D6E000E5E6ED2
:100510001C0E576E000E586E890E596E000E5A6EE4
:10052000949A94969488C66A7F50C61200018151AD
:10053000C6128051C712815305E08251000A01E1C1
:0E054000C78C03D0825301E0C78CC68A12001C
:0C054E005F907FC083F0E4DE5F8012004D
:10055A000001856B70DD080E00100001866F856B47
:10056A007DDD110E0001856F66DDDF0E00140001CE
:10057A00866F110E856F72DD100E0001856FFF0EFA
:06058A00866F6CDD12001B
:10059000000E7F5C04E37F501F0801E302D01F0EB2
:1005A0007F6E7F501F08006E00C07FF01F0E00148A
:1005B000026E02C000F00036009000360090003657
:1005C0000090F80E001600C07FF0030E0001856F4A
:0C05D000020E866F00C087F058DD12009C
:1005DC00010E0001856F7FC0E9FF80C0EAFFEECFFE
:1005EC0086F03BDD020E0001856F010E7F24E96E63
:0E05FC00000E8021EA6EEECF86F02FDD120099
:10060A00CEDE010E0001836F00DF020E0001836F50
:10061A0056DFBFDE0B0E0001836FA0DD66DD120020
:0E062A002A0E0001856F070E866F18DD120084
:100638008B940D0E0001856FFFDC600E0010000129
:10064800866F0D0E856F0BDD220E0001856FF4DCC1
:10065800800E00100001866F220E856F00DD1200EB
:100668000001816B816B800E8119006E800E080A73
:10067800005C11E28151050F856F81517F24E96E7D
:10068800000E81BFFF0E8021EA6EEECF86F0E7DC18
:080698000001812BE8D71200DC
:1006A000030E0001856F7FC0E9FF80C0EAFFEECF37
:1006B00086F0D9DC040E0001856F010E7F24E96EFF
:0E06C000000E8021EA6EEECF86F0CDDC120037
:1006CE0033D00D0E0001856FB4DC000E0014000156
:1006DE00866F0D0E856FC0DC33D00D0E0001856F59
:1006EE00A8DC000E00140001866F86870D0E856F44
:1006FE00B3DC26D00D0E0001856F9BDC000E0014BE
:10070E000001866F86850D0E856FA6DC19D00D0E45
:10071E000001856F8EDC000E00140001866F86834B
:10072E000D0E856F99DC0CD07F50010ACAE07F5008
:10073E00020AD3E07F50030ADDE07F50040AE7E0AF
:02074E00120097
:1007500020D00001856B74DC000E00140001866F50
:10076000856B81DC1FD00001856B6ADC000E0014F4
:100770000001866F8683856B76DC14D00001856B63
:100780005FDC000E00140001866F8681856B6BDCD8
:1007900009D07F50010ADDE07F50020AE4E07F507B
:0607A000030AECE0120068
:1007A6008B84110E0C6E3A0E0D6E0D2EFED70C2E8E
:0607B600FCD70000120058
:1007BC008B92110E0C6E3A0E0D6E0D2EFED70C2E6A
:1007CC00FCD700008B82110E0C6E3A0E0D6E0D2EA6
:0A07DC00FED70C2EFCD7000012001F
:1007E6000001816B826B8B90030E026E7FC000F05E
:1007F60080C001F0025007E001320032019E01BCC8
:10080600018EFF0FF8D77F0E0014896F898F050EB2
:10081600006E7FC081F0005004E081378191FF0FA8
:10082600FBD7E00E81170EEC00F081C089F00EECCC
:0E08360000F082C089F017EC00F08B801200F9
:10084400969296949598959A959C959E8492849464
:10085400839E839C839A839871DC70DC6FDC838A2B
:100864008388848275DC849269DC848271DC84925E
:1008740065DC84826DDC849261DC8398848268DC2C
:1008840084925CDC848264DC8492839A838E848286
:100894005FDC849253DC839E8388848259DC849257
:1008A4008398848255DC849249DC848251DC84926E
:1008B400838884824DDC849241DC8398848248DC82
:1008C4008492838E838C838A8388848241DC84929D
:0608D40035DC5F8012001C
:1008DA007A6A496A2E6A230E316E4F6A000E476E93
:1008EA00030E486E2F6A306A7A6A800E7A18006E92
:1008FA00800E020A005C32E2500EE16E000EE26ED9
:10090A007A50E126000E7ABEFF0EE222010EE66E52
:10091A00640EE16E000EE26E7A50E126000E7ABE97
:10092A00FF0EE222020EE66E620EE16E000EE26E2B
:10093A007A50E126000E7ABEFF0EE222030EE66E20
:10094A00600EE16E000EE26E7A50E126000E7ABE6B
:10095A00FF0EE222030EE66E7A2AC7D77A6A800E63
:10096A007A18006E800E080A005C1AE2660EE16EC2
:10097A00000EE26E7A50E126000E7ABEFF0EE222E7
:10098A00010EE66E6E0EE16E000EE26E7A50E12600
:10099A00000E7ABEFF0EE222020EE66E7A2ADFD738
:1009AA000F0EC16EF29E926A936A946A956A949047
:1009BA009492948C9494526A536A546A556A566A09
:1009CA00836A8C6A310E0C6EB20E0D6E0D2EFED736
:1009DA000C2EFCD7000031DF010E0001836F9ADC78
:1009EA000C0E836F97DC7F6A806B816B010E826FBE
:1009FA0082DDDFDE15DE7AEC00F019DE6E0E7F6E28
:100A0A00000E0001806F2BDE640E7F6E000E806F79
:100A1A0042DE600E7F6E000E0001806FDADDF0DDCF
:100A2A0097DD1F0E7F6EAFDD010E7F6E4BDE010E6E
:080A3A007F6E89DEB3DE1200BD
:100A42007A6A7B6A7C6A7C6A050E7C5C0AE2000E2A
:100A520082BC010E7A6E7A50010A01E17B2A7C2A5D
:100A6200F3D77B50020803E2010E006E1200006A07
:020A7200120070
:100A74000FD0800E7A6E19D0C00E7A6E16D0940EF6
:100A84007A6E13D0D40E7A6E10D0800E7A6E0DD09A
:100A94007A50010AEEE07A50020AEEE07A50030A34
:100AA400EEE07A50040AEEE0F0D77B04006E7A5050
:100AB400002600C07AF000C083F02FDC5F907E6ACD
:100AC4007E507C24E96E000E7D20EA6EEE520BE02F
:100AD4007E507C24E96E000E7D20EA6EEECF7FF01E
:0A0AE40034DD7E2AEDD75F8012009A
:100AEE007A6A7B6A390E0001856F20EC00F0040EE5
:100AFE0000100001866F390E856F33EC00F07A6AB4
:100B0E007B6A800E7B18006E800E005C02E1800E08
:100B1E007A5C33E2800E7B18006E800E005C02E180
:100B2E00150E7A5C14E2320E7A247C6E000E7B2057
:100B3E007D6E7A5047247F6E7B5048200001806F77
:100B4E004BDE7CC0E1FF7DC0E2FF00C0E6FF800E01
:100B5E007B18006E800E005C02E1150E7A5C0AE3D3
:100B6E007A5047247F6E7B5048200001806F34DE20
:100B7E0000C04FF07A4A7B2AC4D73EC04AF03FC02D
:100B8E004BF040C04CF041C04DF042C04EF045C05D
:100B9E0049F046C02EF0390E0001856F20EC00F0B2
:100BAE00000E00140001866F390E856F33EC00F0D5
:020BBE00120023
:100BC0000FD0800E7A6E19D0C00E7A6E16D0940EA9
:100BD0007A6E13D0D40E7A6E10D0800E7A6E0DD04D
:100BE0007A50010AEEE07A50020AEEE07A50030AE7
:100BF000EEE07A50040AEEE0F0D77B04006E7A5003
:100C0000002600C07AF05F8000C083F08FEC01F016
:0E0C10005F907CC083F08FEC01F05F801200DB
:100C1E000900F5CFE6FF0006FBE10106F9E112003F
:100C2E0099EC06F0766A776A786A796A4FDE02DFA7
:100C3E000050000AD8A468D0310E0001856F20EC58
:100C4E0000F000C02DF04CDF4BC079F04CC078F0B6
:100C5E004DC077F04EC076F0010E7A6E010E7B6EAF
:100C6E004AC07CF0A6DF010E7A6E020E7B6E79C052
:100C7E007CF09FDF7850690A04E078506F0A01E03B
:100C8E000FD0010E7A6E030E7B6E78C07CF091DF72
:100C9E00010E7A6E040E7B6E200E7C6E8ADF0ED0F5
:100CAE00010E7A6E030E7B6E2E0E7C6E82DF010EAF
:100CBE007A6E040E7B6E78C07CF07BDF7650620A13
:100CCE0009E1020E7A6E7B6A150E7C6E000E7D6E49
:100CDE00CADE08D0020E7A6E7B6A210E7C6E000E82
:100CEE007D6EC1DE7750430A08E1010E7A6E050E65
:100CFE007B6E430E7C6E5DDF07D0010E7A6E050EA5
:0C0D0E007B6E200E7C6E55DF92D7FFD765
:100D320010EE15F0180E006E010E016E1A0EF66E10
:0E0D42000D0EF76E000EF86E0FEC06F01200AC
:0C0D1A002020202020202020202020006D
:0C0D26006C6F7720626174746572790054
:020000040030CA
:0D000100021F1EFF8381FF0FC00FE00F40A4
:00000001FF
