:100000006EEF06F00000000000EF00F000000000BE
:0A0010000000000000000000F3D71C
:10001C00C6C0C9FFC7B002D00000FCD7C9CF00F0E2
:02002C001200C0
:10002E00C6C0C9FFC7B002D00000FCD7C9CF00F0D0
:02003E001200AE
:100040000001C56B8B90030E026EC2C000F0C3C0EE
:1000500001F0025007E001320032019E01BC018E26
:10006000FF0FF8D77F0E0014C66FC68F050E006E07
:10007000C2C0C5F0005004E0C537C591FF0FFBD7E3
:10008000E00EC517C589CADFC5C0C6F0C7DFC4C04A
:08009000C6F0C4DF8B801200F2
:100098008B90C2C000F0003600907F0E00160080E2
:1000A80000C0C2F000C0C6F0B5DFC3C0C6F0B2DF02
:0400B8008B80120027
:1000BC000001C36B8B90C2C000F0003600907E0E26
:1000CC00001600C0C2F000C0C6F0A2DFC3C0C6F06C
:0600DC00A8DF8B8012007A
:1000E2000001C16B360EC26FE8DF00C0C1F00084B0
:1000F20000C0C1F0360E0001C26F00C0C3F0CBDFFA
:10010200000E0001C115006E00C0C1F0360EC26FB4
:1001120000C0C3F0C0DF040E0C6E3D0E0D6E0D2E3E
:0C012200FED70C2EFCD7000000001200DD
:10012E00020E0001C26F020EC36F800EC46F81DF1C
:02013E001200AD
:0C014000320E0001C26FC36BA7DF12007B
:10014C00800E1A0A006E800E0001C019005C08E3D4
:10015C00800EC019006E800E0B0A005C01E302D009
:10016C000B0EC06F8FD0000EC26F020EC36F020E4B
:10017C00C46F60DFBFD0000E0001C26F020EC36FF0
:10018C00120EC46F57DFB6D0000E0001C26F020E04
:10019C00C36F220EC46F4EDFADD0000E0001C26FD4
:1001AC00020EC36F320EC46F45DFA4D0000E0001E7
:1001BC00C26F020EC36F420EC46F3CDF9BD0000EA9
:1001CC000001C26F020EC36F520EC46F33DF92D0A8
:1001DC00000E0001C26F020EC36F620EC46F2ADFE5
:1001EC0089D0000E0001C26F020EC36F720EC46F75
:1001FC0021DF80D0000E0001C26F020EC36F820E91
:10020C00C46F18DF77D0000E0001C26F020EC36FEF
:10021C00920EC46F0FDF6ED0000E0001C26F020E83
:10022C00C36FA20EC46F06DF65D0000E0001C26F53
:10023C00020EC36FB20EC46FFDDE5CD0000E000167
:10024C00C26F020EC36FC20EC46FF4DE53D0000E29
:10025C000001C26F020EC36FD20EC46FEBDE4AD028
:10026C00000E0001C26F020EC36FE20EC46FE2DE1D
:10027C0041D0000E0001C26F020EC36FF20EC46FAC
:10028C00D9DE38D00001C0510B0AD8B46CD7C0519C
:10029C000C0AD8B470D7C0510D0AD8B475D7C05158
:1002AC000E0AD8B47AD7C0510F0AD8B47FD7C05130
:1002BC00100AD8B484D7C051110AD8B489D7C05108
:1002CC00120A8FE0C051130A95E0C051140A9BE04A
:1002DC00C051150AA1E0C051160AA7E0C051170A77
:1002EC00ADE0C051180AB3E0C051190AB9E0C051D1
:0802FC001A0ABFE0F0DE120057
:0C030400290E0D6E0D2EFED70000120019
:06031000000000001200D5
:10031600120E0C6EDA0E0D6E0D2EFED70C2EFCD7BD
:0403260000001200C1
:10032A0013D03E0E0001C26FC4DE800E0010000121
:10033A00C36F3E0EC26FABDE0ED03E0E0001C26F1F
:10034A00400EC36FA4DE07D00001C051010AE9E0E4
:08035A00C051020AF2E012009A
:100362004ED03A0E0001C26FA8DE800E00100001CE
:10037200C36FDF0EC3173A0EC26F8DDE3F0E000150
:10038200C26F600EC36F87DE44D03A0E0001C26FA7
:1003920094DE400E00100001C36F7F0EC3173A0EA9
:1003A200C26F79DE3A0E0001C26F87DE380E00108E
:1003B2000001C36FFB0EC3173A0EC26F6CDE29D069
:1003C2003A0E0001C26F79DEC00E00100001C36F49
:1003D2003A0EC26F60DE3A0E0001C26F6EDE380E58
:1003E20000100001C36FFB0EC3173A0EC26F53DE3B
:1003F2003F0E0001C26F600EC36F4DDE0AD00001D6
:10040200C051010AAEE0C051020ABFE0C051030A66
:04041200D7E012001D
:10041600180E0001C26F980EC36F3BDE2E0E000150
:10042600C26F950EC36F35DE010E0001C26F020E5C
:10043600C36F010EC46F01DE77DE060E0001C26FC8
:10044600020EC36F900EC46FF8DD070E0001C26F77
:10045600020EC36F800EC46FF0DD080E0001C26F7E
:10046600020EC36F100EC46FE8DD200E0001C26FCE
:0C047600020EC36F210EC46FE0DD120007
:10048200C9DF010E0001C06F6BDF020E0001C06FF9
:100492004BDF55DE0B0E0001C06F57DE21DE12006E
:1004A2000001C26B0ADE080E00100001C36FC26BAE
:1004B200F2DD110E0001C26F00DEDF0E001400013A
:1004C200C36F110EC26FE7DD100E0001C26FFF0E87
:0604D200C36FE1DD120022
:1004D8002E0E00018B6F000E8C6FC60E8D6F000EF6
:1004E8008E6F1C0E8F6F000E906FC60E916F000EF0
:1004F800926F949A94969488C66ABC51C612BE515B
:10050800C612BD51C712BE5305E0BF51000A01E132
:0E051800C78C03D0BF5301E0C78CC68A120007
:100526008B84110E0C6E3A0E0D6E0D2EFED70C2E10
:06053600FCD700001200DA
:10053C00000E0001BC5D04E3BC511F0801E302D0B6
:10054C001F0EBC6FBC511F08006E00C0BCF01F0E0C
:10055C000014026E02C000F00036009000360090CD
:10056C0000360090F80E001600C0BCF0030EC26FEF
:0C057C00020EC36F00C0C4F05DDD120071
:10058800969296949598959A959C959E8492849423
:10059800839E839C839A8398BADEB9DEB8DE838A09
:1005A80083888482B1DE8492B2DE8482ADDE849256
:1005B800AEDE8482A9DE8492AADE83988482A4DED9
:1005C8008492A5DE8482A0DE8492839A838E8482BC
:1005D8009BDE84929CDE839E8388848295DE84924F
:1005E8008398848291DE849292DE84828DDE849266
:1005F8008388848289DE84928ADE8398848284DE7A
:100608008492838E838C838A838884827DDE84921D
:080618007EDE00019381120057
:0E0620002A0E0001C26F070EC36F36DD1200F6
:10062E008B940D0E0001C26F42DD600E00100001B2
:10063E00C36F0D0EC26F29DD220E0001C26F37DDB2
:10064E00800E00100001C36F220EC26F1EDD12005D
:10065E000001BE6BBF6B8B90030E026EBCC000F030
:10066E00BDC001F0025007E001320032019E01BC14
:10067E00018EFF0FF8D77F0E0014C66FC68F050EC2
:10068E00006EBCC0BEF0005004E0BE37BE91FF0F3E
:10069E00FBD7E00EBE17BBDCBEC0C6F0B8DCBFC0D9
:0806AE00C6F0BEDC8B801200D7
:1006B600030E0001C26FBCC0E9FFBDC0EAFFEECF6A
:1006C600C3F0E7DC040E0001C26F010EBC25E96E23
:0E06D600000EBD21EA6EEECFC3F0DBDC120099
:1006E4000001BCBF02D0839E01D0838EBCBD02D06A
:1006F400839C01D0838CBCBB02D0839A01D0838AB3
:10070400BCB902D0839801D0838893B102D0848489
:1007140001D084948482FADD8492BCB702D0839E93
:1007240001D0838EBCB502D0839C01D0838CBCB332
:1007340002D0839A01D0838ABCB102D0839801D0BD
:10074400838893B102D0848401D084948482DEDDD2
:0E075400849293A102D0DDDD01D0D2DD12002F
:1007620020D00001C26BA9DC000E00140001C36F8F
:10077200C26B91DC20D00001C26B9FDC000E001422
:100782000001C36FC383C26B86DC15D00001C26B4C
:1007920094DC000E00140001C36FC381C26B7BDCCA
:1007A2000AD00001BC51010ADCE0BC51020AE3E0BC
:0807B200BC51030AEBE0120048
:1007BA0033D00D0E0001C26F7CDC000E0014000164
:1007CA00C36F0D0EC26F63DC34D00D0E0001C26F11
:1007DA0070DC000E00140001C36FC3870D0EC26FD8
:1007EA0056DC27D00D0E0001C26F63DC000E001428
:1007FA000001C36FC3850D0EC26F49DC1AD00D0EFE
:10080A000001C26F56DC000E00140001C36FC383DF
:10081A000D0EC26F3CDC0DD00001BC51010AC9E0CB
:10082A00BC51020AD2E0BC51030ADCE0BC51040A02
:04083A00E6E01200E2
:0E083E001B0E0001C26F050EC36F27DC1200F7
:10084C00010E0001C26FBCC0E9FFBDC0EAFFEECFD4
:10085C00C3F01CDC020E0001C26F010EBC25E96E58
:0E086C00000EBD21EA6EEECFC3F010DC1200CC
:10087A000001BE6BBE6B800EBE19006E800E080AA8
:10088A00005C12E2BE51050FC26FBE51BC25E96E73
:10089A00000EBEBFFF0EBD21EA6EEECFC3F04CECD8
:0A08AA0000F00001BE2BE7D712009A
:1008B4008B92110E0C6E3A0E0D6E0D2EFED70C2E71
:1008C400FCD700008B82110E0C6E3A0E0D6E0D2EAD
:0A08D400FED70C2EFCD70000120026
:1008DE000001B86B796A7A6A586A000E566E030E7A
:1008EE00576E506A516AB86B800EB819006E800E42
:1008FE00020A005C32E2540EE16E000EE26EB85156
:10090E00E126000EB8BFFF0EE222010EE66E210EAA
:10091E00E16E000EE26EB851E126000EB8BFFF0E7A
:10092E00E222020EE66E520EE16E000EE26EB8513B
:10093E00E126000EB8BFFF0EE222030EE66E1F0E7A
:10094E00E16E000EE26EB851E126000EB8BFFF0E4A
:10095E00E222030EE66EB82BC7D7B86B800EB8191D
:10096E00006E800E080A005C1AE2950EE16E000E13
:10097E00E26EB851E126000EB8BFFF0EE222010E64
:10098E00E66E9D0EE16E000EE26EB851E126000E8F
:10099E00B8BFFF0EE222020EE66EB82BDFD70F0EA7
:1009AE00C16EF29E926A936A946A956A949094923A
:1009BE00948C9494406A416A426A436A446A836A98
:1009CE008C6A310E0C6EB20E0D6E0D2EFED70C2EE5
:1009DE00FCD70000D2DD010EBC6F7DDE0C0EBC6FAD
:1009EE007ADEBC6BBD6BBE6B010EBF6F6EDD5BDF67
:1009FE0010DE71EC00F014DE9D0E0001BC6F000ED7
:100A0E00BD6F34DF210EBC6F000EBD6F4DDE1F0EAD
:100A1E000001BC6F000EBD6F12DF2CDD3BDD1F0E23
:100A2E000001BC6F84DD010E0001BC6FBFDE010E44
:0A0A3E000001BC6F8FDE70DD1200B6
:100A48000900F5CFE6FF0006FBE10106F9E1120017
:100A580010D0800E0001B86F1AD0C00EB86F17D032
:100A6800940EB86F14D0D40EB86F11D0800EB86F32
:100A78000ED00001B851010AECE0B851020AEDE0CD
:100A8800B851030AEDE0B851040AEDE0EFD7B90513
:100A9800006EB851002600C0B8F0938100C0BCF0C9
:0E0AA8001DDE9391BAC0BCF019DE93811200DE
:100AB6000001B86BB96BBA6BBA6B050EBA5D0AE288
:100AC600000E82BC010EB86FB851010A01E1B92BC4
:100AD600BA2BF3D7B951020803E2010E006E1200D9
:040AE600006A120090
:100AEA00A6A202D00000FCD7A69CB8C0A9FFB9C034
:100AFA00A8FFA69EA684F2CF00F0F29E550EA76E1E
:100B0A00AA0EA76EA68200BE02D0F29E01D0F28E75
:040B1A00A69412008B
:100B1E000001B86BB96B390EC26F5EEC00F0040EBB
:100B2E0000100001C36F390EC26F4CEC00F00001D3
:100B3E00B86BB96B800EB919006E800E005C02E1C5
:100B4E00800EB85D33E2800EB919006E800E005C27
:100B5E0002E1200EB85D13E2590EB825BA6F000EF1
:100B6E00B921BB6FB8515624BC6FB9515720BD6F18
:100B7E006FDDBAC0E1FFBBC0E2FF00C0E6FF800E32
:100B8E000001B919006E800E005C02E1200EB85D06
:100B9E0009E3B8515624BC6FB9515720BD6F58DDCB
:100BAE0000C058F00001B84BB92BC4D75CC016F08A
:100BBE0065C07BF066C07CF067C07DF068C07EF0DB
:100BCE0069C07FF06AC080F06BC081F06CC082F0AB
:100BDE006DC083F06EC084F06FC085F070C086F07B
:100BEE0071C087F072C088F073C089F074C08AF04B
:100BFE0077C079F078C07AF0390EC26F5EEC00F0F3
:100C0E00000E00140001C36F390EC26F4CEC00F0E1
:020C1E001200C2
:100C20000001B86BB96B0B0E236E1B0E246E210EE8
:100C3000256E880E266E15C027F020C028F01FC034
:100C400029F021C02AF022C02BF052C02CF053C052
:100C50002DF054C02EF055C02FF040C030F041C0F0
:100C600031F042C032F043C033F044C034F045C0EC
:100C700035F046C036F047C037F048C038F049C0BC
:100C800039F04AC03AF04BC03BF04CC03CF04DC08C
:100C90003DF04EC03EF04FC03FF0B86BB96B800ED8
:100CA000B919006E800E005C02E11D0EB85D14E201
:100CB000B8515024C26FB9515120C36F230EB825CB
:100CC000E96E000EB921EA6EEECFC4F020EC00F020
:0C0CD0000001B84BB92BE3D7B2DD1200D5
:100CDC0082EC07F0E80EF66E0E0EF76E000EF86E54
:100CEC00A50EE16E000EE26E110E006E010E016E8D
:100CFC00A5DEEFDD8FDF000E0001A71902E1320E39
:100D0C00A61916E1A551020A06E1ACC0B8F015C04F
:100D1C00B9F0E5DE06D0ACC0B8F0FF0E0001B96F3B
:100D2C00DEDE0001A66BA76B010EA56FAC2B156A5E
:100D3C00AC51FF0A02E1030EA56FA551000AD8A41D
:100D4C006AD0020EB86F050EB96F620EBA6F7EDEF6
:100D5C00ACDE0050000A0FE1310EC26F5EEC00F009
:100D6C0000C094F0D6DE8AC0B5F07CC0B4F0010EA1
:100D7C000001A96F50D0800E006E800EA9BF7F0EAF
:100D8C00005C02E1A95100081FE2030E0C6EF50E87
:100D9C000D6E0D2EFED70C2EFCD7A92BA951070AD0
:100DAC0012E1010EA56F95DD35DF020E0001B86F63
:100DBC00010EB96F620EBA6F49DE2CDF020E000114
:100DCC00A56FA64BA72B27D0030E0C6EF50E0D6E40
:100DDC000D2EFED70C2EFCD7B64BB72B010EB86FD1
:100DEC00050EB96F430EBA6F31DE000EB71902E172
:100DFC000C0EB61910E10EDF040E0C6E3D0E0D6ECE
:100E0C000D2EFED70C2EFCD700000000010E0001A9
:100E1C00A56FA64BA72BA551010A50E11E0E0C6E17
:100E2C00370E0D6E0D2EFED70C2EFCD7330E406EEA
:100E3C0017C041F019C042F01BC043F01DC044F074
:100E4C00E9DE240E0001C26F5EEC00F000C0ABF0D6
:100E5C000001A64BA72B152A010E0014016E000EE3
:100E6C0001BEFF0E006E000E001802E1000E01180C
:100E7C000EE1A56BA96BB66BB76B2BDD010E0001F8
:100E8C00B86F010EB96F610EBA6FE0DD17D0010EAD
:100E9C00AB15016E0150010A11E1010EBC6F1CDC97
:100EAC00010EB86F010EB96FB5C0BAF0CFDD010EEF
:100EBC00B86F020EB96FB4C0BAF0C8DDA551020A02
:100ECC000BE1210E0C6E760E0D6E0D2EFED70C2E38
:0C0EDC00FCD70000A64BA72B0ED7FFD7B9
:100F040010EE15F00A0E006E010E016EF90EF66E6B
:0E0F14000E0EF76E000EF86E24EC05F01200C3
:010EE8000108
:020EE900000007
:010EEB000006
:010EEC000005
:010EED000004
:010EEE000102
:010EEF000002
:010EF0000001
:010EF1000000
:010EF20000FF
:010EF30000FE
:010EF40000FD
:010EF500FFFD
:010EF60000FB
:010EF70000FA
:010EF80000F9
:010EF90000F8
:010EFA0000F7
:020EFB003200C3
:020EFD003000C3
:020EFF000000F1
:020F01000000EE
:020000040030CA
:0D000100021F1EFF8381FF0FC00FE00F40A4
:00000001FF
