:100000004EEF07F00000000000EF00F000000000DD
:0A0010000000000000000000F3D71C
:10001C00AAC0C9FFC7B002D00000FCD7C9CF00F0FE
:02002C001200C0
:10002E00AAC0C9FFC7B002D00000FCD7C9CF00F0EC
:02003E001200AE
:100040008B90A6C000F0003600907F0E0016008056
:1000500000C0A6F000C0AAF0EADFA7C0AAF0E7DF60
:040060008B8012007F
:100064000001A76B8B90A6C000F0003600907E0EB6
:10007400001600C0A6F000C0AAF0D7DFA7C0AAF0FF
:06008400CBDF8B801200AF
:10008A000001A96B8B90030E026EA6C000F0A7C0F8
:10009A0001F0025007E001320032019E01BC018EDC
:1000AA00FF0FF8D77F0E0014AA6FAA8F050E006EF5
:1000BA00A6C0A9F0005004E0A937A991FF0FFBD709
:1000CA00E00EA917A989AEDFA9C0AAF0ABDFA8C0C4
:0800DA00AAF0A8DF8B801200E0
:1000E200110E0C6E100E0D6E0D2EFED70C2EFCD7BF
:0600F200000000001200F6
:0600F800000000001200F0
:1000FE000001A56B360EA66FAEDF00C0A5F0008422
:10010E0000C0A5F0360E0001A66F00C0A7F091DF6B
:10011E00000E0001A515006E00C0A5F0360EA66FEC
:10012E0000C0A7F086DF030E0C6EEB0E0D6E0D2ECB
:08013E00FED70C2EFCD71200C5
:10014600020E0001A66F020EA76F800EA86F9ADF3F
:02015600120095
:0A015800250E0D6E0D2EFED71200CD
:0C016200320E0001A66FA76B6ADF1200CE
:10016E00800E1A0A006E800E0001A419005C08E3CE
:10017E00800EA419006E800E0B0A005C01E302D003
:10018E000B0EA46F8FD0000EA66F020EA76F020E7D
:10019E00A86F74DFBFD0000E0001A66F020EA76F0E
:1001AE00120EA86F6BDFB6D0000E0001A66F020E06
:1001BE00A76F220EA86F62DFADD0000E0001A66FF2
:1001CE00020EA76F320EA86F59DFA4D0000E0001E9
:1001DE00A66F020EA76F420EA86F50DF9BD0000EC7
:1001EE000001A66F020EA76F520EA86F47DF92D0C6
:1001FE00000E0001A66F020EA76F620EA86F3EDF03
:10020E0089D0000E0001A66F020EA76F720EA86FA6
:10021E0035DF80D0000E0001A66F020EA76F820E92
:10022E00A86F2CDF77D0000E0001A66F020EA76F0D
:10023E00920EA86F23DF6ED0000E0001A66F020E85
:10024E00A76FA20EA86F1ADF65D0000E0001A66F71
:10025E00020EA76FB20EA86F11DF5CD0000E000168
:10026E00A66F020EA76FC20EA86F08DF53D0000E46
:10027E000001A66F020EA76FD20EA86FFFDE4AD046
:10028E00000E0001A66F020EA76FE20EA86FF6DE3B
:10029E0041D0000E0001A66F020EA76FF20EA86FDE
:1002AE00EDDE38D00001A4510B0AD8B46CD7A4519E
:1002BE000C0AD8B470D7A4510D0AD8B475D7A4516E
:1002CE000E0AD8B47AD7A4510F0AD8B47FD7A45146
:1002DE00100AD8B484D7A451110AD8B489D7A4511E
:1002EE00120A8FE0A451130A95E0A451140A9BE060
:1002FE00A451150AA1E0A451160AA7E0A451170AA9
:10030E00ADE0A451180AB3E0A451190AB9E0A45102
:08031E001A0ABFE0EDDE120037
:10032600086A096A100E0C6E013408360936045044
:10033600085E0550D8A0053C095ED8B007D0045029
:1003460008260550D8B0053C0926D8900036013657
:060356000C2EEAD7120094
:10035C0013D03E0E0001A66F7FDE800E0010000150
:10036C00A76F3E0EA66F66DE0ED03E0E0001A66F86
:10037C00400EA76F5FDE07D00001A451010AE9E02F
:08038C00A451020AF2E0120084
:10039400180E0001A66F980EA76F50DE2E0E0001F6
:1003A400A66F950EA76F4ADE010E0001A66F020E1E
:1003B400A76F010EA86F67DEC4DE060E0001A66FEC
:1003C400020EA76F900EA86F5EDE070E0001A66FE7
:1003D400020EA76F800EA86F56DE080E0001A66FEE
:1003E400020EA76F100EA86F4EDE200E0001A66F3E
:0C03F400020EA76F210EA86F46DE12005B
:100400000001A4BF02D0839E01D0838EA4BD02D080
:10041000839C01D0838CA4BB02D0839A01D0838AB1
:10042000A4B902D0839801D0838854B002D08484C8
:1004300001D08494848260DE8492A4B702D0839E2B
:1004400001D0838EA4B502D0839C01D0838CA4B349
:1004500002D0839A01D0838AA4B102D0839801D0BC
:10046000838854B002D0848401D08494848244DE92
:0E047000849254A002D035DE01D06EDE120060
:10047E004ED03A0E0001A66FEEDD800E0010000188
:10048E00A76FDF0EA7173A0EA66FD3DD3F0E000142
:10049E00A66F600EA76FCDDD44D03A0E0001A66F99
:1004AE00DADD400E00100001A76F7F0EA7173A0E7F
:1004BE00A66FBFDD3A0E0001A66FCDDD380E00101F
:1004CE000001A76FFB0EA7173A0EA66FB2DD29D05B
:1004DE003A0E0001A66FBFDDC00E00100001A76F1F
:1004EE003A0EA66FA6DD3A0E0001A66FB4DD380EE9
:1004FE0000100001A76FFB0EA7173A0EA66F99DD2D
:10050E003F0E0001A66F600EA76F93DD0AD00001AB
:10051E00A451010AAEE0A451020ABFE0A451030A9D
:04052E00D7E0120000
:0E0532002A0E0001A66F070EA76F81DD1200D2
:100540008B840F0E0C6E9B0E0D6E0D2EFED70C2E97
:04055000FCD71200C2
:100554008B940D0E0001A66F83DD600E0010000168
:10056400A76F0D0EA66F6ADD220E0001A66F78DD5F
:10057400800E00100001A76F220EA66F5FDD12002F
:100584000001A66B6DDD080E00100001A76FA66BBD
:1005940055DD110E0001A66F63DDDF0E00140001AE
:1005A400A76F110EA66F4ADD100E0001A66FFF0E95
:0605B400A76F44DD1200F8
:1005BA00000E00019D5D04E39D511F0801E302D076
:1005CA001F0E9D6F9D511F08006E00C09DF01F0EEB
:1005DA000014026E02C000F000360090003600904F
:1005EA0000360090F80E001600C09DF0030EA66FAC
:0C05FA00020EA76F00C0A8F043DD120045
:10060600969296949598959A959C959E84928494A4
:10061600839E839C839A839861DD60DD5FDD838A98
:100626008388848266DD849259DD848262DD8492C9
:1006360055DD84825EDD849251DD8398848259DDA6
:1006460084924CDD848255DD8492839A838E8482E3
:1006560050DD849243DD839E838884824ADD8492C2
:100666008398848246DD849239DD848242DD8492D9
:10067600838884823EDD849231DD8398848239DDED
:100686008492838E838C838A8388848232DD8492EB
:0606960025DD5480120076
:0E069C001B0E0001A66F050EA76FCCDC12002E
:1006AA00030E0001A66F9DC0E9FF9EC0EAFFEECFD0
:1006BA00A7F0C1DC040E0001A66F010E9D25E96EAC
:0E06CA00000E9E21EA6EEECFA7F0B5DC120006
:1006D8001C0E4C6E000E4D6EAA0E4E6E000E4F6E26
:1006E8002E0E506E000E516EAA0E526E000E536EF4
:1006F800949A94969488C66A00019D51C6129F5197
:10070800C6129E51C7129F5305E0A051000A01E18D
:0E071800C78C03D0A05301E0C78CC68A120024
:1007260000019F6B9F6B800E9F19006E800E080A5A
:10073600005C11E29F51050FA66F9F519D25E96E42
:10074600000E9FBFFF0E9E21EA6EEECFA7F075DC6E
:0807560000019F2BE8D71200FF
:10075E008B920F0E0C6E9B0E0D6E0D2EFED70C2E69
:10076E00FCD78B820F0E0C6E9B0E0D6E0D2EFED7D0
:06077E000C2EFCD7120056
:10078400010E0001A66F9DC0E9FF9EC0EAFFEECFF7
:10079400A7F054DC020E0001A66F010E9D25E96E40
:0E07A400000E9E21EA6EEECFA7F048DC120098
:1007B2000001A16B050EA15D0AE2A1519F25E16E28
:1007C200000EA021E26E200EE66EA12BF3D7A151FE
:1007D2009F25E16E000EA021E26EE66AA107A151FB
:1007E2009F25A26F000EA021A36F0A0E046E000EB9
:1007F200056E9DC000F09EC001F094DD08C000F0BF
:1008020009C001F0300E0026A2C0E1FFA3C0E2FF42
:1008120000C0E6FF0A0E046E000E056E9DC000F0D9
:100822009EC001F07FDD00C09DF001C09EF0000E71
:10083200011802E1000E001801E102D0A107CFD792
:020842001200A2
:100844003AD00D0E0001A66F0BDC000E001400015F
:10085400A76F0D0EA66F20EC00F03AD00D0E00012C
:10086400A66F32EC00F0000E00140001A76FA787FA
:100874000D0EA66F20EC00F02BD00D0E0001A66F1C
:1008840032EC00F0000E00140001A76FA7850D0ED6
:10089400A66F20EC00F01CD00D0E0001A66F32EC08
:1008A40000F0000E00140001A76FA7830D0EA66FC1
:1008B40020EC00F00DD000019D51010AC2E09D51D1
:1008C400020ACCE09D51030AD8E09D51040AE4E0F9
:0208D400120010
:1008D60000019F6BA06B8B90030E026E9DC000F013
:1008E6009EC001F0025007E001320032019E01BCB9
:1008F600018EFF0FF8D77F0E0014AA6FAA8F050E80
:10090600006E9DC09FF0005004E09F379F91FF0F3F
:10091600FBD7E00E9F1717EC00F09FC0AAF017EC6C
:0E09260000F0A0C0AAF00EEC00F08B801200D2
:0C09340054909DC0A4F062DD54801200BD
:1009400029DD010E0001A46F9ADD020E0001A46FE3
:1009500005DD07DC0B0E0001A46F09DC7FEC00F065
:02096000120083
:1009620026D00001A66B32EC00F0000E001400014C
:10097200A76FA66B20EC00F024D00001A66B32EC2E
:1009820000F0000E00140001A76FA783A66B20ECF5
:1009920000F017D00001A66B32EC00F0000E00143C
:1009A2000001A76FA781A66B20EC00F00AD000011E
:1009B2009D51010AD6E09D51020ADFE09D51030AD2
:0409C200E9E0120056
:1009C6000001936B4A6A4B6A640E496E366A000EE2
:1009D600346E030E356E2C6A2D6A936B800E931956
:1009E600006E800E020A005C32E2210EE16E000EFD
:1009F600E26E9351E126000E93BFFF0EE222010E36
:100A0600E66E250EE16E000EE26E9351E126000EB3
:100A160093BFFF0EE222020EE66E1F0EE16E000E7F
:100A2600E26E9351E126000E93BFFF0EE222030E03
:100A3600E66E230EE16E000EE26E9351E126000E85
:100A460093BFFF0EE222030EE66E932BC7D7936B7E
:100A5600800E9319006E800E080A005C1AE2560E8C
:100A6600E16E000EE26E9351E126000E93BFFF0E7B
:100A7600E222010EE66E5E0EE16E000EE26E93510C
:100A8600E126000E93BFFF0EE222020EE66E932BC6
:100A9600DFD70F0EC16EF29E926A936A946A956AC8
:100AA60094909492948C9494276A286A296A2A6A64
:100AB6002B6A836A8C6A2C0E0C6ED30E0D6E0D2E6D
:100AC600FED70C2EFCD7000000009ADD010EA46FA5
:100AD60094DC0C0EA46F91DC9D6B9E6B9F6B010EDC
:100AE600A06FF7DD39DE22DD7FEC00F030DD5E0E33
:100AF60000019D6F000E9E6F13DE250E9D6F000E8A
:100B06009E6FD0DD230E00019D6F000E9E6F37DEB7
:100B160014DF35DD1F0E00019D6F4CDD010E000157
:100B26009D6F8DDE010E00019D6F18DF06DD120040
:100B360010D0800E0001936F1AD0C00E936F17D09D
:100B4600940E936F14D0D40E936F11D0800E936FC2
:100B56000ED000019351010AECE09351020AEDE038
:100B66009351030AEDE09351040AEDE0EFD79405A3
:100B7600006E9351002600C093F0548000C0A4F08C
:0E0B86003CDC549095C0A4F038DC5480120082
:100B94000001936B946B390EA66F32EC00F0040ED7
:100BA40000100001A76F390EA66F20EC00F00001C1
:100BB400936B946B800E9419006E800E005C02E1BE
:100BC400800E935D33E2800E9419006E800E005CFB
:100BD40002E1150E935D13E2660E9325956F000EE8
:100BE4009421966F935134249D6F945135209E6FB8
:100BF40070DE95C0E1FF96C0E2FF00C0E6FF800E04
:100C040000019419006E800E005C02E1150E935DE4
:100C140009E3935134249D6F945135209E6F59DE1E
:100C240000C036F00001934B942BC4D769C02EF05A
:100C340072C02FF073C030F074C031F075C032F060
:100C440076C033F079C04AF07AC04BF0390EA66F03
:100C540032EC00F0000E00140001A76F390EA66FED
:060C640020EC00F012007C
:100C6A000900F5CFE6FF0006FBE10106F9E11200F3
:100C7A000001936B946B0B0E376E100E386E210EBB
:100C8A00396E880E3A6E49C03BF024C03CF023C04E
:100C9A003DF025C03EF026C03FF01FC040F020C006
:100CAA0041F021C042F022C043F027C044F028C0DE
:100CBA0045F029C046F02AC047F02BC048F0936B94
:100CCA00946B800E9419006E800E005C02E1120E85
:100CDA00935D14E293512C24A66F94512D20A76F93
:100CEA00370E9325E96E000E9421EA6EEECFA8F036
:100CFA0045EC00F00001934B942BE3D7CADC1200B9
:100D0A0010D0800E0001936F1AD0C00E936F17D0C7
:100D1A00940E936F14D0D40E936F11D0800E936FEC
:100D2A000ED000019351010AECE09351020AEDE062
:100D3A009351030AEDE09351040AEDE0EFD79405CD
:100D4A00006E9351002600C093F000C0A4F000EC9E
:100D5A0002F05490976B97519525E96E000E9621F3
:100D6A00EA6EEE520BE097519525E96E000E962138
:100D7A00EA6EEECF9DF0D9DD972BEDD754801200A5
:100D8A000001936B946B956B956B050E955D0AE26A
:100D9A00000E82BC010E936F9351010A01E1942B5C
:100DAA00952BF3D79451020803E2010E006E12004C
:040DBA00006A1200B9
:100DBE000001996B9A6B93C09BF094C09CF0800ECF
:100DCE009419006E800E005C02E1000E935D0BE242
:100DDE00010E996F000E9A6F935100089B6F94C08D
:100DEE009CF0000E9C579BC09DF09CC09EF095C041
:100DFE009FF096C0A0F0D6DC060E976F000E986F8F
:100E0E00000E006E9851005C02E19751000819E245
:100E1E0097519525E16E98519621E26E010E975DE0
:100E2E00006E000E9859016E00509525E96E015026
:100E3E009621EA6EEECFE6FF010E975F000E985BED
:100E4E00DFD795C0E1FF96C0E2FF200EE66E995106
:100E5E009A111CE0976B986B97519525E96E9851F6
:100E6E009621EA6EEECF01F00150200A03E1974B76
:100E7E00982BF2D7010E975F000E985B9751952530
:0E0E8E00E16E98519621E26E2D0EE66E120076
:100E9C00320E156E166A300E176E186A310E196EF8
:100EAC001A6A1B6A1C6A1D6A1E6A7B6A7C6A7D6AE6
:100EBC007E6A7F6A0001806B816B7FDD7B50000A4C
:100ECC001DE15DDF0050000A19E1310EA66F32EC16
:100EDC0000F000C055F058DE2EC07FF02FC081F01E
:100EEC0030C080F07E502E1801E106D000018151F7
:100EFC00FF0A02E0020E7B6E7FC07EF07B50010A7F
:100F0C0043E10C0E0B6E6B0E0C6E090E0D6E0D2E5E
:100F1C00FED70C2EFCD70B2EFAD70000000019C000
:100F2C0027F015C028F017C029F01BC02AF01DC0EF
:100F3C002BF09DDE240E0001A66F32EC00F000C0F9
:100F4C0082F0010E0014016E000E01BEFF0E006E49
:100F5C00000E001802E1000E011816E182C093F099
:100F6C00000E000182BFFF0E946F830E956F000E72
:100F7C00966F1FDF010E936F010E946F830E956FAA
:100F8C00000E966FBCDE7B6A7B50020A22E10001E8
:100F9C00010E936F010E946F81C095F0C6DD010EAA
:100FAC00936F020E946F80C095F0BFDD7FC093F0FD
:100FBC00000E946F830E956F000E966FFADE020E84
:100FCC00936F010E946F830E956F000E966F97DEE4
:060FDC007B6A74D7FFD709
:020000040030CA
:0D000100021F1EFF8381FF0FC00FE00F40A4
:00000001FF
