:100000006DEF06F00000000000EF00F000000000BF
:0A0010000000000000000000F3D71C
:10001C00CBC0C9FFC7B002D00000FCD7C9CF00F0DD
:02002C001200C0
:10002E00CBC0C9FFC7B002D00000FCD7C9CF00F0CB
:02003E001200AE
:100040000001CA6B8B90030E026EC7C000F0C8C0DF
:1000500001F0025007E001320032019E01BC018E26
:10006000FF0FF8D77F0E0014CB6FCB8F050E006EFD
:10007000C7C0CAF0005004E0CA37CA91FF0FFBD7CF
:10008000E00ECA17CA89CADFCAC0CBF0C7DFC9C031
:08009000CBF0C4DF8B801200ED
:100098008B90C7C000F0003600907F0E00160080DD
:1000A80000C0C7F000C0CBF0B5DFC8C0CBF0B2DFEE
:0400B8008B80120027
:1000BC000001C86B8B90C7C000F0003600907E0E1C
:1000CC00001600C0C7F000C0CBF0A2DFC8C0CBF058
:0600DC00A8DF8B8012007A
:1000E2000001C66B360EC76FE8DF00C0C6F00084A1
:1000F20000C0C6F0360E0001C76F00C0C8F0CBDFEB
:10010200000E0001C615006E00C0C6F0360EC76FA5
:1001120000C0C8F0C0DF040E0C6E3D0E0D6E0D2E39
:0C012200FED70C2EFCD7000000001200DD
:10012E00020E0001C76F020EC86F800EC96F81DF0D
:02013E001200AD
:0C014000320E0001C76FC86BA7DF120071
:10014C00800E1A0A006E800E0001C519005C08E3CF
:10015C00800EC519006E800E0B0A005C01E302D004
:10016C000B0EC56F8FD0000EC76F020EC86F020E3C
:10017C00C96F60DFBFD0000E0001C76F020EC86FE1
:10018C00120EC96F57DFB6D0000E0001C76F020EFA
:10019C00C86F220EC96F4EDFADD0000E0001C76FC5
:1001AC00020EC86F320EC96F45DFA4D0000E0001DD
:1001BC00C76F020EC86F420EC96F3CDF9BD0000E9A
:1001CC000001C76F020EC86F520EC96F33DF92D099
:1001DC00000E0001C76F020EC86F620EC96F2ADFD6
:1001EC0089D0000E0001C76F020EC86F720EC96F66
:1001FC0021DF80D0000E0001C76F020EC86F820E87
:10020C00C96F18DF77D0000E0001C76F020EC86FE0
:10021C00920EC96F0FDF6ED0000E0001C76F020E79
:10022C00C86FA20EC96F06DF65D0000E0001C76F44
:10023C00020EC86FB20EC96FFDDE5CD0000E00015D
:10024C00C76F020EC86FC20EC96FF4DE53D0000E1A
:10025C000001C76F020EC86FD20EC96FEBDE4AD019
:10026C00000E0001C76F020EC86FE20EC96FE2DE0E
:10027C0041D0000E0001C76F020EC86FF20EC96F9D
:10028C00D9DE38D00001C5510B0AD8B46CD7C55192
:10029C000C0AD8B470D7C5510D0AD8B475D7C5514E
:1002AC000E0AD8B47AD7C5510F0AD8B47FD7C55126
:1002BC00100AD8B484D7C551110AD8B489D7C551FE
:1002CC00120A8FE0C551130A95E0C551140A9BE040
:1002DC00C551150AA1E0C551160AA7E0C551170A68
:1002EC00ADE0C551180AB3E0C551190AB9E0C551C2
:0802FC001A0ABFE0F0DE120057
:0C030400290E0D6E0D2EFED70000120019
:06031000000000001200D5
:10031600120E0C6EDA0E0D6E0D2EFED70C2EFCD7BD
:0403260000001200C1
:10032A0013D03E0E0001C76FC4DE800E001000011C
:10033A00C86F3E0EC76FABDE0ED03E0E0001C76F10
:10034A00400EC86FA4DE07D00001C551010AE9E0DA
:08035A00C551020AF2E0120095
:100362004ED03A0E0001C76FA8DE800E00100001C9
:10037200C86FDF0EC8173A0EC76F8DDE3F0E000141
:10038200C76F600EC86F87DE44D03A0E0001C76F98
:1003920094DE400E00100001C86F7F0EC8173A0E9F
:1003A200C76F79DE3A0E0001C76F87DE380E001084
:1003B2000001C86FFB0EC8173A0EC76F6CDE29D05A
:1003C2003A0E0001C76F79DEC00E00100001C86F3F
:1003D2003A0EC76F60DE3A0E0001C76F6EDE380E4E
:1003E20000100001C86FFB0EC8173A0EC76F53DE2C
:1003F2003F0E0001C76F600EC86F4DDE0AD00001CC
:10040200C551010AAEE0C551020ABFE0C551030A57
:04041200D7E012001D
:10041600180E0001C76F980EC86F3BDE2E0E000146
:10042600C76F950EC86F35DE010E0001C76F020E4D
:10043600C86F010EC96F01DE77DE060E0001C76FB9
:10044600020EC86F900EC96FF8DD070E0001C76F68
:10045600020EC86F800EC96FF0DD080E0001C76F6F
:10046600020EC86F100EC96FE8DD200E0001C76FBF
:0C047600020EC86F210EC96FE0DD1200FD
:10048200C9DF010E0001C56F6BDF020E0001C56FEF
:0E0492004BDF55DE1BC0C5F058DE22DE120027
:1004A0000001C76B0BDE080E00100001C86FC76BA0
:1004B000F3DD110E0001C76F01DEDF0E0014000135
:1004C000C86F110EC76FE8DD100E0001C76FFF0E79
:0604D000C86FE2DD12001E
:1004D6002E0E00018C6F000E8D6FCB0E8E6F000EF0
:1004E6008F6F1C0E906F000E916FCB0E926F000EE9
:1004F600936F949A94969488C66AC151C612C35152
:10050600C612C251C712C35305E0C451000A01E125
:0E051600C78C03D0C45301E0C78CC68A120004
:100524008B84110E0C6E3A0E0D6E0D2EFED70C2E12
:06053400FCD700001200DC
:10053A00000E0001C15D04E3C1511F0801E302D0AE
:10054A001F0EC16FC1511F08006E00C0C1F01F0EFF
:10055A000014026E02C000F00036009000360090CF
:10056A0000360090F80E001600C0C1F0030EC76FE7
:0C057A00020EC86F00C0C9F05EDD120068
:10058600969296949598959A959C959E8492849425
:10059600839E839C839A8398BBDEBADEB9DE838A08
:1005A60083888482B2DE8492B3DE8482AEDE849255
:1005B600AFDE8482AADE8492ABDE83988482A5DED7
:1005C6008492A6DE8482A1DE8492839A838E8482BC
:1005D6009CDE84929DDE839E8388848296DE84924E
:1005E6008398848292DE849293DE84828EDE849265
:1005F600838884828ADE84928BDE8398848285DE79
:100606008492838E838C838A838884827EDE84921E
:080616007FDE00019481120057
:0E061E002A0E0001C76F070EC86F37DD1200ED
:10062C008B940D0E0001C76F43DD600E00100001AE
:10063C00C86F0D0EC76F2ADD220E0001C76F38DDA3
:10064C00800E00100001C86F220EC76F1FDD120054
:10065C000001C36BC46B8B90030E026EC1C000F023
:10066C00C2C001F0025007E001320032019E01BC11
:10067C00018EFF0FF8D77F0E0014CB6FCB8F050EBA
:10068C00006EC1C0C3F0005004E0C337C391FF0F2C
:10069C00FBD7E00EC317BCDCC3C0CBF0B9DCC4C0C5
:0806AC00CBF0BFDC8B801200D3
:1006B400030E0001C76FC1C0E9FFC2C0EAFFEECF5D
:1006C400C8F0E8DC040E0001C76F010EC125E96E15
:0E06D400000EC221EA6EEECFC8F0DCDC120090
:1006E2000001C1BF02D0839E01D0838EC1BD02D062
:1006F200839C01D0838CC1BB02D0839A01D0838AB0
:10070200C1B902D0839801D0838894B102D0848485
:1007120001D084948482FBDD8492C1B702D0839E8F
:1007220001D0838EC1B502D0839C01D0838CC1B32A
:1007320002D0839A01D0838AC1B102D0839801D0BA
:10074200838894B102D0848401D084948482DFDDD2
:0E075200849294A102D0DEDD01D0D3DD12002E
:1007600020D00001C76BAADC000E00140001C86F86
:10077000C76B92DC20D00001C76BA0DC000E001418
:100780000001C86FC883C76B87DC15D00001C76B39
:1007900095DC000E00140001C86FC881C76B7CDCBB
:1007A0000AD00001C151010ADCE0C151020AE3E0B4
:0807B000C151030AEBE0120045
:1007B80033D00D0E0001C76F7DDC000E0014000160
:1007C800C86F0D0EC76F64DC34D00D0E0001C76F03
:1007D80071DC000E00140001C86FC8870D0EC76FCA
:1007E80057DC27D00D0E0001C76F64DC000E001423
:1007F8000001C86FC8850D0EC76F4ADC1AD00D0EF0
:100808000001C76F57DC000E00140001C86FC883D1
:100818000D0EC76F3DDC0DD00001C151010AC9E0C2
:10082800C151020AD2E0C151030ADCE0C151040AF5
:04083800E6E01200E4
:0E083C001B0E0001C76F050EC86F28DC1200EE
:10084A00010E0001C76FC1C0E9FFC2C0EAFFEECFC7
:10085A00C8F01DDC020E0001C76F010EC125E96E4A
:0E086A00000EC221EA6EEECFC8F011DC1200C3
:100878000001C36BC36B800EC319006E800E080A9B
:10088800005C12E2C351050FC76FC351C125E96E61
:10089800000EC3BFFF0EC221EA6EEECFC8F04CECCB
:0A08A80000F00001C32BE7D7120097
:1008B2008B92110E0C6E3A0E0D6E0D2EFED70C2E73
:1008C200FCD700008B82110E0C6E3A0E0D6E0D2EAF
:0A08D200FED70C2EFCD70000120028
:1008DC000001BD6B8B6B5D6A3A6A000E5B6E030E9A
:1008EC005C6E266A276ABD6B800EBD19006E800E89
:1008FC00020A005C32E2280EE16E000EE26EBD517F
:10090C00E126000EBDBFFF0EE222010EE66E200EA8
:10091C00E16E000EE26EBD51E126000EBDBFFF0E72
:10092C00E222020EE66E220EE16E000EE26EBD5168
:10093C00E126000EBDBFFF0EE222030EE66E240E72
:10094C00E16E000EE26EBD51E126000EBDBFFF0E42
:10095C00E222030EE66EBD2BC7D7BD6B800EBD1910
:10096C00006E800E080A005C1AE2960EE16E000E14
:10097C00E26EBD51E126000EBDBFFF0EE222010E5C
:10098C00E66E9E0EE16E000EE26EBD51E126000E8B
:10099C00BDBFFF0EE222020EE66EBD2BDFD70F0E9F
:1009AC00C16EF29E926A936A946A956A949094923C
:1009BC00948C94942A6A2B6A2C6A2D6A2E6A836A08
:1009CC008C6A310E0C6EB20E0D6E0D2EFED70C2EE7
:1009DC00FCD70000D2DD010EC16F7DDE0C0EC16FA5
:1009EC007ADEC16BC26BC36B010EC46F6EDD5BDF55
:1009FC0010DE71EC00F014DE9E0E0001C16F000ED3
:100A0C00C26F34DF200EC16F000EC26F4DDE240E9C
:100A1C000001C16F000EC26F12DF2DDD3BDD1F0E1A
:100A2C000001C16F84DD010E0001C16FBFDE010E3C
:0A0A3C000001C16F8FDE70DD1200B3
:100A46000900F5CFE6FF0006FBE10106F9E1120019
:100A560010D0800E0001BD6F1AD0C00EBD6F17D02A
:100A6600940EBD6F14D0D40EBD6F11D0800EBD6F25
:100A76000ED00001BD51010AECE0BD51020AEDE0C5
:100A8600BD51030AEDE0BD51040AEDE0EFD7BE0506
:100A9600006EBD51002600C0BDF0948100C0C1F0BB
:0E0AA6001DDE9491BFC0C1F019DE94811200D4
:100AB4000001BD6BBE6BBF6BBF6B050EBF5D0AE271
:100AC400000E82BC010EBD6FBD51010A01E1BE2BB7
:100AD400BF2BF3D7BE51020803E2010E006E1200D1
:040AE400006A120092
:100AE800A6A202D00000FCD7A69CBDC0A9FFBEC02C
:100AF800A8FFA69EA684F2CF00F0F29E550EA76E20
:100B0800AA0EA76EA68200BE02D0F29E01D0F28E77
:040B1800A69412008D
:100B1C000001BD6BBE6B390EC76F5EEC00F0040EAE
:100B2C0000100001C86F390EC76F4CEC00F00001CB
:100B3C00BD6BBE6B800EBE19006E800E005C02E1B8
:100B4C00800EBD5D33E2800EBE19006E800E005C1F
:100B5C0002E1200EBD5D13E23B0EBD25BF6F000E02
:100B6C00BE21C06FBD515B24C16FBE515C20C26FF2
:100B7C006FDDBFC0E1FFC0C0E2FF00C0E6FF800E2A
:100B8C000001BE19006E800E005C02E1200EBD5DFE
:100B9C0009E3BD515B24C16FBE515C20C26F58DDAF
:100BAC0000C03AF00001BD4BBE2BC4D73EC016F0BE
:100BBC0047C07BF048C07CF049C07DF04AC07EF055
:100BCC004BC07FF04CC080F04DC081F04EC082F025
:100BDC004FC083F050C084F051C085F052C086F0F5
:100BEC0053C087F054C088F055C089F056C08AF0C5
:100BFC0059C08BF05AC05DF0390EC76F5EEC00F037
:100C0C00000E00140001C86F390EC76F4CEC00F0D9
:020C1C001200C4
:100C1E000001BD6BBE6B0B0E5E6E1B0E5F6E210E6A
:100C2E00606E880E616E15C062F025C063F024C040
:100C3E0064F020C065F021C066F022C067F023C0CA
:100C4E0068F028C069F029C06AF02AC06BF02BC08A
:100C5E006CF02CC06DF02DC06EF02EC06FF02FC05A
:100C6E0070F030C071F031C072F032C073F033C02A
:100C7E0074F034C075F035C076F036C077F037C0FA
:100C8E0078F038C079F039C07AF0BD6BBE6B800E4B
:100C9E00BE19006E800E005C02E11D0EBD5D14E2F9
:100CAE00BD512624C76FBE512720C86F5E0EBD25CD
:100CBE00E96E000EBE21EA6EEECFC9F020EC00F018
:0C0CCE000001BD4BBE2BE3D7B2DD1200CD
:100CDA00A8EC07F0300EF66E0F0EF76E000EF86EE7
:100CEA00A60EE16E000EE26E150E006E010E016E8A
:100CFA00A5DEEFDD8FDF8EDF000E0001AA1902E10B
:100D0A003E0EA91916E1A651020A06E1AFC0BDF0CE
:100D1A0015C0BEF0E4DE06D0AFC0BDF0F00E000193
:100D2A00BE6FDDDE0001A96BAA6B010EA66FAF2BA9
:100D3A00156AAF51FF0802E2030EA66F000EA8194A
:100D4A0002E1640EA7190EE11B501A0A05E10B0E07
:100D5A001B6EA76BA86B03D01B2AA76BA86BB9DD08
:100D6A0059DF58DF0001A651000AD8A473D0020E39
:100D7A00BD6F050EBE6F620EBF6F68DE96DE005055
:100D8A00000A13E1310EC76F5EEC00F000C095F067
:100D9A00C0DE7BC0BAF07CC0B9F08AC01BF0010E7D
:100DAA000001AC6FA76BA86B55D0800E006E800E49
:100DBA00ACBF7F0E005C02E1AC51000824E2030ED6
:100DCA000C6EF50E0D6E0D2EFED70C2EFCD7AC2B2D
:100DDA00AC51070A17E1010EA66F7BDD030E000175
:100DEA00A927000EAA2316DF020E0001BD6F010E0D
:100DFA00BE6F620EBF6F2ADE0DDF020E0001A66F04
:100E0A00A94BAA2B27D0030E0C6EF50E0D6E0D2ED4
:100E1A00FED70C2EFCD7BB4BBC2B010EBD6F050EAB
:100E2A00BE6F430EBF6F12DE000EBC1902E10C0E3C
:100E3A00BB1910E1EFDE040E0C6E3D0E0D6E0D2E89
:100E4A00FED70C2EFCD700000000010E0001A66F91
:100E5A00A94BAA2BA651010A57E11E0E0C6E370E9A
:100E6A000D6E0D2EFED70C2EFCD7330E2A6E17C030
:100E7A002BF019C02CF01CC02DF01EC02EF0CADEBB
:100E8A00240E0001C76F5EEC00F000C0AEF0000156
:100E9A00A74BA82BA94BAA2B152A010E0014016EE9
:100EAA00000E01BEFF0E006E000E001802E1000ED9
:100EBA00011812E1A66BAC6BBB6BBC6B0ADD030EAF
:100ECA000001A927000EAA23010EBD6F010EBE6FF5
:100EDA00610EBF6FBBDD18D0010EAE15016E015059
:100EEA00010A12E1010EC16F71EC03F0010EBD6F30
:100EFA00010EBE6FBAC0BFF0A9DD010EBD6F020EB2
:100F0A00BE6FB9C0BFF0A2DDA651020A0AE11E0EE9
:100F1A000C6E370E0D6E0D2EFED70C2EFCD7A94B7C
:060F2A00AA2BEAD6FFD756
:100F500010EE15F00B0E006E010E016E450EF66ED2
:0E0F60000F0EF76E000EF86E23EC05F0120077
:010F300001BF
:020F31000000BE
:020F33000000BC
:010F350000BB
:010F360000BA
:010F370000B9
:010F380001B7
:010F390000B7
:010F3A0000B6
:010F3B0000B5
:010F3C0000B4
:010F3D0000B3
:010F3E0000B2
:010F3F00FFB2
:010F400000B0
:010F410000AF
:010F420000AE
:010F430000AD
:010F440000AC
:010F450000AB
:010F460000AA
:020F4700320076
:020F4900300076
:010F4B000B9A
:020F4C000000A3
:020F4E000000A1
:020000040030CA
:0D000100021F1EFF8381FF0FC00FE00F40A4
:00000001FF
