:100000003AEF06F00000000000EF00F000000000F2
:0A0010000000000000000000F3D71C
:10001C0093C0C9FFC7B002D00000FCD7C9CF00F015
:02002C001200C0
:10002E0093C0C9FFC7B002D00000FCD7C9CF00F003
:02003E001200AE
:100040000001926B8B90030E026E8FC000F090C087
:1000500001F0025007E001320032019E01BC018E26
:10006000FF0FF8D77F0E0014936F938F050E006E6D
:100070008FC092F0005004E092379291FF0FFBD7AF
:10008000E00E92179289CADF92C093F0C7DF91C049
:0800900093F0C4DF8B80120025
:100098008B908FC000F0003600907F0E0016008015
:1000A80000C08FF000C093F0B5DF90C093F0B2DFCE
:0400B8008B80120027
:1000BC000001906B8B908FC000F0003600907E0E8C
:1000CC00001600C08FF000C093F0A2DF90C093F038
:0600DC00A8DF8B8012007A
:1000E20000018E6B360E8F6FE8DF00C08EF0008449
:1000F20000C08EF0360E00018F6F00C090F0CBDF93
:10010200000E00018E15006E00C08EF0360E8F6F4D
:1001120000C090F0C0DF040E0C6E3D0E0D6E0D2E71
:0C012200FED70C2EFCD7000000001200DD
:10012E00020E00018F6F020E906F800E916F81DFB5
:02013E001200AD
:0C014000320E00018F6F906BA7DF1200E1
:10014C00800E1A0A006E800E00018D19005C08E307
:10015C00800E8D19006E800E0B0A005C01E302D03C
:10016C000B0E8D6F8FD0000E8F6F020E906F020EE4
:10017C00916F60DFBFD0000E00018F6F020E906F89
:10018C00120E916F57DFB6D0000E00018F6F020E6A
:10019C00906F220E916F4EDFADD0000E00018F6F6D
:1001AC00020E906F320E916F45DFA4D0000E00014D
:1001BC008F6F020E906F420E916F3CDF9BD0000E42
:1001CC0000018F6F020E906F520E916F33DF92D041
:1001DC00000E00018F6F020E906F620E916F2ADF7E
:1001EC0089D0000E00018F6F020E906F720E916F0E
:1001FC0021DF80D0000E00018F6F020E906F820EF7
:10020C00916F18DF77D0000E00018F6F020E906F88
:10021C00920E916F0FDF6ED0000E00018F6F020EE9
:10022C00906FA20E916F06DF65D0000E00018F6FEC
:10023C00020E906FB20E916FFDDE5CD0000E0001CD
:10024C008F6F020E906FC20E916FF4DE53D0000EC2
:10025C0000018F6F020E906FD20E916FEBDE4AD0C1
:10026C00000E00018F6F020E906FE20E916FE2DEB6
:10027C0041D0000E00018F6F020E906FF20E916F45
:10028C00D9DE38D000018D510B0AD8B46CD78D5102
:10029C000C0AD8B470D78D510D0AD8B475D78D51BE
:1002AC000E0AD8B47AD78D510F0AD8B47FD78D5196
:1002BC00100AD8B484D78D51110AD8B489D78D516E
:1002CC00120A8FE08D51130A95E08D51140A9BE0B0
:1002DC008D51150AA1E08D51160AA7E08D51170A10
:1002EC00ADE08D51180AB3E08D51190AB9E08D516A
:0802FC001A0ABFE0F0DE120057
:0C030400290E0D6E0D2EFED70000120019
:06031000000000001200D5
:10031600120E0C6EDA0E0D6E0D2EFED70C2EFCD7BD
:0403260000001200C1
:10032A0013D03E0E00018F6FC4DE800E0010000154
:10033A00906F3E0E8F6FABDE0ED03E0E00018F6FB8
:10034A00400E906FA4DE07D000018D51010AE9E04A
:08035A008D51020AF2E01200CD
:100362004ED03A0E00018F6FA8DE800E0010000101
:10037200906FDF0E90173A0E8F6F8DDE3F0E0001E9
:100382008F6F600E906F87DE44D03A0E00018F6F40
:1003920094DE400E00100001906F7F0E90173A0E0F
:1003A2008F6F79DE3A0E00018F6F87DE380E0010F4
:1003B2000001906FFB0E90173A0E8F6F6CDE29D002
:1003C2003A0E00018F6F79DEC00E00100001906FAF
:1003D2003A0E8F6F60DE3A0E00018F6F6EDE380EBE
:1003E20000100001906FFB0E90173A0E8F6F53DED4
:1003F2003F0E00018F6F600E906F4DDE0AD000013C
:100402008D51010AAEE08D51020ABFE08D51030AFF
:04041200D7E012001D
:10041600180E00018F6F980E906F3BDE2E0E0001B6
:100426008F6F950E906F35DE010E00018F6F020EF5
:10043600906F010E916F01DE77DE060E00018F6F61
:10044600020E906F900E916FF8DD070E00018F6F10
:10045600020E906F800E916FF0DD080E00018F6F17
:10046600020E906F100E916FE8DD200E00018F6F67
:0C047600020E906F210E916FE0DD12006D
:10048200C9DF010E00018D6F6BDF020E00018D6F5F
:100492004BDF55DE0B0E00018D6F57DE21DE1200A1
:1004A20000018F6B0ADE080E00100001906F8F6B47
:1004B200F2DD110E00018F6F00DEDF0E001400016D
:1004C200906F110E8F6FE7DD100E00018F6FFF0E20
:0604D200906FE1DD120055
:1004D8002E0E606E000E616E930E626E000E636EDD
:1004E8001C0E646E000E656E930E666E000E676ECF
:1004F800949A94969488C66A00018951C6128B51C1
:10050800C6128A51C7128B5305E08C51000A01E1CB
:0E051800C78C03D08C5301E0C78CC68A12003A
:100526008B84110E0C6E3A0E0D6E0D2EFED70C2E10
:06053600FCD700001200DA
:10053C00000E0001895D04E389511F0801E302D01C
:10054C001F0E896F89511F08006E00C089F01F0EA5
:10055C000014026E02C000F00036009000360090CD
:10056C0000360090F80E001600C089F0030E8F6F55
:0C057C00020E906F00C091F05DDD1200D7
:10058800969296949598959A959C959E8492849423
:10059800839E839C839A8398BADEB9DEB8DE838A09
:1005A80083888482B1DE8492B2DE8482ADDE849256
:1005B800AEDE8482A9DE8492AADE83988482A4DED9
:1005C8008492A5DE8482A0DE8492839A838E8482BC
:1005D8009BDE84929CDE839E8388848295DE84924F
:1005E8008398848291DE849292DE84828DDE849266
:1005F8008388848289DE84928ADE8398848284DE7A
:100608008492838E838C838A838884827DDE84921D
:060618007EDE6880120086
:0E061E002A0E00018F6F070E906F37DD12005D
:10062C008B940D0E00018F6F43DD600E00100001E6
:10063C00906F0D0E8F6F2ADD220E00018F6F38DD4B
:10064C00800E00100001906F220E8F6F1FDD1200C4
:0E065C001B0E00018F6F050E906F18DD12004F
:10066A00030E00018F6F89C0E9FF8AC0EAFFEECF4F
:10067A0090F00DDD040E00018F6F010E8925E96EE1
:0E068A00000E8A21EA6EEECF90F001DD120024
:10069800000189BF02D0839E01D0838E89BD02D01C
:1006A800839C01D0838C89BB02D0839A01D0838A32
:1006B80089B902D0839801D0838868B002D0848435
:1006C80001D08494848220DE849289B702D0839EEC
:1006D80001D0838E89B502D0839C01D0838C89B3E5
:1006E80002D0839A01D0838A89B102D0839801D03D
:1006F800838868B002D0848401D08494848204DE24
:0E070800849268A002D003DE01D0F8DD12005A
:1007160020D000018F6BCFDC000E00140001906F1B
:100726008F6BB7DC20D000018F6BC5DC000E001488
:100736000001906F90838F6BACDC15D000018F6B3E
:10074600BADC000E00140001906F90818F6BA1DC63
:100756000AD000018951010ADCE08951020AE3E06E
:080766008951030AEBE01200C7
:10076E0033D00D0E00018F6FA2DC000E00140001BD
:10077E00906F0D0E8F6F89DC34D00D0E00018F6FD0
:10078E0096DC000E00140001906F90870D0E8F6F97
:10079E007CDC27D00D0E00018F6F89DC000E00145B
:1007AE000001906F90850D0E8F6F6FDC1AD00D0EBD
:1007BE0000018F6F7CDC000E00140001906F90839F
:1007CE000D0E8F6F62DC0DD000018951010AC9E058
:1007DE008951020AD2E08951030ADCE08951040AE8
:0407EE00E6E012002F
:1007F20000018B6B8C6B8B90030E026E89C000F034
:100802008AC001F0025007E001320032019E01BCB1
:10081200018EFF0FF8D77F0E0014936F938F050E92
:10082200006E89C08BF0005004E08B378B91FF0F74
:10083200FBD7E00E8B170EEC00F08BC093F00EECA2
:0E08420000F08CC093F017EC00F08B801200D9
:10085000010E00018F6F89C0E9FF8AC0EAFFEECF69
:1008600090F01ADC020E00018F6F010E8925E96EEF
:0E087000000E8A21EA6EEECF90F00EDC120030
:10087E0000018B6B8B6B800E8B19006E800E080A3D
:10088E00005C12E28B51050F8F6F8B518925E96E3B
:10089E00000E8BBFFF0E8A21EA6EEECF90F04CEC6D
:0A08AE0000F000018B2BE7D71200C9
:1008B8008B92110E0C6E3A0E0D6E0D2EFED70C2E6D
:1008C800FCD700008B82110E0C6E3A0E0D6E0D2EA9
:0A08D800FED70C2EFCD70000120022
:1008E2000001856B5F6A476A010E2D6E306A000E49
:1008F2002E6E030E2F6E2B6A2C6A856B800E851965
:10090200006E800E020A005C32E21F0EE16E000EE3
:10091200E26E8551E126000E85BFFF0EE222010E36
:10092200E66E230EE16E000EE26E8551E126000EA8
:1009320085BFFF0EE222020EE66E1D0EE16E000E74
:10094200E26E8551E126000E85BFFF0EE222030E04
:10095200E66E210EE16E000EE26E8551E126000E7A
:1009620085BFFF0EE222030EE66E852BC7D7856B8D
:10097200800E8519006E800E080A005C1AE2690E6C
:10098200E16E000EE26E8551E126000E85BFFF0E7C
:10099200E222010EE66E710EE16E000EE26E8551EC
:1009A200E126000E85BFFF0EE222020EE66E852BC7
:1009B200DFD70F0EC16EF29E926A936A946A956AAD
:1009C20094909492948C9494938093849388938E2D
:1009D20093929396256A266A276A286A296A836A05
:1009E2008C6A310E0C6EB20E0D6E0D2EFED70C2ED1
:1009F200FCD70000C8DD010E896F4DDE0C0E896F39
:100A02004ADE896B8A6B8B6B010E8C6F64DD53DF60
:100A120005DE71EC00F009DE710E0001896F000E37
:100A22008A6F2CDF230E896F000E8A6F1DDE1D0E6A
:100A32000001896F000E8A6F0ADF22DD31DD1F0E91
:100A42000001896F7ADD010E0001896F8FDE010ED0
:0A0A52000001896F5FDE66DD12000F
:100A5C000900F5CFE6FF0006FBE10106F9E1120003
:100A6C000001856B866B876B876B050E875D0AE2D1
:100A7C00000E82BC010E856F8551010A01E1862BA7
:100A8C00872BF3D78651020803E2010E006E120089
:040A9C00006A1200DA
:100AA0000001856B866B390E8F6F5EEC00F0040ED3
:100AB00000100001906F390E8F6F4CEC00F00001B8
:100AC000856B866B800E8619006E800E005C02E1DD
:100AD000800E855D33E2800E8619006E800E005C0C
:100AE00002E1150E855D13E2310E8525876F000E3C
:100AF0008621886F85512E24896F86512F208A6F19
:100B000078DE87C0E1FF88C0E2FF00C0E6FF800E0C
:100B100000018619006E800E005C02E1150E855DF5
:100B200009E385512E24896F86512F208A6F61DE5B
:100B300000C030F00001854B862BC4D734C046F08E
:100B40003DC05AF03EC05BF03FC05CF040C05DF07D
:100B500041C05EF044C05FF045C047F0390E8F6F72
:100B60005EEC00F0000E00140001906F390E8F6FE4
:060B70004CEC00F0120045
:100B760010D0800E0001856F1AD0C00E856F17D079
:100B8600940E856F14D0D40E856F11D0800E856FAC
:100B96000ED000018551010AECE08551020AEDE014
:100BA6008551030AEDE08551040AEDE0EFD786058D
:100BB600006E8551002600C085F0688000C089F06F
:0E0BC60068DD689087C089F064DD68801200E9
:100BD4000001856B866B0B0E486E100E496E210E5C
:100BE4004A6E880E4B6E2DC04CF022C04DF021C0D1
:100BF4004EF023C04FF024C050F01DC051F01EC071
:100C040052F01FC053F020C054F025C055F026C048
:100C140056F027C057F028C058F029C059F0856B0A
:100C2400866B800E8619006E800E005C02E1120E47
:100C3400855D14E285512B248F6F86512C20906F93
:100C4400480E8525E96E000E8621EA6EEECF91F0FE
:100C540020EC00F00001854B862BE3D7FDDC12006D
:100C64002A0E00018F6F040E906F4CEC00F01200FE
:100C7400320E156E166A176A186A300E196E1A6AE1
:100C84001B6A1C6A796A140E7A6E000E7B6E7C6A8B
:100C94007D6A7E6A7F6A0001806B816B826B836BE5
:100CA4001EDE000E7B1802E1140E7A1822E1D8DF52
:100CB400350E00018F6F800E906F4CEC00F07A6A55
:100CC4007B6A796A010E0001856F050E866F730ECB
:100CD400876F4FDF030E0B6E8A0E0C6E550E0D6E72
:100CE4000D2EFED70C2EFCD70B2EFAD700000000D9
:100CF400F6DD7950000A39E1020E0001856F050E18
:100D0400866F620E876F35DFAFDE0050000A0AE19E
:100D1400310E8F6F5EEC00F000C02AF0BFDE010ED2
:100D24007C6E23D0800E006E800E7CBE7F0E005C35
:100D340002E17C50000819E2030E0C6EF30E0D6EF6
:100D44000D2EFED70C2EFCD700007C2A7C50640AA2
:100D54000CE1C5DD3DDF010E0001856F010E866FDC
:100D6400620E876F06DF010E796E7950010A56E133
:100D7400270E0B6E0D0E0C6E260E0D6E0D2EFED76D
:100D84000C2EFCD70B2EFAD70000330E256E15C09F
:100D940026F019C027F01BC028F017C029F018DF6F
:100DA400240E00018F6F5EEC00F000C084F02D2A49
:100DB400010E0014016E000E01BEFF0E006E000E47
:100DC400001802E1000E01181BE1020E796E7C6A24
:100DD40086DD010E0001856F010E866F610E876F3F
:100DE400C8DE0C0E0B6E6B0E0C6E090E0D6E0D2E06
:100DF400FED70C2EFCD70B2EFAD7000000000ED025
:100E04000001010E8415016E0150010A07E1010E73
:100E1400856F010E866F720E876FABDE7A4A7B2A6E
:100E2400030E0C6EF30E0D6E0D2EFED70C2EFCD79A
:060E3400000037D7FFD7D4
:020000040030CA
:0D000100021F1EFF8381FF0FC00FE00F40A4
:00000001FF
