:100000007DEF06F00000000000EF00F000000000AF
:0A0010000000000000000000F3D71C
:10001C00BFC0C9FFC7B002D00000FCD7C9CF00F0E9
:02002C001200C0
:10002E00BFC0C9FFC7B002D00000FCD7C9CF00F0D7
:02003E001200AE
:100040000001BE6B8B90030E026EBBC000F0BCC003
:1000500001F0025007E001320032019E01BC018E26
:10006000FF0FF8D77F0E0014BF6FBF8F050E006E15
:10007000BBC0BEF0005004E0BE37BE91FF0FFBD7FF
:10008000E00EBE17BE89CADFBEC0BFF0C7DFBDC06D
:08009000BFF0C4DF8B801200F9
:100098008B90BBC000F0003600907F0E00160080E9
:1000A80000C0BBF000C0BFF0B5DFBCC0BFF0B2DF1E
:0400B8008B80120027
:1000BC000001BC6B8B90BBC000F0003600907E0E34
:1000CC00001600C0BBF000C0BFF0A2DFBCC0BFF088
:0600DC00A8DF8B8012007A
:1000E2000001BA6B360EBB6FE8DF00C0BAF00084C5
:1000F20000C0BAF0360E0001BB6F00C0BCF0CBDF0F
:10010200000E0001BA15006E00C0BAF0360EBB6FC9
:1001120000C0BCF0C0DF040E0C6E3D0E0D6E0D2E45
:0C012200FED70C2EFCD7000000001200DD
:10012E00020E0001BB6F020EBC6F800EBD6F81DF31
:02013E001200AD
:0C014000320E0001BB6FBC6BA7DF120089
:10014C00800E1A0A006E800E0001B919005C08E3DB
:10015C00800EB919006E800E0B0A005C01E302D010
:10016C000B0EB96F8FD0000EBB6F020EBC6F020E60
:10017C00BD6F60DFBFD0000E0001BB6F020EBC6F05
:10018C00120EBD6F57DFB6D0000E0001BB6F020E12
:10019C00BC6F220EBD6F4EDFADD0000E0001BB6FE9
:1001AC00020EBC6F320EBD6F45DFA4D0000E0001F5
:1001BC00BB6F020EBC6F420EBD6F3CDF9BD0000EBE
:1001CC000001BB6F020EBC6F520EBD6F33DF92D0BD
:1001DC00000E0001BB6F020EBC6F620EBD6F2ADFFA
:1001EC0089D0000E0001BB6F020EBC6F720EBD6F8A
:1001FC0021DF80D0000E0001BB6F020EBC6F820E9F
:10020C00BD6F18DF77D0000E0001BB6F020EBC6F04
:10021C00920EBD6F0FDF6ED0000E0001BB6F020E91
:10022C00BC6FA20EBD6F06DF65D0000E0001BB6F68
:10023C00020EBC6FB20EBD6FFDDE5CD0000E000175
:10024C00BB6F020EBC6FC20EBD6FF4DE53D0000E3E
:10025C000001BB6F020EBC6FD20EBD6FEBDE4AD03D
:10026C00000E0001BB6F020EBC6FE20EBD6FE2DE32
:10027C0041D0000E0001BB6F020EBC6FF20EBD6FC1
:10028C00D9DE38D00001B9510B0AD8B46CD7B951AA
:10029C000C0AD8B470D7B9510D0AD8B475D7B95166
:1002AC000E0AD8B47AD7B9510F0AD8B47FD7B9513E
:1002BC00100AD8B484D7B951110AD8B489D7B95116
:1002CC00120A8FE0B951130A95E0B951140A9BE058
:1002DC00B951150AA1E0B951160AA7E0B951170A8C
:1002EC00ADE0B951180AB3E0B951190AB9E0B951E6
:0802FC001A0ABFE0F0DE120057
:0C030400290E0D6E0D2EFED70000120019
:06031000000000001200D5
:10031600120E0C6EDA0E0D6E0D2EFED70C2EFCD7BD
:0403260000001200C1
:10032A0013D03E0E0001BB6FC4DE800E0010000128
:10033A00BC6F3E0EBB6FABDE0ED03E0E0001BB6F34
:10034A00400EBC6FA4DE07D00001B951010AE9E0F2
:08035A00B951020AF2E01200A1
:100362004ED03A0E0001BB6FA8DE800E00100001D5
:10037200BC6FDF0EBC173A0EBB6F8DDE3F0E000165
:10038200BB6F600EBC6F87DE44D03A0E0001BB6FBC
:1003920094DE400E00100001BC6F7F0EBC173A0EB7
:1003A200BB6F79DE3A0E0001BB6F87DE380E00109C
:1003B2000001BC6FFB0EBC173A0EBB6F6CDE29D07E
:1003C2003A0E0001BB6F79DEC00E00100001BC6F57
:1003D2003A0EBB6F60DE3A0E0001BB6F6EDE380E66
:1003E20000100001BC6FFB0EBC173A0EBB6F53DE50
:1003F2003F0E0001BB6F600EBC6F4DDE0AD00001E4
:10040200B951010AAEE0B951020ABFE0B951030A7B
:04041200D7E012001D
:10041600180E0001BB6F980EBC6F3BDE2E0E00015E
:10042600BB6F950EBC6F35DE010E0001BB6F020E71
:10043600BC6F010EBD6F01DE77DE060E0001BB6FDD
:10044600020EBC6F900EBD6FF8DD070E0001BB6F8C
:10045600020EBC6F800EBD6FF0DD080E0001BB6F93
:10046600020EBC6F100EBD6FE8DD200E0001BB6FE3
:0C047600020EBC6F210EBD6FE0DD120015
:100482002E0E00018A6F000E8B6FBF0E8C6F000E56
:100492008D6F1C0E8E6F000E8F6FBF0E906F000E51
:1004A200916F949A94969488C66AB551C612B751C0
:1004B200C612B651C712B75305E0B851000A01E19E
:0E04C200C78C03D0B85301E0C78CC68A120065
:1004D000000E0001B55D04E3B5511F0801E302D031
:1004E0001F0EB56FB5511F08006E00C0B5F01F0E8E
:1004F0000014026E02C000F000360090003600903A
:1005000000360090F80E001600C0B5F0030EBB6F69
:0C051000020EBC6F00C0BDF093DD1200B5
:10051C008B92110E0C6E3A0E0D6E0D2EFED70C2E0C
:10052C00FCD700008B82110E0C6E3A0E0D6E0D2E48
:0A053C00FED70C2EFCD700001200C1
:1005460020D00001BB6BB7DD000E00140001BC6FAC
:10055600BB6B9FDD20D00001BB6BADDD000E001430
:100566000001BC6FBC83BB6B94DD15D00001BB6B77
:10057600A2DD000E00140001BC6FBC81BB6B89DDDF
:100586000AD00001B551010ADCE0B551020AE3E0E8
:08059600B551030AEBE012006D
:10059E008B84110E0C6E3A0E0D6E0D2EFED70C2E98
:0605AE00FCD70000120062
:1005B4000001B76BB86B8B90030E026EB5C000F0F0
:1005C400B6C001F0025007E001320032019E01BCC6
:1005D400018EFF0FF8D77F0E0014BF6FBF8F050E7B
:1005E400006EB5C0B7F0005004E0B737B791FF0F05
:1005F400FBD7E00EB71710DDB7C0BFF00DDDB8C0F4
:08060400BFF013DD8B80120032
:0E060C001B0E0001BB6F050EBC6F40DD12001F
:10061A008B940D0E0001BB6F4CDD600E00100001C3
:10062A00BC6F0D0EBB6F33DD220E0001BB6F41DDC7
:10063A00800E00100001BC6F220EBB6F28DD120075
:10064A00969296949598959A959C959E8492849460
:10065A00839E839C839A839859DE58DE57DE838A69
:10066A008388848250DE849251DE84824CDE8492B6
:10067A004DDE848248DE849249DE8398848243DE9A
:10068A00849244DE84823FDE8492839A838E8482BB
:10069A003ADE84923BDE839E8388848234DE8492AF
:1006AA008398848230DE849231DE84822CDE8492C6
:1006BA008388848228DE849229DE8398848223DEDA
:1006CA008492838E838C838A838884821CDE8492BC
:0806DA001DDE000192811200F7
:0E06E2002A0E0001BB6F070EBC6FD5DC1200A4
:1006F000010E0001BB6FB5C0E9FFB6C0EAFFEECF47
:10070000BCF0CADC020E0001BB6F010EB525E96E1C
:0E071000000EB621EA6EEECFBCF0BEDC120089
:10071E000001B76BB76B800EB719006E800E080A1A
:10072E00005C11E2B751050FBB6FB751B525E96EED
:10073E00000EB7BFFF0EB621EA6EEECFBCF0A5DC01
:08074E000001B72BE8D71200EF
:100756000001BB6BB0DC080E00100001BC6FBB6B68
:1007660098DC110E0001BB6FA6DCDF0E0014000141
:10077600BC6F110EBB6F8DDC100E0001BB6FFF0E40
:06078600BC6F87DC1200CD
:10078C0033D00D0E0001BB6F93DC000E0014000182
:10079C00BC6F0D0EBB6F7ADC34D00D0E0001BB6F3D
:1007AC0087DC000E00140001BC6FBC870D0EBB6F04
:1007BC006DDC27D00D0E0001BB6F7ADC000E00142F
:1007CC000001BC6FBC850D0EBB6F60DC1AD00D0E2A
:1007DC000001BB6F6DDC000E00140001BC6FBC830C
:1007EC000D0EBB6F53DC0DD00001B551010AC9E0F1
:1007FC00B551020AD2E0B551030ADCE0B551040A46
:04080C00E6E0120010
:100810000001B5BF02D0839E01D0838EB5BD02D04A
:10082000839C01D0838CB5BB02D0839A01D0838A8C
:10083000B5B902D0839801D0838892B102D0848464
:1008400001D08494848264DD8492B5B702D0839E03
:1008500001D0838EB5B502D0839C01D0838CB5B313
:1008600002D0839A01D0838AB5B102D0839801D097
:10087000838892B102D0848401D08494848248DD3C
:0E088000849292A102D047DD01D03CDD12002F
:10088E00C3DD010E0001B96F65DD020E0001B96F07
:10089E0045DD4FDC0B0E0001B96F51DC1BDC120085
:1008AE00030E0001BB6FB5C0E9FFB6C0EAFFEECF85
:1008BE00BCF04CEC00F0040E0001BB6F010EB52530
:1008CE00E96E000EB621EA6EEECFBCF04CEC00F0F5
:0208DE00120006
:1008E0000900F5CFE6FF0006FBE10106F9E1120081
:1008F0002A0E0001BB6F040EBC6F4CEC00F012001E
:100900000001B16B896B5B6A3A6A000E386E030EA8
:10091000396E366A376AB16B800EB119006E800E7F
:10092000020A005C32E21F0EE16E000EE26EB1516F
:10093000E126000EB1BFFF0EE222010EE66E230E8D
:10094000E16E000EE26EB151E126000EB1BFFF0E66
:10095000E222020EE66E1D0EE16E000EE26EB15155
:10096000E126000EB1BFFF0EE222030EE66E210E5D
:10097000E16E000EE26EB151E126000EB1BFFF0E36
:10098000E222030EE66EB12BC7D7B16B800EB11910
:10099000006E800E080A005C1AE2930EE16E000EF3
:1009A000E26EB151E126000EB1BFFF0EE222010E50
:1009B000E66E9B0EE16E000EE26EB151E126000E76
:1009C000B1BFFF0EE222020EE66EB12BDFD70F0E93
:1009D000C16EF29E926A936A946A956A9490949218
:1009E000948C9494938093849388938E939293960B
:1009F000256A266A276A286A296A836A8C6A310E00
:100A00000C6EB20E0D6E0D2EFED70C2EFCD7000014
:100A10001CDE010EB56FFCDE0C0EB56FF9DEB56B9A
:100A2000B66BB76B010EB86F2CDD78DD5ADE71EC5A
:100A300000F0F3DD9B0E0001B56F000EB66F6FDEA8
:100A4000230EB56F000EB66F32DF1D0E0001B56FBD
:100A5000000EB66F4DDE1BDF7EDE1F0E0001B56F90
:100A600037DD010E0001B56F91DE010E0001B56F9B
:060A70006ADD95DD1200B5
:100A7600A6A202D00000FCD7A69CB1C0A9FFB2C0B6
:100A8600A8FFA69EA684F2CF00F0F29E550EA76E92
:100A9600AA0EA76EA68200BE02D0F29E01D0F28EEA
:040AA600A694120000
:100AAA000001B16BB26BB36BB36B050EB35D0AE2B7
:100ABA00000E82BC010EB16FB151010A01E1B22BE5
:100ACA00B32BF3D7B251020803E2010E006E1200F3
:040ADA00006A12009C
:100ADE0010D0800E0001B16F1AD0C00EB16F17D0BA
:100AEE00940EB16F14D0D40EB16F11D0800EB16FC1
:100AFE000ED00001B151010AECE0B151020AEDE055
:100B0E00B151030AEDE0B151040AEDE0EFD7B205A1
:100B1E00006EB151002600C0B1F0928100C0B5F058
:0E0B2E0070DE9291B3C0B5F06CDE92811200C1
:100B3C000001B16BB26B390EBB6F5EEC00F0040EB2
:100B4C0000100001BC6F390EBB6F4CEC00F00001C3
:100B5C00B16BB26B800EB219006E800E005C02E1BC
:100B6C00800EB15D33E2800EB219006E800E005C17
:100B7C0002E1200EB15D13E23B0EB125B36F000E06
:100B8C00B221B46FB1513824B56FB2513920B66F60
:100B9C000BDDB3C0E1FFB4C0E2FF00C0E6FF800E86
:100BAC000001B219006E800E005C02E1200EB15DF6
:100BBC0009E3B1513824B56FB2513920B66FF4DC6A
:100BCC0000C03AF00001B14BB22BC4D73EC016F0B6
:100BDC0047C079F048C07AF049C07BF04AC07CF03D
:100BEC004BC07DF04CC07EF04DC07FF04EC080F00D
:100BFC004FC081F050C082F051C083F052C084F0DD
:100C0C0053C085F054C086F055C087F056C088F0AC
:100C1C0059C089F05AC05BF0390EBB6F5EEC00F026
:100C2C00000E00140001BC6F390EBB6F4CEC00F0D1
:020C3C001200A4
:100C3E000001B16BB26B0B0E5C6E1B0E5D6E210E66
:100C4E005E6E880E5F6E15C060F022C061F021C02E
:100C5E0062F023C063F024C064F01DC065F01EC0B6
:100C6E0066F01FC067F020C068F025C069F026C08E
:100C7E006AF027C06BF028C06CF029C06DF02AC056
:100C8E006EF02BC06FF02CC070F02DC071F02EC026
:100C9E0072F02FC073F030C074F031C075F032C0F6
:100CAE0076F033C077F034C078F0B16BB26B800E53
:100CBE00B219006E800E005C02E11D0EB15D14E2F1
:100CCE00B1513624BB6FB2513720BC6F5C0EB125CB
:100CDE00E96E000EB221EA6EEECFBDF020EC00F010
:0C0CEE000001B14BB22BE3D78ADC1200EE
:100CFA00156A166A176A186A300E196E1A6A1B6A1A
:100D0A001C6A0001A36B040EA46F000EA56FA66BEC
:100D1A00A76BA86B020EA96FAA6BAB6BAC6BAD6B22
:100D2A00AE6BAF6BE8DD000E0001A51902E10D0EF6
:100D3A00A41921E1D8DD350E0001BB6F800EBC6F0E
:100D4A004CEC00F00001A46BA56BA76BA36B010E22
:100D5A00B16F050EB26F730EB36FBCDE020E0B6E6F
:100D6A00960E0C6ED50E0D6E0D2EFED70C2EFCD7E0
:100D7A000B2EFAD7C0DD0001A351000A3EE1020E94
:100D8A00B16F050EB26F620EB36FA4DE89DE00503A
:100D9A00000A19E1310EBB6F5EEC00F000C035F0BD
:100DAA00C8DE0001AA511624006EA651002600C012
:100DBA00A6F016C0AAF0B16B00C0B2F057DE010E61
:100DCA000001A76F1AD0800E006E800EA7BF7F0E9B
:100DDA00005C02E1A751000810E2A72BA751070AFD
:100DEA000CE189DD27DF010E0001B16F010EB26F40
:100DFA00620EB36F6FDE010EA36FA351010A4BE1BE
:100E0A001E0E0C6E370E0D6E0D2EFED70C2EFCD755
:100E1A00330E346E340E266E19C027F01BC028F02C
:100E2A0017C029F007DF240E0001BB6F5EEC00F04B
:100E3A0000C0B0F0152A010E0014016E000E01BEAA
:100E4A00FF0E006E000E001802E1000E011815E1F7
:100E5A00020E0001A36FA76B4EDD010E0001B16FF8
:100E6A00010EB26F610EB36F35DEA9C0B1F02C0E60
:100E7A00B26FFCDD0001A92B0ED00001010EB015E6
:100E8A00016E0150010A07E1010EB16F010EB26F46
:100E9A00720EB36F1FDEA44BA52B030E0C6EF30E5E
:100EAA000D6E0D2EFED70C2EFCD700003CD7FFD7B7
:020000040030CA
:0D000100021F1EFF8381FF0FC00FE00F40A4
:00000001FF
