:100000005AEF07F00000000000EF00F000000000D1
:0A0010000000000000000000F3D71C
:10001C00A4C0C9FFC7B002D00000FCD7C9CF00F004
:02002C001200C0
:10002E00A4C0C9FFC7B002D00000FCD7C9CF00F0F2
:02003E001200AE
:100040008B90A0C000F0003600907F0E001600805C
:1000500000C0A0F000C0A4F0EADFA1C0A4F0E7DF78
:040060008B8012007F
:100064000001A16B8B90A0C000F0003600907E0EC2
:10007400001600C0A0F000C0A4F0D7DFA1C0A4F017
:06008400CBDF8B801200AF
:10008A000001A36B8B90030E026EA0C000F0A1C00A
:10009A0001F0025007E001320032019E01BC018EDC
:1000AA00FF0FF8D77F0E0014A46FA48F050E006E01
:1000BA00A0C0A3F0005004E0A337A391FF0FFBD721
:1000CA00E00EA317A389AEDFA3C0A4F0ABDFA2C0E2
:0800DA00A4F0A8DF8B801200E6
:0600E20000000000120006
:0C00E800290E0D6E0D2EFED70000120038
:1000F40000019F6B360EA06FB3DF00C09FF0008439
:1001040000C09FF0360E0001A06F00C0A1F096DF82
:10011400000E00019F15006E00C09FF0360EA06F08
:1001240000C0A1F08BDF040E0C6E3D0E0D6E0D2E83
:0C013400FED70C2EFCD7000000001200CB
:10014000020E0001A06F020EA16F800EA26F9DDF54
:0201500012009B
:10015200120E0C6EDA0E0D6E0D2EFED70C2EFCD783
:040162000000120087
:10016600800E1A0A006E800E00019E19005C08E3DC
:10017600800E9E19006E800E0B0A005C01E302D011
:100186000B0E9E6F8FD0000EA06F020EA16F020E97
:10019600A26F78DFBFD0000E0001A06F020EA16F24
:1001A600120EA26F6FDFB6D0000E0001A06F020E16
:1001B600A16F220EA26F66DFADD0000E0001A06F08
:1001C600020EA16F320EA26F5DDFA4D0000E0001F9
:1001D600A06F020EA16F420EA26F54DF9BD0000EDD
:1001E6000001A06F020EA16F520EA26F4BDF92D0DC
:1001F600000E0001A06F020EA16F620EA26F42DF19
:1002060089D0000E0001A06F020EA16F720EA26FC0
:1002160039DF80D0000E0001A06F020EA16F820EA2
:10022600A26F30DF77D0000E0001A06F020EA16F23
:10023600920EA26F27DF6ED0000E0001A06F020E95
:10024600A16FA20EA26F1EDF65D0000E0001A06F87
:10025600020EA16FB20EA26F15DF5CD0000E000178
:10026600A06F020EA16FC20EA26F0CDF53D0000E5C
:100276000001A06F020EA16FD20EA26F03DF4AD05B
:10028600000E0001A06F020EA16FE20EA26FFADE51
:1002960041D0000E0001A06F020EA16FF20EA26FF8
:1002A600F1DE38D000019E510B0AD8B46CD79E51AE
:1002B6000C0AD8B470D79E510D0AD8B475D79E5182
:1002C6000E0AD8B47AD79E510F0AD8B47FD79E515A
:1002D600100AD8B484D79E51110AD8B489D79E5132
:1002E600120A8FE09E51130A95E09E51140A9BE074
:1002F6009E51150AA1E09E51160AA7E09E51170AC3
:10030600ADE09E51180AB3E09E51190AB9E09E511C
:080316001A0ABFE0ECDE120040
:10031E00086A096A100E0C6E01340836093604504C
:10032E00085E0550D8A0053C095ED8B007D0045031
:10033E0008260550D8B0053C0926D890003601365F
:06034E000C2EEAD712009C
:1003540000019EBF02D0839E01D0838E9EBD02D039
:10036400839C01D0838C9EBB02D0839A01D0838A64
:100374009EB902D0839801D0838869B002D0848466
:1003840001D084948482ABDE84929EB702D0839E93
:1003940001D0838E9EB502D0839C01D0838C9EB302
:1003A40002D0839A01D0838A9EB102D0839801D06F
:1003B400838869B002D0848401D0849484828FDEDF
:0E03C400849269A002D0C3DE01D08CDE12004C
:0C03D200320E0001A06FA16B32DE1200A1
:1003DE00180E0001A06F980EA16F2BDE2E0E0001DD
:1003EE00A06F950EA16F25DE010E0001A06F020E0B
:1003FE00A16F010EA26F42DE9CDE060E0001A06F01
:10040E00020EA16F900EA26F39DE070E0001A06FD3
:10041E00020EA16F800EA26F31DE080E0001A06FDA
:10042E00020EA16F100EA26F29DE200E0001A06F2A
:0C043E00020EA16F210EA26F21DE120041
:10044A004ED03A0E0001A06F08DE800E00100001A7
:10045A00A16FDF0EA1173A0EA06FEDDD3F0E00016E
:10046A00A06F600EA16FE7DD44D03A0E0001A06FC5
:10047A00F4DD400E00100001A16F7F0EA1173A0EA5
:10048A00A06FD9DD3A0E0001A06FE7DD380E00102B
:10049A000001A16FFB0EA1173A0EA06FCCDD29D087
:1004AA003A0E0001A06FD9DDC00E00100001A16F45
:1004BA003A0EA06FC0DD3A0E0001A06FCEDD380EF5
:1004CA0000100001A16FFB0EA1173A0EA06FB3DD59
:1004DA003F0E0001A06F600EA16FADDD0AD00001D2
:1004EA009E51010AAEE09E51020ABFE09E51030AE4
:0404FA00D7E0120035
:1004FE0013D03E0E0001A06FAEDD800E0010000185
:10050E00A16F3E0EA06F95DD0ED03E0E0001A06FC6
:10051E00400EA16F8EDD07D000019E51010AE9E069
:08052E009E51020AF2E01200E6
:10053600000E0001975D04E397511F0801E302D006
:100546001F0E976F97511F08006E00C097F01F0E81
:100556000014026E02C000F00036009000360090D3
:1005660000360090F80E001600C097F0030EA06F3C
:0C057600020EA16F00C0A2F085DD120093
:1005820033D00D0E0001A06F6CDD000E00140001CF
:10059200A16F0D0EA06F53DD34D00D0E0001A06FC0
:1005A20060DD000E00140001A16FA1870D0EA06F87
:1005B20046DD27D00D0E0001A06F53DD000E0014A2
:1005C2000001A16FA1850D0EA06F39DD1AD00D0EAD
:1005D2000001A06F46DD000E00140001A16FA1838F
:1005E2000D0EA06F2CDD0DD000019751010AC9E05C
:1005F2009751020AD2E09751030ADCE09751040AAC
:04060200E6E012001C
:100606000001996B9A6B8B90030E026E97C000F0F7
:1006160098C001F0025007E001320032019E01BC91
:10062600018EFF0FF8D77F0E0014A46FA48F050E5E
:10063600006E97C099F0005004E099379991FF0F2A
:10064600FBD7E00E9917F0DC99C0A4F0EDDC9AC058
:08065600A4F0E1DC8B8012002E
:10065E000001A06B00DD080E00100001A16FA06B61
:10066E00E8DC110E0001A06FF6DCDF0E00140001B5
:10067E00A16F110EA06FDDDC100E0001A06FFF0E3A
:06068E00A16FD7DC120091
:1006940020D00001A06BE4DC000E00140001A16F67
:1006A400A06BCCDC20D00001A06BDADC000E0014BF
:1006B4000001A16FA183A06BC1DC15D00001A06B68
:1006C400CFDC000E00140001A16FA181A06BB6DC89
:1006D4000AD000019751010ADCE09751020AE3E0D5
:0806E4009751030AEBE012003C
:0E06EC001B0E0001A06F050EA16FA4DC120012
:0C06FA00699097C09EF029DE6980120014
:100706000001996B996B800E9919006E800E080A8C
:10071600005C11E29951050FA06F99519725E96E7A
:10072600000E99BFFF0E9821EA6EEECFA1F085DC90
:080736000001992BE8D7120025
:10073E00030E0001A06F97C0E9FF98C0EAFFEECF4D
:10074E00A1F077DC040E0001A06F010E9725E96E73
:0E075E00000E9821EA6EEECFA1F06BDC1200C7
:10076C00010E0001A06F97C0E9FF98C0EAFFEECF21
:10077C00A1F060DC020E0001A06F010E9725E96E5E
:0E078C00000E9821EA6EEECFA1F054DC1200B0
:10079A0021DE010E00019E6F53DE020E00019E6FE4
:1007AA00A9DE12DE0B0E00019E6FD8DC9EDC120061
:1007BA008B940D0E0001A06F50DC600E001000013A
:1007CA00A16F0D0EA06F37DC220E0001A06F45DC71
:1007DA00800E00100001A16F220EA06F2CDC120007
:1007EA008B84110E0C6E3A0E0D6E0D2EFED70C2E4A
:0607FA00FCD70000120014
:1008000000019B6B050E9B5D0AE29B519925E16EF1
:10081000000E9A21E26E200EE66E9B2BF3D79B51C1
:100820009925E16E000E9A21E26EE66A9B079B51C4
:1008300099259C6F000E9A219D6F0A0E046E000E82
:10084000056E97C000F098C001F069DD08C000F0A7
:1008500009C001F0300E00269CC0E1FF9DC0E2FF00
:1008600000C0E6FF0A0E046E000E056E97C000F091
:1008700098C001F054DD00C097F001C098F0000E60
:10088000011802E1000E001801E102D09B07CFD74A
:02089000120054
:100892001C0E616E000E626EA40E636E000E646E1C
:1008A2002E0E656E000E666EA40E676E000E686EEA
:1008B200949A94969488C66A00019751C6129951E7
:1008C200C6129851C712995305E09A51000A01E1E4
:0E08D200C78C03D09A5301E0C78CC68A12006F
:1008E0002A0E0001A06F070EA16F20EC00F012008D
:1008F0008B92110E0C6E3A0E0D6E0D2EFED70C2E35
:10090000FCD700008B82110E0C6E3A0E0D6E0D2E70
:0A091000FED70C2EFCD700001200E9
:10091A00969296949598959A959C959E849284948D
:10092A00839E839C839A83980FDC0EDC0DDC838A7A
:10093A008388848271EC00F0849206DC848271ECF4
:10094A0000F0849201DC848271EC00F08492A9ECBC
:10095A0000F08398848271EC00F08492A9EC00F094
:10096A00848271EC00F08492839A838E848271EC83
:10097A0000F08492A9EC00F0839E8388848271EC53
:10098A0000F084928398848271EC00F08492A9EC3E
:10099A0000F0848271EC00F084928388848271EC86
:1009AA0000F08492A9EC00F08398848271EC00F044
:1009BA008492838E838C838A8388848271EC00F08C
:0A09CA008492A9EC00F0698012008D
:1009D40000018D6B5F6A606A230E5E6E316A000EE1
:1009E4002F6E030E306E2A6A2B6A8D6B800E8D1962
:1009F400006E800E020A005C32E21F0EE16E000EF1
:100A0400E26E8D51E126000E8DBFFF0EE222010E33
:100A1400E66E260EE16E000EE26E8D51E126000EAA
:100A24008DBFFF0EE222020EE66E280EE16E000E6E
:100A3400E26E8D51E126000E8DBFFF0EE222030E01
:100A4400E66E2D0EE16E000EE26E8D51E126000E73
:100A54008DBFFF0EE222030EE66E8D2BC7D78D6B82
:100A6400800E8D19006E800E080A005C1AE26A0E70
:100A7400E16E000EE26E8D51E126000E8DBFFF0E79
:100A8400E222010EE66E720EE16E000EE26E8D51F0
:100A9400E126000E8DBFFF0EE222020EE66E8D2BC4
:100AA400DFD70F0EC16EF29E926A936A946A956ABA
:100AB40094909492948C9494938093849388938E3A
:100AC40093929396216A226A236A246A256A836A26
:100AD4008C6A310E0C6EB20E0D6E0D2EFED70C2EDE
:100AE400FCD7000018DF010E9E6F32DC0C0E9E6FE7
:100AF4002FDC976B986B996B010E9A6FC8DEF6DE4C
:100B0400EDDE7AEC00F057DE720E0001976F000EF6
:100B1400986FF7DD260E976F000E986F0EDE280E85
:100B24000001976F000E986F1FDE35DE96DD1F0EF5
:100B34000001976FFEDC010E0001976F20DD010EAE
:0A0B44000001976FA5DD4FDE1200DF
:100B4E0000018D6B8E6B390EA06F32EC00F0040E2F
:100B5E0000100001A16F390EA06F20EC00F0000113
:100B6E008D6B8E6B800E8E19006E800E005C02E116
:100B7E00800E8D5D33E2800E8E19006E800E005C4D
:100B8E0002E1150E8D5D13E2320E8D258F6F000E74
:100B9E008E21906F8D512F24976F8E513020986F2C
:100BAE002BDD8FC0E1FF90C0E2FF00C0E6FF800E9C
:100BBE0000018E19006E800E005C02E1150E8D5D37
:100BCE0009E38D512F24976F8E513020986F14DDCD
:100BDE0000C031F000018D4B8E2BC4D73EC047F0C4
:100BEE003FC048F040C049F041C04AF042C04BF00F
:100BFE0045C05FF046C060F0390EA06F32EC00F0D9
:100C0E00000E00140001A16F390EA06F20EC00F051
:020C1E001200C2
:100C200000018D6B8E6B8F6B8F6B050E8F5D0AE2F3
:100C3000000E82BC010E8D6F8D51010A01E18E2BD9
:100C40008F2BF3D78E51020803E2010E006E1200C3
:040C5000006A120024
:100C54000001936B946B8DC095F08EC096F0800E5E
:100C64008E19006E800E005C02E1000E8D5D0BE2B9
:100C7400010E936F000E946F8D510008956F8EC016
:100C840096F0000E965795C097F096C098F08FC0D6
:100C940099F090C09AF0B2DD060E916F000E926F3B
:100CA400000E006E9251005C02E19151000819E2BD
:100CB40091518F25E16E92519021E26E010E915D6A
:100CC400006E000E9259016E00508F25E96E01509E
:100CD4009021EA6EEECFE6FF010E915F000E925B6B
:100CE400DFD78FC0E1FF90C0E2FF200EE66E935184
:100CF40094111CE0916B926B91518F25E96E925186
:100D04009021EA6EEECF01F00150200A03E1914BED
:100D1400922BF2D7010E915F000E925B91518F25B9
:0E0D2400E16E92519021E26E2D0EE66E1200ED
:100D320010D0800E00018D6F1AD0C00E8D6F17D0AB
:100D4200940E8D6F14D0D40E8D6F11D0800E8D6FD6
:100D52000ED000018D51010AECE08D51020AEDE046
:100D62008D51030AEDE08D51040AEDE0EFD78E05B7
:100D7200006E8D51002600C08DF0698000C09EF08B
:100D8200AAEC01F069908FC09EF0AAEC01F0698094
:020D920012004D
:100D940010D0800E00018D6F1AD0C00E8D6F17D049
:100DA400940E8D6F14D0D40E8D6F11D0800E8D6F74
:100DB4000ED000018D51010AECE08D51020AEDE0E4
:100DC4008D51030AEDE08D51040AEDE0EFD78E0555
:100DD400006E8D51002600C08DF000C09EF0AAEC7C
:100DE40001F06990916B91518F25E96E000E90216D
:100DF400EA6EEE520BE091518F25E96E000E9021C0
:100E0400EA6EEECF97F077DC912BEDD76980120074
:100E14000900F5CFE6FF0006FBE10106F9E1120047
:100E240000018D6B8E6B0B0E4C6E100E4D6E210EF1
:100E34004E6E880E4F6E5EC050F02EC051F02DC025
:100E440052F026C053F027C054F028C055F029C0F2
:100E540056F01FC057F020C058F021C059F022C0EE
:100E64005AF023C05BF024C05CF025C05DF08D6BAC
:100E74008E6B800E8E19006E800E005C02E1120EE5
:100E84008D5D14E28D512A24A06F8E512B20A16F09
:100E94004C0E8D25E96E000E8E21EA6EEECFA2F087
:100EA40045EC00F000018D4B8E2BE3D71DDC1200C6
:100EB400310E156E166A320E176E186A196A1A6A9E
:100EC400300E1B6E1C6A1D6A1E6A7A6A7B6A7C6A13
:100ED4007FDD7A50000A2CE1A1DE0050000A28E1EF
:100EE400310EA06F32EC00F000C02CF02EDE48C0B2
:100EF4007CF049C07BF0010E00018D6F010E8E6FF6
:100F040047C08FF014DF010E8D6F020E8E6F7CC010
:100F14008FF00DDF010E8D6F030E8E6F2E0E8F6F0F
:100F240006DF010E8D6F040E8E6F7BC08FF0FFDE27
:100F34007A50010A64E10D0E0B6EAF0E0C6EB60E04
:100F44000D6E0D2EFED70C2EFCD70B2EFAD70000FB
:100F540015C021F017C022F01BC023F01DC024F0DF
:100F640019C025F05DDF240E0001A06F32EC00F003
:100F740000C08DF0000E00BEFF0E00018E6F7D0ECE
:100F84008F6F000E906F64DE010E8D6F010E8E6FF9
:100F94007D0E8F6F000E906FFBDE0D0E0B6EAF0E8D
:100FA4000C6EB60E0D6E0D2EFED70C2EFCD70B2E2E
:100FB400FAD70000330E216E340E226E350E236EE6
:100FC4001DC024F019C025F02BDF240E0001A06FF2
:100FD40032EC00F000C08DF0000E00BEFF0E0001E8
:100FE4008E6F7D0E8F6F000E906F32DE010E8D6F4F
:100FF400010E8E6F7D0E8F6F000E906FC9DE69D764
:02100400FFD714
:020000040030CA
:0D000100021F1EFF8381FF0FC00FE00F40A4
:00000001FF
