:1000000065EF06F00000000000EF00F000000000C7
:0A0010000000000000000000F3D71C
:10001C0086C0C9FFC7B002D00000FCD7C9CF00F022
:02002C001200C0
:10002E0086C0C9FFC7B002D00000FCD7C9CF00F010
:02003E001200AE
:100040000001836B8B9082C000F0003600907E0E22
:10005000001600C082F000C086F0E0DF83C086F0AA
:06006000E6DF8B801200B8
:100066008B9082C000F0003600907F0E0016008054
:1000760000C082F000C086F0CEDF83C086F0CBDF02
:040086008B80120059
:10008A000001856B8B90030E026E82C000F083C064
:10009A0001F0025007E001320032019E01BC018EDC
:1000AA00FF0FF8D77F0E0014866F868F050E006E3D
:1000BA0082C085F0005004E085378591FF0FFBD799
:1000CA00E00E85178589A5DF85C086F0A2DF84C08A
:0800DA0086F09FDF8B8012000D
:1000E200020E0001826F020E836F800E846FCCDFDE
:0200F2001200FA
:1000F4000001816B360E826FA1DF00C081F00084A5
:1001040000C081F0360E0001826F00C083F0A9DFC9
:10011400000E00018115006E00C081F0360E826F62
:1001240000C083F09EDF040E0C6E3D0E0D6E0D2E8E
:0C013400FED70C2EFCD7000000001200CB
:10014000120E0C6EDA0E0D6E0D2EFED70C2EFCD795
:040150000000120099
:0601540000000000120093
:0C015A00290E0D6E0D2EFED700001200C5
:10016600800E1A0A006E800E00018019005C08E3FA
:10017600800E8019006E800E0B0A005C01E302D02F
:100186000B0E806F8FD0000E826F020E836F020EF1
:10019600846F78DFBFD0000E0001826F020E836F7E
:1001A600120E846F6FDFB6D0000E0001826F020E52
:1001B600836F220E846F66DFADD0000E0001826F62
:1001C600020E836F320E846F5DDFA4D0000E000135
:1001D600826F020E836F420E846F54DF9BD0000E37
:1001E6000001826F020E836F520E846F4BDF92D036
:1001F600000E0001826F020E836F620E846F42DF73
:1002060089D0000E0001826F020E836F720E846F1A
:1002160039DF80D0000E0001826F020E836F820EDE
:10022600846F30DF77D0000E0001826F020E836F7D
:10023600920E846F27DF6ED0000E0001826F020ED1
:10024600836FA20E846F1EDF65D0000E0001826FE1
:10025600020E836FB20E846F15DF5CD0000E0001B4
:10026600826F020E836FC20E846F0CDF53D0000EB6
:100276000001826F020E836FD20E846F03DF4AD0B5
:10028600000E0001826F020E836FE20E846FFADEAB
:1002960041D0000E0001826F020E836FF20E846F52
:1002A600F1DE38D0000180510B0AD8B46CD78051EA
:1002B6000C0AD8B470D780510D0AD8B475D78051BE
:1002C6000E0AD8B47AD780510F0AD8B47FD7805196
:1002D600100AD8B484D78051110AD8B489D780516E
:1002E600120A8FE08051130A95E08051140A9BE0B0
:1002F6008051150AA1E08051160AA7E08051170A1D
:10030600ADE08051180AB3E08051190AB9E0805176
:080316001A0ABFE0ECDE120040
:10031E00000180BF02D0839E01D0838E80BD02D0AB
:10032E00839C01D0838C80BB02D0839A01D0838AB8
:10033E0080B902D0839801D083884CB002D08484D7
:10034E0001D084948482FFDE849280B702D0839E93
:10035E0001D0838E80B502D0839C01D0838C80B374
:10036E0002D0839A01D0838A80B102D0839801D0C3
:10037E0083884CB002D0848401D084948482E3DEDE
:0E038E0084924CA002D0D5DE01D0E0DE120039
:0C039C00320E0001826F836B60DE1200E5
:1003A800180E0001826F980E836F59DE2E0E000121
:1003B800826F950E836F53DE010E0001826F020E6D
:1003C800836F010E846F5DDE88DE060E0001826F8A
:1003D800020E836F900E846F54DE070E0001826F49
:1003E800020E836F800E846F4CDE080E0001826F50
:1003F800020E836F100E846F44DE200E0001826FA0
:0C040800020E836F210E846F3CDE120098
:100414004ED03A0E0001826F11DE800E00100001F2
:10042400836FDF0E83173A0E826F1BDE3F0E0001CF
:10043400826F600E836F15DE44D03A0E0001826F26
:10044400FDDD400E00100001836F7F0E83173A0E0E
:10045400826F07DE3A0E0001826FF0DD380E001065
:100464000001836FFB0E83173A0E826FFADD29D0E9
:100474003A0E0001826FE2DDC00E00100001836FAE
:100484003A0E826FEEDD3A0E0001826FD7DD380E30
:1004940000100001836FFB0E83173A0E826FE1DDBB
:1004A4003F0E0001826F600E836FDBDD0AD0000116
:1004B4008051010AAEE08051020ABFE08051030A74
:0404C400D7E012006B
:1004C80013D03E0E0001826FB7DD800E00100001D0
:1004D800836F3E0E826FC3DD0ED03E0E0001826F29
:1004E800400E836FBCDD07D000018051010AE9E0AE
:0804F8008051020AF2E012003B
:10050000086A096A100E0C6E013408360936045068
:10051000085E0550D8A0053C095ED8B007D004504D
:1005200008260550D8B0053C0926D890003601367B
:060530000C2EEAD71200B8
:0E0536002A0E0001826F070E836F92DD120005
:1005440033D00D0E0001826F79DD000E001400011E
:10055400836F0D0E826F85DD33D00D0E0001826F27
:100564006DDD000E00140001836F83870D0E826F12
:1005740078DD26D00D0E0001826F60DD000E0014C0
:100584000001836F83850D0E826F6BDD19D00D0E14
:100594000001826F53DD000E00140001836F83831A
:1005A4000D0E826F5EDD0CD07950010ACAE07950DD
:1005B400020AD3E07950030ADDE07950040AE7E047
:0205C400120023
:1005C6008B84110E0C6E3A0E0D6E0D2EFED70C2E70
:0605D600FCD7000012003A
:1005DC007B6A7B6A800E7B18006E800E080A005CBA
:1005EC0011E27B50050F0001826F7B507924E96E7C
:1005FC00000E7BBEFF0E7A20EA6EEECF83F02DDD6F
:06060C007B2AE8D7120072
:10061200030E0001826F79C0E9FF7AC0EAFFEECFD4
:1006220083F020DD040E0001826F010E7924E96E51
:0E063200000E7A20EA6EEECF83F014DD120087
:100640000001826BFDDC080E00100001836F826BDD
:100650000ADD110E0001826FF3DCDF0E00140001D1
:10066000836F110E826FFFDC100E0001826FFF0E90
:06067000836FF9DC1200AB
:10067600969296949598959A959C959E8492849434
:10068600839E839C839A839858DD57DD56DD838A43
:10069600838884825CDD849250DD848258DD849276
:1006A6004CDD848254DD849248DD839884824FDD5C
:1006B600849243DD84824BDD8492839A838E848286
:1006C60046DD84923ADD839E8388848240DD84926F
:1006D600839884823CDD849230DD848238DD849286
:1006E6008388848234DD849228DD839884822FDD9A
:1006F6008492838E838C838A8388848228DD849285
:060706001CDD4C80120016
:10070C002E0E446E000E456E860E466E000E476E23
:10071C001C0E486E000E496E860E4A6E000E4B6E15
:10072C00949A94969488C66A7950C6127B50C612D5
:10073C007A50C7127B5205E07C50000A01E1C78C4D
:0C074C0003D07C5201E0C78CC68A12006A
:1007580027DE010E0001806F59DE020E0001806F56
:10076800AFDE18DE0B0E0001806FF9DCBFDC120073
:100778008B92110E0C6E3A0E0D6E0D2EFED70C2EAE
:10078800FCD700008B82110E0C6E3A0E0D6E0D2EEA
:0A079800FED70C2EFCD70000120063
:1007A2007D6A050E7D5C0AE27D507B24E16E000EBF
:1007B2007C20E26E200EE66E7D2AF3D77D507B24EC
:1007C200E16E000E7C20E26EE66A7D067D507B249F
:1007D2007E6E000E7C207F6E0A0E046E000E056E89
:1007E20079C000F07AC001F08ADE08C000F009C0CA
:1007F20001F0300E00267EC0E1FF7FC0E2FF00C0A4
:10080200E6FF0A0E046E000E056E79C000F07AC093
:1008120001F075DE00C079F001C07AF0000E011817
:1008220002E1000E001801E102D07D06CFD71200CE
:10083200796A1B0E0001826F010E836F13DC1200B6
:1008420025D00001826B20EC00F0000E00140001A4
:10085200836F826B07DC23D00001826B20EC00F0F7
:10086200000E00140001836F8383826B33EC00F06F
:1008720016D00001826B20EC00F0000E0014000183
:10088200836F8381826B33EC00F009D07950010AC7
:10089200D8E07950020AE0E07950030AEAE0120057
:0C08A2004C9079C080F03ADD4C801200D0
:1008AE00010E0001826F79C0E9FF7AC0EAFFEECF38
:1008BE0083F033EC00F0020E0001826F010E7924FA
:1008CE00E96E000E7A20EA6EEECF83F033EC00F084
:0208DE00120006
:1008E0008B940D0E0001826F20EC00F0600E001062
:1008F0000001836F0D0E826F33EC00F0220E0001B9
:10090000826F20EC00F0800E00100001836F220E39
:08091000826F33EC00F01200CD
:10091800000E795C04E379501F0801E302D01F0E32
:10092800796E79501F08006E00C079F01F0E001410
:10093800026E02C000F000360090003600900036CB
:100948000090F80E001600C079F0030E0001826FC7
:0E095800020E836F00C084F045EC00F0120028
:100966000FD0800E6F6E19D0C00E6F6E16D0940E1B
:100976006F6E13D0D40E6F6E10D0800E6F6E0DD0CA
:100986006F50010AEEE06F50020AEEE06F50030A64
:10099600EEE06F50040AEEE0F0D77004006E6F5080
:1009A600002600C06FF000C080F0B6DC4C90736A81
:1009B60073507124E96E000E7220EA6EEE520BE05F
:1009C60073507124E96E000E7220EA6EEECF79F054
:0A09D60065DF732AEDD74C80120094
:1009E0006F6A216A226A230E3A6E436A000E556EC0
:1009F000030E566E1F6A206A6F6A800E6F18006EB3
:100A0000800E020A005C32E23D0EE16E000EE26EE4
:100A10006F50E126000E6FBEFF0EE222010EE66E61
:100A2000410EE16E000EE26E6F50E126000E6FBEC9
:100A3000FF0EE222020EE66E3B0EE16E000EE26E4B
:100A40006F50E126000E6FBEFF0EE222030EE66E2F
:100A50003F0EE16E000EE26E6F50E126000E6FBE9B
:100A6000FF0EE222030EE66E6F2AC7D76F6A800E72
:100A70006F18006E800E080A005C1AE2570EE16ED5
:100A8000000EE26E6F50E126000E6FBEFF0EE222F6
:100A9000010EE66E4D0EE16E000EE26E6F50E12625
:100AA000000E6FBEFF0EE222020EE66E6F2ADFD747
:100AB0000F0EC16EF29E926A936A946A956A949040
:100AC0009492948C9494938093849388938E93922D
:100AD0009396236A246A256A266A276A836A8C6A3F
:100AE000310E0C6EB20E0D6E0D2EFED70C2EFCD7F5
:100AF0000000C1DD010E0001806F11DC0C0E806F63
:100B00000EDC796A7A6A7B6A010E7C6EFFDD34DE68
:100B100012DD7AEC00F0E4DE570E796E000E7A6E8C
:100B20005DDD3D0E796E000E7A6E73DD3B0E796EE3
:100B3000000E7A6EBCDE10DE83DD1F0E796EECDEF9
:100B4000010E796EFFDC010E796E7BDE3CDD12005A
:100B50000900F5CFE6FF0006FBE10106F9E112000E
:100B60006F6A706A0B0E286E100E296E010E2A6EC7
:100B7000880E2B6E3AC02CF040C02DF03FC02EF0F6
:100B800041C02FF042C030F03BC031F03CC032F0E9
:100B90003DC033F03EC034F023C035F024C036F001
:100BA00025C037F026C038F027C039F06F6A706A68
:100BB000800E7018006E800E005C02E1120E6F5CF9
:100BC00014E26F501F240001826F70502020836F49
:100BD000280E6F24E96E000E7020EA6EEECF84F0CE
:0E0BE00045EC00F06F4A702AE3D723DE1200C6
:100BEE00756A766A6FC077F070C078F0800E7018F4
:100BFE00006E800E005C02E1000E6F5C0BE2010ED7
:100C0E00756E000E766E6F500008776E70C078F0BD
:100C1E00000E785677C079F078C07AF071C07BF00C
:100C2E0072C07CF0B7DD060E736E000E746E000E91
:100C3E00006E7450005C02E17350000819E27350AC
:100C4E007124E16E74507220E26E010E735C006EC0
:100C5E00000E7458016E00507124E96E015072201E
:100C6E00EA6EEECFE6FF010E735E000E745ADFD70A
:100C7E0071C0E1FF72C0E2FF200EE66E7550761075
:100C8E001CE0736A746A73507124E96E745072209A
:100C9E00EA6EEECF01F00150200A03E1734A742A86
:100CAE00F2D7010E735E000E745A73507124E16E0A
:0C0CBE0074507220E26E2D0EE66E1200E3
:100CCA00320E156E166A300E176E186A310E196ECC
:100CDA001A6A1B6A1C6A1D6A1E6A7DDE1A0E0B6E70
:100CEA005E0E0C6E6E0E0D6E0D2EFED70C2EFCD700
:100CFA000B2EFAD7000019C023F015C024F017C034
:100D0A0025F01BC026F01DC027F025DF240E0001A8
:100D1A00826F20EC00F000C06FF0000E00BEFF0EE4
:100D2A00706E5F0E716E000E726E5CDF010E6F6E7A
:100D3A00010E706E5F0E716E000E726E0FDE1A0E6D
:100D4A000B6E5E0E0C6E6E0E0D6E0D2EFED70C2EF9
:100D5A00FCD70B2EFAD70000330E236E340E246E06
:100D6A00350E256E1BC026F01DC027F0F4DE240EBA
:100D7A000001826F20EC00F000C06FF0000E00BE90
:100D8A00FF0E706E5F0E716E000E726E2BDF010E1B
:100D9A006F6E010E706E5F0E716E000E726EDEDD8A
:040DAA009DD7FFD7FB
:020000040030CA
:0D000100021F1EFF8381FF0FC00FE00F40A4
:00000001FF
