:100000005DEF07F00000000000EF00F000000000CE
:0A0010000000000000000000F3D71C
:10001C00A3C0C9FFC7B002D00000FCD7C9CF00F005
:02002C001200C0
:10002E00A3C0C9FFC7B002D00000FCD7C9CF00F0F3
:02003E001200AE
:100040008B909FC000F0003600907F0E001600805D
:1000500000C09FF000C0A3F0EADFA0C0A3F0E7DF7C
:040060008B8012007F
:100064000001A06B8B909FC000F0003600907E0EC4
:10007400001600C09FF000C0A3F0D7DFA0C0A3F01B
:06008400CBDF8B801200AF
:10008A000001A26B8B90030E026E9FC000F0A0C00D
:10009A0001F0025007E001320032019E01BC018EDC
:1000AA00FF0FF8D77F0E0014A36FA38F050E006E03
:1000BA009FC0A2F0005004E0A237A291FF0FFBD725
:1000CA00E00EA217A289AEDFA2C0A3F0ABDFA1C0E7
:0800DA00A3F0A8DF8B801200E7
:0600E20000000000120006
:0A00E800210E0D6E0D2EFED7120042
:1000F20000019E6B360E9F6FB4DF00C09EF000843D
:1001020000C09EF0360E00019F6F00C0A0F097DF86
:10011200000E00019E15006E00C09EF0360E9F6F0D
:1001220000C0A0F08CDF030E0C6E970E0D6E0D2E2C
:0C013200FED70C2EFCD7000000001200CD
:10013E00020E00019F6F020EA06F800EA16F9EDF58
:02014E0012009D
:100150000F0E0C6E470E0D6E0D2EFED70C2EFCD71B
:0601600000000000120087
:10016600800E1A0A006E800E00019D19005C08E3DD
:10017600800E9D19006E800E0B0A005C01E302D012
:100186000B0E9D6F8FD0000E9F6F020EA06F020E9A
:10019600A16F78DFBFD0000E00019F6F020EA06F27
:1001A600120EA16F6FDFB6D0000E00019F6F020E18
:1001B600A06F220EA16F66DFADD0000E00019F6F0B
:1001C600020EA06F320EA16F5DDFA4D0000E0001FB
:1001D6009F6F020EA06F420EA16F54DF9BD0000EE0
:1001E60000019F6F020EA06F520EA16F4BDF92D0DF
:1001F600000E00019F6F020EA06F620EA16F42DF1C
:1002060089D0000E00019F6F020EA06F720EA16FC3
:1002160039DF80D0000E00019F6F020EA06F820EA4
:10022600A16F30DF77D0000E00019F6F020EA06F26
:10023600920EA16F27DF6ED0000E00019F6F020E97
:10024600A06FA20EA16F1EDF65D0000E00019F6F8A
:10025600020EA06FB20EA16F15DF5CD0000E00017A
:100266009F6F020EA06FC20EA16F0CDF53D0000E5F
:1002760000019F6F020EA06FD20EA16F03DF4AD05E
:10028600000E00019F6F020EA06FE20EA16FFADE54
:1002960041D0000E00019F6F020EA06FF20EA16FFB
:1002A600F1DE38D000019D510B0AD8B46CD79D51B0
:1002B6000C0AD8B470D79D510D0AD8B475D79D5184
:1002C6000E0AD8B47AD79D510F0AD8B47FD79D515C
:1002D600100AD8B484D79D51110AD8B489D79D5134
:1002E600120A8FE09D51130A95E09D51140A9BE076
:1002F6009D51150AA1E09D51160AA7E09D51170AC6
:10030600ADE09D51180AB3E09D51190AB9E09D511F
:080316001A0ABFE0EBDE120041
:10031E00086A096A100E0C6E01340836093604504C
:10032E00085E0550D8A0053C095ED8B007D0045031
:10033E0008260550D8B0053C0926D890003601365F
:06034E000C2EEAD712009C
:1003540000019DBF02D0839E01D0838E9DBD02D03B
:10036400839C01D0838C9DBB02D0839A01D0838A65
:100374009DB902D0839801D0838863B002D084846D
:1003840001D084948482ABDE84929DB702D0839E94
:1003940001D0838E9DB502D0839C01D0838C9DB304
:1003A40002D0839A01D0838A9DB102D0839801D070
:1003B400838863B002D0848401D0849484828FDEE5
:0E03C400849263A002D0C2DE01D08CDE120053
:0C03D200320E00019F6FA06B32DE1200A3
:1003DE00180E00019F6F980EA06F2BDE2E0E0001DF
:1003EE009F6F950EA06F25DE010E00019F6F020E0E
:1003FE00A06F010EA16F42DE9BDE060E00019F6F05
:10040E00020EA06F900EA16F39DE070E00019F6FD6
:10041E00020EA06F800EA16F31DE080E00019F6FDD
:10042E00020EA06F100EA16F29DE200E00019F6F2D
:0C043E00020EA06F210EA16F21DE120043
:10044A004ED03A0E00019F6F08DE800E00100001A8
:10045A00A06FDF0EA0173A0E9F6FEDDD3F0E000171
:10046A009F6F600EA06FE7DD44D03A0E00019F6FC8
:10047A00F4DD400E00100001A06F7F0EA0173A0EA7
:10048A009F6FD9DD3A0E00019F6FE7DD380E00102D
:10049A000001A06FFB0EA0173A0E9F6FCCDD29D08A
:1004AA003A0E00019F6FD9DDC00E00100001A06F47
:1004BA003A0E9F6FC0DD3A0E00019F6FCEDD380EF7
:1004CA0000100001A06FFB0EA0173A0E9F6FB3DD5C
:1004DA003F0E00019F6F600EA06FADDD0AD00001D4
:1004EA009D51010AAEE09D51020ABFE09D51030AE7
:0404FA00D7E0120035
:1004FE0013D03E0E00019F6FAEDD800E0010000186
:10050E00A06F3E0E9F6F95DD0ED03E0E00019F6FC9
:10051E00400EA06F8EDD07D000019D51010AE9E06B
:08052E009D51020AF2E01200E7
:10053600000E0001965D04E396511F0801E302D008
:100546001F0E966F96511F08006E00C096F01F0E84
:100556000014026E02C000F00036009000360090D3
:1005660000360090F80E001600C096F0030E9F6F3E
:0C057600020EA06F00C0A1F085DD120095
:1005820033D00D0E00019F6F6CDD000E00140001D0
:10059200A06F0D0E9F6F53DD34D00D0E00019F6FC3
:1005A20060DD000E00140001A06FA0870D0E9F6F8A
:1005B20046DD27D00D0E00019F6F53DD000E0014A3
:1005C2000001A06FA0850D0E9F6F39DD1AD00D0EB0
:1005D20000019F6F46DD000E00140001A06FA08392
:1005E2000D0E9F6F2CDD0DD000019651010AC9E05E
:1005F2009651020AD2E09651030ADCE09651040AAF
:04060200E6E012001C
:100606000001986B996B8B90030E026E96C000F0FA
:1006160097C001F0025007E001320032019E01BC92
:10062600018EFF0FF8D77F0E0014A36FA38F050E60
:10063600006E96C098F0005004E098379891FF0F2E
:10064600FBD7E00E9817F0DC98C0A3F0EDDC99C05C
:08065600A3F0E1DC8B8012002F
:10065E0000019F6B00DD080E00100001A06F9F6B64
:10066E00E8DC110E00019F6FF6DCDF0E00140001B6
:10067E00A06F110E9F6FDDDC100E00019F6FFF0E3D
:06068E00A06FD7DC120092
:1006940020D000019F6BE4DC000E00140001A06F69
:1006A4009F6BCCDC20D000019F6BDADC000E0014C1
:1006B4000001A06FA0839F6BC1DC15D000019F6B6C
:1006C400CFDC000E00140001A06FA0819F6BB6DC8C
:1006D4000AD000019651010ADCE09651020AE3E0D7
:0806E4009651030AEBE012003D
:0E06EC001B0E00019F6F050EA06FA4DC120014
:0C06FA00639096C09DF029DE6380120022
:100706000001986B986B800E9819006E800E080A8F
:10071600005C11E29851050F9F6F98519625E96E7E
:10072600000E98BFFF0E9721EA6EEECFA0F085DC93
:080736000001982BE8D7120026
:10073E00030E00019F6F96C0E9FF97C0EAFFEECF50
:10074E00A0F077DC040E00019F6F010E9625E96E76
:0E075E00000E9721EA6EEECFA0F06BDC1200C9
:10076C00010E00019F6F96C0E9FF97C0EAFFEECF24
:10077C00A0F060DC020E00019F6F010E9625E96E61
:0E078C00000E9721EA6EEECFA0F054DC1200B2
:10079A0021DE010E00019D6F53DE020E00019D6FE6
:1007AA00A9DE12DE0B0E00019D6FD8DC9DDC120063
:1007BA008B940D0E00019F6F50DC600E001000013B
:1007CA00A06F0D0E9F6F37DC220E00019F6F45DC74
:1007DA00800E00100001A06F220E9F6F2CDC120009
:1007EA008B840D0E0C6EFB0E0D6E0D2EFED70C2E8D
:0807FA00FCD700000000120012
:1008020000019A6B050E9A5D0AE29A519825E16EF3
:10081200000E9921E26E200EE66E9A2BF3D79A51C2
:100822009825E16E000E9921E26EE66A9A079A51C6
:1008320098259B6F000E99219C6F0A0E046E000E84
:10084200056E96C000F097C001F068DD08C000F0A8
:1008520009C001F0300E00269BC0E1FF9CC0E2FF00
:1008620000C0E6FF0A0E046E000E056E96C000F090
:1008720097C001F053DD00C096F001C097F0000E62
:10088200011802E1000E001801E102D09A07CFD749
:02089200120052
:100894001C0E5B6E000E5C6EA30E5D6E000E5E6E33
:1008A4002E0E5F6E000E606EA30E616E000E626E01
:1008B400949A94969488C66A00019651C6129851E7
:1008C400C6129751C712985305E09951000A01E1E5
:0E08D400C78C03D0995301E0C78CC68A12006E
:1008E2002A0E00019F6F070EA06F20EC00F012008D
:1008F2008B920D0E0C6EFB0E0D6E0D2EFED70C2E76
:10090200FCD7000000008B820D0E0C6EFB0E0D6EEC
:0E0912000D2EFED70C2EFCD7000000001200A8
:10092000969296949598959A959C959E8492849487
:10093000839E839C839A83980BDC0ADC09DC838A80
:100940008388848271EC00F0849202DC848271ECF2
:1009500000F08492A8EC00F0848271EC00F08492A4
:10096000A8EC00F08398848271EC00F08492A8ECEB
:1009700000F0848271EC00F08492839A838E8482EA
:1009800071EC00F08492A8EC00F0839E838884824E
:1009900071EC00F084928398848271EC00F0849270
:1009A000A8EC00F0848271EC00F084928388848249
:1009B00071EC00F08492A8EC00F08398848271ECD2
:1009C00000F08492838E838C838A8388848271EC86
:0C09D00000F08492A8EC00F0638012009C
:1009DC0000018C6B596A5A6A010E586E2B6A000E14
:1009EC00296E030E2A6E276A286A8C6B800E8C196E
:1009FC00006E800E020A005C32E21B0EE16E000EED
:100A0C00E26E8C51E126000E8CBFFF0EE222010E2D
:100A1C00E66E1F0EE16E000EE26E8C51E126000EAA
:100A2C008CBFFF0EE222020EE66E190EE16E000E76
:100A3C00E26E8C51E126000E8CBFFF0EE222030EFB
:100A4C00E66E1D0EE16E000EE26E8C51E126000E7C
:100A5C008CBFFF0EE222030EE66E8C2BC7D78C6B7D
:100A6C00800E8C19006E800E080A005C1AE2640E6F
:100A7C00E16E000EE26E8C51E126000E8CBFFF0E73
:100A8C00E222010EE66E6C0EE16E000EE26E8C51EF
:100A9C00E126000E8CBFFF0EE222020EE66E8C2BBE
:100AAC00DFD70F0EC16EF29E926A936A946A956AB2
:100ABC0094909492948C9494938093849388938E32
:100ACC0093929396216A226A236A246A256A836A1E
:100ADC008C6A270E0C6EF50E0D6E0D2EFED70C2E9D
:100AEC00FCD718DF010E9D6F2FDC0C0E9D6F2CDCDC
:100AFC00966B976B986B010E996FC6DEF4DEEBDE8E
:100B0C0079EC00F054DE6C0E0001966F000E976FBE
:100B1C00F4DD1F0E966F000E976F0BDE190E0001A1
:100B2C00966F000E976F1CDE32DE93DD1F0E0001F8
:100B3C00966FFBDC010E0001966F1DDD010E0001AE
:080B4C00966FA2DD4CDE1200E1
:100B540000018C6B8D6B390E9F6F32EC00F0040E2C
:100B640000100001A06F390E9F6F20EC00F000010F
:100B74008C6B8D6B800E8D19006E800E005C02E113
:100B8400800E8C5D33E2800E8D19006E800E005C49
:100B940002E1150E8C5D13E22C0E8C258E6F000E77
:100BA4008D218F6F8C512924966F8D512A20976F38
:100BB40028DD8EC0E1FF8FC0E2FF00C0E6FF800E9B
:100BC40000018D19006E800E005C02E1150E8C5D33
:100BD40009E38C512924966F8D512A20976F11DDDA
:100BE40000C02BF000018C4B8D2BC4D738C041F0D2
:100BF40039C042F03AC043F03BC044F03CC045F039
:100C04003FC059F040C05AF0390E9F6F32EC00F0EB
:100C1400000E00140001A06F390E9F6F20EC00F04D
:020C24001200BC
:100C260000018C6B8D6B8E6B8E6B050E8E5D0AE2F2
:100C3600000E82BC010E8C6F8C51010A01E18D2BD6
:100C46008E2BF3D78D51020803E2010E006E1200BF
:040C5600006A12001E
:100C5A000001926B936B8CC094F08DC095F0800E5E
:100C6A008D19006E800E005C02E1000E8C5D0BE2B5
:100C7A00010E926F000E936F8C510008946F8DC015
:100C8A0095F0000E955794C096F095C097F08EC0D7
:100C9A0098F08FC099F0B0DD060E906F000E916F3C
:100CAA00000E006E9151005C02E19051000819E2B9
:100CBA0090518E25E16E91518F21E26E010E905D69
:100CCA00006E000E9159016E00508E25E96E01509A
:100CDA008F21EA6EEECFE6FF010E905F000E915B68
:100CEA00DFD78EC0E1FF8FC0E2FF200EE66E925181
:100CFA0093111CE0906B916B90518E25E96E915186
:100D0A008F21EA6EEECF01F00150200A03E1904BE9
:100D1A00912BF2D7010E905F000E915B90518E25B8
:0E0D2A00E16E91518F21E26E2D0EE66E1200E9
:100D380010D0800E00018C6F1AD0C00E8C6F17D0A7
:100D4800940E8C6F14D0D40E8C6F11D0800E8C6FD3
:100D58000ED000018C51010AECE08C51020AEDE042
:100D68008C51030AEDE08C51040AEDE0EFD78D05B4
:100D7800006E8C51002600C08CF0638000C09DF08E
:100D8800AAEC01F063908EC09DF0AAEC01F063809C
:020D9800120047
:100D9A0010D0800E00018C6F1AD0C00E8C6F17D045
:100DAA00940E8C6F14D0D40E8C6F11D0800E8C6F71
:100DBA000ED000018C51010AECE08C51020AEDE0E0
:100DCA008C51030AEDE08C51040AEDE0EFD78D0552
:100DDA00006E8C51002600C08CF000C09DF0AAEC79
:100DEA0001F06390906B90518E25E96E000E8F2171
:100DFA00EA6EEE520BE090518E25E96E000E8F21BD
:100E0A00EA6EEECF96F074DC902BEDD76380120079
:100E1A000900F5CFE6FF0006FBE10106F9E1120041
:100E2A0000018C6B8D6B0B0E466E100E476E210EF9
:100E3A00486E880E496E58C04AF01EC04BF01DC05D
:100E4A004CF01FC04DF020C04EF019C04FF01AC030
:100E5A0050F01BC051F01CC052F021C053F022C008
:100E6A0054F023C055F024C056F025C057F08C6BBF
:100E7A008D6B800E8D19006E800E005C02E1120EE1
:100E8A008C5D14E28C5127249F6F8D512820A06F0E
:100E9A00460E8C25E96E000E8D21EA6EEECFA1F08A
:100EAA0045EC00F000018C4B8D2BE3D71ADC1200C5
:100EBA00156A166A176A186A010E746E756A766A76
:100ECA00776A786A796A7A6A84DD7450000A4BE133
:100EDA000B0E0B6E260E0C6E5D0E0D6E0D2EFED7D2
:100EEA000C2EFCD70B2EFAD70000000097DE00501C
:100EFA00000A39E1310E9F6F32EC00F000C026F093
:100F0A0024DE41C07AF042C079F07850411804E1F9
:100F1A007750791801E119D07550010A16E1785015
:100F2A007A1813E07750791810E0010E00018C6FDF
:100F3A00010E8D6F78C08EF0FADE010E8C6F020EF4
:100F4A008D6F77C08EF0F3DE756A010E756E7AC00A
:100F5A0078F079C077F0030E0C6E5D0E0D6E0D2ED3
:100F6A00FED70C2EFCD77450010A5BE10A0E0B6EF9
:100F7A00220E0C6EA10E0D6E0D2EFED70C2EFCD776
:100F8A000B2EFAD7FF0E216E340E226E350E236E0B
:100F9A0015C024F017C025F043DF020E0B6E040EB5
:100FAA000C6EBA0E0D6E0D2EFED70C2EFCD70B2E24
:100FBA00FAD70000582A330E216E340E226E350EEF
:100FCA00236E15C024F017C025F02ADF240E000175
:100FDA009F6F32EC00F000C07BF000C08CF0000E76
:100FEA0000BEFF0E00018D6F7C0E8E6F000E8F6F9C
:0E0FFA002FDE010E8C6F010E8D6F7C0E8E6F40
:020000040030CA
:0D000100021F1EFF8381FF0FC00FE00F40A4
:00000001FF
