:100000005AEF07F00000000000EF00F000000000D1
:0A0010000000000000000000F3D71C
:10001C00A6C0C9FFC7B002D00000FCD7C9CF00F002
:02002C001200C0
:10002E00A6C0C9FFC7B002D00000FCD7C9CF00F0F0
:02003E001200AE
:100040008B90A2C000F0003600907F0E001600805A
:1000500000C0A2F000C0A6F0EADFA3C0A6F0E7DF70
:040060008B8012007F
:100064000001A36B8B90A2C000F0003600907E0EBE
:10007400001600C0A2F000C0A6F0D7DFA3C0A6F00F
:06008400CBDF8B801200AF
:10008A000001A56B8B90030E026EA2C000F0A3C004
:10009A0001F0025007E001320032019E01BC018EDC
:1000AA00FF0FF8D77F0E0014A66FA68F050E006EFD
:1000BA00A2C0A5F0005004E0A537A591FF0FFBD719
:1000CA00E00EA517A589AEDFA5C0A6F0ABDFA4C0D8
:0800DA00A6F0A8DF8B801200E4
:0600E20000000000120006
:0C00E800290E0D6E0D2EFED70000120038
:1000F4000001A16B360EA26FB3DF00C0A1F0008433
:1001040000C0A1F0360E0001A26F00C0A3F096DF7C
:10011400000E0001A115006E00C0A1F0360EA26F02
:1001240000C0A3F08BDF040E0C6E3D0E0D6E0D2E81
:0C013400FED70C2EFCD7000000001200CB
:10014000020E0001A26F020EA36F800EA46F9DDF4E
:0201500012009B
:10015200120E0C6EDA0E0D6E0D2EFED70C2EFCD783
:040162000000120087
:10016600800E1A0A006E800E0001A019005C08E3DA
:10017600800EA019006E800E0B0A005C01E302D00F
:100186000B0EA06F8FD0000EA26F020EA36F020E91
:10019600A46F78DFBFD0000E0001A26F020EA36F1E
:1001A600120EA46F6FDFB6D0000E0001A26F020E12
:1001B600A36F220EA46F66DFADD0000E0001A26F02
:1001C600020EA36F320EA46F5DDFA4D0000E0001F5
:1001D600A26F020EA36F420EA46F54DF9BD0000ED7
:1001E6000001A26F020EA36F520EA46F4BDF92D0D6
:1001F600000E0001A26F020EA36F620EA46F42DF13
:1002060089D0000E0001A26F020EA36F720EA46FBA
:1002160039DF80D0000E0001A26F020EA36F820E9E
:10022600A46F30DF77D0000E0001A26F020EA36F1D
:10023600920EA46F27DF6ED0000E0001A26F020E91
:10024600A36FA20EA46F1EDF65D0000E0001A26F81
:10025600020EA36FB20EA46F15DF5CD0000E000174
:10026600A26F020EA36FC20EA46F0CDF53D0000E56
:100276000001A26F020EA36FD20EA46F03DF4AD055
:10028600000E0001A26F020EA36FE20EA46FFADE4B
:1002960041D0000E0001A26F020EA36FF20EA46FF2
:1002A600F1DE38D00001A0510B0AD8B46CD7A051AA
:1002B6000C0AD8B470D7A0510D0AD8B475D7A0517E
:1002C6000E0AD8B47AD7A0510F0AD8B47FD7A05156
:1002D600100AD8B484D7A051110AD8B489D7A0512E
:1002E600120A8FE0A051130A95E0A051140A9BE070
:1002F600A051150AA1E0A051160AA7E0A051170ABD
:10030600ADE0A051180AB3E0A051190AB9E0A05116
:080316001A0ABFE0ECDE120040
:10031E00086A096A100E0C6E01340836093604504C
:10032E00085E0550D8A0053C095ED8B007D0045031
:10033E0008260550D8B0053C0926D890003601365F
:06034E000C2EEAD712009C
:100354000001A0BF02D0839E01D0838EA0BD02D035
:10036400839C01D0838CA0BB02D0839A01D0838A62
:10037400A0B902D0839801D0838869B002D0848464
:1003840001D084948482ABDE8492A0B702D0839E91
:1003940001D0838EA0B502D0839C01D0838CA0B3FE
:1003A40002D0839A01D0838AA0B102D0839801D06D
:1003B400838869B002D0848401D0849484828FDEDF
:0E03C400849269A002D0C3DE01D08CDE12004C
:0C03D200320E0001A26FA36B32DE12009D
:1003DE00180E0001A26F980EA36F2BDE2E0E0001D9
:1003EE00A26F950EA36F25DE010E0001A26F020E05
:1003FE00A36F010EA46F42DE9CDE060E0001A26FFB
:10040E00020EA36F900EA46F39DE070E0001A26FCD
:10041E00020EA36F800EA46F31DE080E0001A26FD4
:10042E00020EA36F100EA46F29DE200E0001A26F24
:0C043E00020EA36F210EA46F21DE12003D
:10044A004ED03A0E0001A26F08DE800E00100001A5
:10045A00A36FDF0EA3173A0EA26FEDDD3F0E000168
:10046A00A26F600EA36FE7DD44D03A0E0001A26FBF
:10047A00F4DD400E00100001A36F7F0EA3173A0EA1
:10048A00A26FD9DD3A0E0001A26FE7DD380E001027
:10049A000001A36FFB0EA3173A0EA26FCCDD29D081
:1004AA003A0E0001A26FD9DDC00E00100001A36F41
:1004BA003A0EA26FC0DD3A0E0001A26FCEDD380EF1
:1004CA0000100001A36FFB0EA3173A0EA26FB3DD53
:1004DA003F0E0001A26F600EA36FADDD0AD00001CE
:1004EA00A051010AAEE0A051020ABFE0A051030ADE
:0404FA00D7E0120035
:1004FE0013D03E0E0001A26FAEDD800E0010000183
:10050E00A36F3E0EA26F95DD0ED03E0E0001A26FC0
:10051E00400EA36F8EDD07D00001A051010AE9E065
:08052E00A051020AF2E01200E4
:10053600000E0001995D04E399511F0801E302D002
:100546001F0E996F99511F08006E00C099F01F0E7B
:100556000014026E02C000F00036009000360090D3
:1005660000360090F80E001600C099F0030EA26F38
:0C057600020EA36F00C0A4F085DD12008F
:1005820033D00D0E0001A26F6CDD000E00140001CD
:10059200A36F0D0EA26F53DD34D00D0E0001A26FBA
:1005A20060DD000E00140001A36FA3870D0EA26F81
:1005B20046DD27D00D0E0001A26F53DD000E0014A0
:1005C2000001A36FA3850D0EA26F39DD1AD00D0EA7
:1005D2000001A26F46DD000E00140001A36FA38389
:1005E2000D0EA26F2CDD0DD000019951010AC9E058
:1005F2009951020AD2E09951030ADCE09951040AA6
:04060200E6E012001C
:1006060000019B6B9C6B8B90030E026E99C000F0F1
:100616009AC001F0025007E001320032019E01BC8F
:10062600018EFF0FF8D77F0E0014A66FA68F050E5A
:10063600006E99C09BF0005004E09B379B91FF0F22
:10064600FBD7E00E9B17F0DC9BC0A6F0EDDC9CC050
:08065600A6F0E1DC8B8012002C
:10065E000001A26B00DD080E00100001A36FA26B5B
:10066E00E8DC110E0001A26FF6DCDF0E00140001B3
:10067E00A36F110EA26FDDDC100E0001A26FFF0E34
:06068E00A36FD7DC12008F
:1006940020D00001A26BE4DC000E00140001A36F63
:1006A400A26BCCDC20D00001A26BDADC000E0014BB
:1006B4000001A36FA383A26BC1DC15D00001A26B60
:1006C400CFDC000E00140001A36FA381A26BB6DC83
:1006D4000AD000019951010ADCE09951020AE3E0D1
:0806E4009951030AEBE012003A
:0E06EC001B0E0001A26F050EA36FA4DC12000E
:0C06FA00699099C0A0F029DE6980120010
:1007060000019B6B9B6B800E9B19006E800E080A86
:10071600005C11E29B51050FA26F9B519925E96E72
:10072600000E9BBFFF0E9A21EA6EEECFA3F085DC8A
:0807360000019B2BE8D7120023
:10073E00030E0001A26F99C0E9FF9AC0EAFFEECF47
:10074E00A3F077DC040E0001A26F010E9925E96E6D
:0E075E00000E9A21EA6EEECFA3F06BDC1200C3
:10076C00010E0001A26F99C0E9FF9AC0EAFFEECF1B
:10077C00A3F060DC020E0001A26F010E9925E96E58
:0E078C00000E9A21EA6EEECFA3F054DC1200AC
:10079A0021DE010E0001A06F53DE020E0001A06FE0
:1007AA00A9DE12DE0B0E0001A06FD8DC9EDC12005F
:1007BA008B940D0E0001A26F50DC600E0010000138
:1007CA00A36F0D0EA26F37DC220E0001A26F45DC6B
:1007DA00800E00100001A36F220EA26F2CDC120003
:1007EA008B84110E0C6E3A0E0D6E0D2EFED70C2E4A
:0607FA00FCD70000120014
:1008000000019D6B050E9D5D0AE29D519B25E16EE9
:10081000000E9C21E26E200EE66E9D2BF3D79D51BB
:100820009B25E16E000E9C21E26EE66A9D079D51BC
:100830009B259E6F000E9C219F6F0A0E046E000E7A
:10084000056E99C000F09AC001F069DD08C000F0A3
:1008500009C001F0300E00269EC0E1FF9FC0E2FFFC
:1008600000C0E6FF0A0E046E000E056E99C000F08F
:100870009AC001F054DD00C099F001C09AF0000E5A
:10088000011802E1000E001801E102D09D07CFD748
:02089000120054
:100892001C0E616E000E626EA60E636E000E646E1A
:1008A2002E0E656E000E666EA60E676E000E686EE8
:1008B200949A94969488C66A00019951C6129B51E3
:1008C200C6129A51C7129B5305E09C51000A01E1DE
:0E08D200C78C03D09C5301E0C78CC68A12006D
:1008E0002A0E0001A26F070EA36F20EC00F0120089
:1008F0008B92110E0C6E3A0E0D6E0D2EFED70C2E35
:10090000FCD700008B82110E0C6E3A0E0D6E0D2E70
:0A091000FED70C2EFCD700001200E9
:10091A00969296949598959A959C959E849284948D
:10092A00839E839C839A83980FDC0EDC0DDC838A7A
:10093A008388848271EC00F0849206DC848271ECF4
:10094A0000F0849201DC848271EC00F08492A9ECBC
:10095A0000F08398848271EC00F08492A9EC00F094
:10096A00848271EC00F08492839A838E848271EC83
:10097A0000F08492A9EC00F0839E8388848271EC53
:10098A0000F084928398848271EC00F08492A9EC3E
:10099A0000F0848271EC00F084928388848271EC86
:1009AA0000F08492A9EC00F08398848271EC00F044
:1009BA008492838E838C838A8388848271EC00F08C
:0A09CA008492A9EC00F0698012008D
:1009D40000018F6B5F6A606A230E5E6E316A000EDF
:1009E4002F6E030E306E2A6A2B6A8F6B800E8F195E
:1009F400006E800E020A005C32E21F0EE16E000EF1
:100A0400E26E8F51E126000E8FBFFF0EE222010E2F
:100A1400E66E260EE16E000EE26E8F51E126000EA8
:100A24008FBFFF0EE222020EE66E280EE16E000E6C
:100A3400E26E8F51E126000E8FBFFF0EE222030EFD
:100A4400E66E2D0EE16E000EE26E8F51E126000E71
:100A54008FBFFF0EE222030EE66E8F2BC7D78F6B7C
:100A6400800E8F19006E800E080A005C1AE26A0E6E
:100A7400E16E000EE26E8F51E126000E8FBFFF0E75
:100A8400E222010EE66E720EE16E000EE26E8F51EE
:100A9400E126000E8FBFFF0EE222020EE66E8F2BC0
:100AA400DFD70F0EC16EF29E926A936A946A956ABA
:100AB40094909492948C9494938093849388938E3A
:100AC40093929396216A226A236A246A256A836A26
:100AD4008C6A310E0C6EB20E0D6E0D2EFED70C2EDE
:100AE400FCD7000018DF010EA06F32DC0C0EA06FE3
:100AF4002FDC996B9A6B9B6B010E9C6FC8DEF6DE44
:100B0400EDDE7AEC00F057DE720E0001996F000EF4
:100B14009A6FF7DD260E996F000E9A6F0EDE280E7F
:100B24000001996F000E9A6F1FDE35DE96DD1F0EF1
:100B34000001996FFEDC010E0001996F20DD010EAA
:0A0B44000001996FA5DD4FDE1200DD
:100B4E0000018F6B906B390EA26F32EC00F0040E29
:100B5E0000100001A36F390EA26F20EC00F000010F
:100B6E008F6B906B800E9019006E800E005C02E110
:100B7E00800E8F5D33E2800E9019006E800E005C49
:100B8E0002E1150E8F5D13E2320E8F25916F000E6E
:100B9E009021926F8F512F24996F905130209A6F20
:100BAE002BDD91C0E1FF92C0E2FF00C0E6FF800E98
:100BBE0000019019006E800E005C02E1150E8F5D33
:100BCE0009E38F512F24996F905130209A6F14DDC5
:100BDE0000C031F000018F4B902BC4D73EC047F0C0
:100BEE003FC048F040C049F041C04AF042C04BF00F
:100BFE0045C05FF046C060F0390EA26F32EC00F0D7
:100C0E00000E00140001A36F390EA26F20EC00F04D
:020C1E001200C2
:100C200000018F6B906B916B916B050E915D0AE2E9
:100C3000000E82BC010E8F6F8F51010A01E1902BD3
:100C4000912BF3D79051020803E2010E006E1200BF
:040C5000006A120024
:100C54000001956B966B8FC097F090C098F0800E52
:100C64009019006E800E005C02E1000E8F5D0BE2B5
:100C7400010E956F000E966F8F510008976F90C00C
:100C840098F0000E985797C099F098C09AF091C0C8
:100C94009BF092C09CF0B2DD060E936F000E946F31
:100CA400000E006E9451005C02E19351000819E2B9
:100CB40093519125E16E94519221E26E010E935D60
:100CC400006E000E9459016E00509125E96E01509A
:100CD4009221EA6EEECFE6FF010E935F000E945B65
:100CE400DFD791C0E1FF92C0E2FF200EE66E95517E
:100CF40096111CE0936B946B93519125E96E94517A
:100D04009221EA6EEECF01F00150200A03E1934BE9
:100D1400942BF2D7010E935F000E945B93519125AF
:0E0D2400E16E94519221E26E2D0EE66E1200E9
:100D320010D0800E00018F6F1AD0C00E8F6F17D0A7
:100D4200940E8F6F14D0D40E8F6F11D0800E8F6FD0
:100D52000ED000018F51010AECE08F51020AEDE042
:100D62008F51030AEDE08F51040AEDE0EFD79005B1
:100D7200006E8F51002600C08FF0698000C0A0F085
:100D8200AAEC01F0699091C0A0F0AAEC01F0698090
:020D920012004D
:100D940010D0800E00018F6F1AD0C00E8F6F17D045
:100DA400940E8F6F14D0D40E8F6F11D0800E8F6F6E
:100DB4000ED000018F51010AECE08F51020AEDE0E0
:100DC4008F51030AEDE08F51040AEDE0EFD790054F
:100DD400006E8F51002600C08FF000C0A0F0AAEC76
:100DE40001F06990936B93519125E96E000E922165
:100DF400EA6EEE520BE093519125E96E000E9221BA
:100E0400EA6EEECF99F077DC932BEDD76980120070
:100E14000900F5CFE6FF0006FBE10106F9E1120047
:100E240000018F6B906B0B0E4C6E100E4D6E210EED
:100E34004E6E880E4F6E5EC050F02EC051F02DC025
:100E440052F026C053F027C054F028C055F029C0F2
:100E540056F01FC057F020C058F021C059F022C0EE
:100E64005AF023C05BF024C05CF025C05DF08F6BAA
:100E7400906B800E9019006E800E005C02E1120EE1
:100E84008F5D14E28F512A24A26F90512B20A36FFF
:100E94004C0E8F25E96E000E9021EA6EEECFA4F081
:100EA40045EC00F000018F4B902BE3D71DDC1200C2
:100EB400310E156E166A320E176E186A196A1A6A9E
:100EC400300E1B6E1C6A1D6A1E6A7A6A7B6A7C6A13
:100ED4007D6A7EDD7A50000A40E10D0E0B6EAF0E86
:100EE4000C6EB60E0D6E0D2EFED70C2EFCD70B2EEF
:100EF400FAD7000093DE0050000A2FE1310EA26FF2
:100F040032EC00F000C02CF020DE48C07DF049C077
:100F14007CF0010E00018F6F010E906F47C091F0BD
:100F240006DF010E8F6F020E906F7DC091F0FFDE21
:100F3400010E8F6F030E906F2E0E916FF8DE010E6F
:100F44008F6F040E906F7CC091F0F1DE7B2A7B5092
:100F5400020A03E17B6A010E7A6E7A50010A73E198
:100F64000D0E0B6EAF0E0C6EB60E0D6E0D2EFED763
:100F74000C2EFCD70B2EFAD7000015C021F017C099
:100F840022F01BC023F01DC024F019C025F048DF57
:100F9400240E0001A26F32EC00F000C07EF000C00D
:100FA4008FF0000E00BEFF0E0001906F7F0E916F58
:100FB400000E926F4DDE010E8F6F010E906F7F0E4B
:100FC400916F000E926FE4DE0D0E0B6EAF0E0C6E81
:100FD400B60E0D6E0D2EFED70C2EFCD70B2EFAD7A7
:100FE4000000330E216E340E226E350E236E1DC0AA
:100FF40024F019C025F014DF240E0001A26F32EC96
:0210040000F0FA
:020000040030CA
:0D000100021F1EFF8381FF0FC00FE00F40A4
:00000001FF
